:10000000E2C700000C9414080C9414080C94140813
:100010000C9414080C9414080C9414080C941408F0
:100020000C9414080C9414080C941408FDC70000D8
:10003000FBC70000F9C70000F7C70000F5C70000C4
:10004000F3C70000F1C70000EFC70000EDC70000D4
:10005000EBC70000E9C70000E7C700000C94A5DE6D
:10006000E3C700000C9406E20C943CE2DDC70000FC
:10007000DBC70000D9C70000D7C70000D5C7000004
:10008000D3C70000D1C70000CFC70000CDC7000014
:10009000CBC70000C9C70000C7C70000C5C7000024
:1000A000C3C70000C1C70000BFC70000BDC7000034
:1000B000BBC70000B9C70000B7C70000B5C7000044
:1000C000B3C70000B1C70000AFC70000ADC7000054
:1000D000ABC70000A9C70000A7C70000A5C7000064
:1000E000A3C70000EDDFF0DFDFDFE3DFE9DF27E0BC
:1000F000F4DFF8DFFEDF02E006E00CE010E014E0E1
:1001000027E01AE01EE022E03B50756C736573280F
:1001100075536563293D0044454255473B50756C16
:100120007365733D003B50756C736573287553653B
:1001300063293D0044454255473B50756C736573D8
:100140003D00536C6176653B44656275673D0053C5
:100150006C6176653B00536C6176653B4465627506
:10016000673D00536C6176653B004348494D453D12
:1001700030313B005357495443483D313B434D4494
:100180003D4F4E3B0046726965646C616E643B0096
:100190004348494D453D30313B005357495443484E
:1001A0003D313B434D443D4F4E3B003B446F6F72EE
:1001B00062656C6C3B004348494D453D30313B0026
:1001C0005357495443483D313B434D443D4F4E3BCB
:1001D000003B456C726F44423B004348494D453DEE
:1001E00030313B005357495443483D313B434D4424
:1001F0003D4F4E3B003B446F6F7262656C6C3B0041
:100200004348494D453D30313B00535749544348DD
:100210003D313B434D443D4F4E3B004348494D45E6
:100220003D30313B005357495443483D313B434DEA
:10023000443D4F4E3B003B4279726F6E204D503B28
:10024000004348494D453D30313B005357495443E5
:10025000483D313B434D443D4F4E3B003B44656C74
:1002600074726F6E69633B003B4279726F6E3B0044
:100270003B506C69656765723B00434D443D4F4E92
:100280003B4348494D453D30313B003B53656C6530
:100290006374506C75733B00534D4F4B45414C4557
:1002A00052543D4F4E3B005357495443483D303123
:1002B0003B434D443D4F4E3B00416C6563746F536F
:1002C000413B00474F444F574E3B00474F55503B33
:1002D0000053544F503B004F4E3B004F46463B00AF
:1002E000444F574E3B0055503B00434D443D005357
:1002F00057495443483D30313B004D657274696B3A
:100300003B00534D4F4B45414C4552543D4F4E3BA6
:10031000005357495443483D30313B434D443D4FD2
:100320004E3B004641323052463B00434D443D4F28
:100330004E3B005357495443483D30313B004672D1
:100340006965646C616E643B004F46463B004F4EEE
:100350003B00434D443D005357495443483D3031E1
:100360003B004C6F6265636F3B00434D443D4F4E15
:100370003B005357495443483D30313B004D4331D6
:1003800034353032363B004F4E004F4E004F4E005A
:100390004F4E004F4E004F4646004F4E004F4646D0
:1003A000003B5357495443483D30313B434D443D56
:1003B0000041746C616E7469633B49443D00424185
:1003C000543D4C4F573B004241543D4F4B3B004343
:1003D0004D443D4F4E3B00434D443D4F46463B0050
:1003E0004B65656C6F713B49443D00434D443D4F47
:1003F0004E3B005831303B00434D443D4F4E3B0097
:10040000434D443D4F46463B005357495443483DB6
:1004100030323B00436875616E676F3B00434D446B
:100420003D4F4E3B004556313532373B00434D443E
:100430003D4F4E3B005357495443483D30313B00FC
:1004400048543132453B0044454255473D00424106
:10045000543D4C4F573B004241543D4F4B3B0041B4
:100460006375726974653B0044454255473D0042DF
:1004700041543D4C4F573B004241543D4F4B3B0094
:100480005748353032393B00436F6E7261643B0030
:100490003B42696C74656D613B49443D30300052AC
:1004A000465831304D455445523B003B4F726567CD
:1004B0006F6E205747523830303B44454255473DD8
:1004C000003B4F7265676F6E20434D3138303B49BA
:1004D000443D3030003B4F7265676F6E20434D31B5
:1004E00031393B49443D3030003B4F7265676F6E98
:1004F00020434D3136303B49443D3030003B4F7254
:1005000065676F6E20434D3133303B49443D303099
:10051000003B4F7265676F6E20434D3131333B496D
:10052000443D0044454255473D004241543D4F4BF8
:100530003B004241543D4C4F573B003B4F72656777
:100540006F6E2055564E3830303B49443D0044458F
:100550004255473D004241543D4F4B3B00424154C0
:100560003D4C4F573B003B4F7265676F6E205556B1
:100570004E3132382F3133383B49443D00424154EB
:100580003D4F4B3B004241543D4C4F573B003B4F8E
:100590007265676F6E2057696E64323B49443D0057
:1005A00044454255473D004241543D4F4B3B00427C
:1005B00041543D4C4F573B003B4F7265676F6E2077
:1005C00057696E643B49443D0044454255473D00F0
:1005D0004241543D4C4F573B004241543D4F4B3BF1
:1005E000003B4F7265676F6E205261696E323B4906
:1005F000443D0044454255473D004241543D4F4B28
:100600003B004241543D4C4F573B003B4F726567A6
:100610006F6E205261696E3B49443D004241543D3A
:100620004C4F573B004241543D4F4B3B003B4F72B8
:1006300065676F6E204254483B49443D0042415437
:100640003D4C4F573B004241543D4F4B3B003B4FCD
:100650007265676F6E2054656D70487967726F3B85
:1006600049443D004241543D4C4F573B00424154A8
:100670003D4F4B3B003B4F7265676F6E2054656D7D
:10068000703B49443D004241543D4F4B3B00424189
:10069000543D4C4F573B003B4F7265676F6E563170
:1006A0003B49443D30300042696F77696E3B004200
:1006B00041543D4F4B3B004241543D4C4F573B0052
:1006C0003B54756E65783B49443D003B5869726FF9
:1006D0006E3B49443D003B417572696F6C20563258
:1006E0003B49443D004241543D4F4B3B0042415445
:1006F0003D4C4F573B003B417572696F6C3B494421
:100700003D3030003B417572696F6C2056333B4978
:10071000443D004C6143726F7373653B49443D0037
:100720004C6143726F7373653B49443D003B5550C8
:100730004D5F457369632046323B49443D00424169
:10074000543D4F4B3B004241543D4C4F573B003BC7
:1007500055504D5F457369633B49443D004C6143CF
:10076000726F73736556333B49443D004C6143726D
:100770006F73736556333B49443D004C6143726F60
:1007800073736556333B49443D004C6143726F734C
:10079000736556333B49443D004D656275733B00BC
:1007A0004241543D4F4B3B004241543D4C4F573B1F
:1007B00000496E6F56616C6C65793B004B726970D5
:1007C000706C3B004241543D4F4B3B004241543D15
:1007D0004C4F573B0050726F6C6F6775653B00451F
:1007E00075726F6368726F6E3B00575430313232EE
:1007F0003B003B003B4372657374613B444542558B
:10080000473B49443D004241543D4C4F573B004219
:1008100041543D4F4B3B003B4372657374613B4910
:10082000443D004241543D4C4F573B004241543DF2
:100830004F4B3B003B4372657374613B49443D0041
:100840004241543D4C4F573B004241543D4F4B3B7E
:10085000003B4372657374613B49443D004241541F
:100860003D4C4F573B004241543D4F4B3B003B43B7
:1008700072657374613B49443D004241543D4C4FA5
:10088000573B004241543D4F4B3B003B4372657325
:1008900074613B49443D00416C6563746F2056357B
:1008A0003B004241543D4C4F573B004241543D4F69
:1008B0004B3B00476C6F62616C54726F6E6963737F
:1008C0003B00416C6563746F2056343B00416C659E
:1008D00063746F56333B0058543230303B004669E6
:1008E0006E654F66667365743B00496D6167696E3E
:1008F00074726F6E69783B00416C6563746F20564B
:10090000313B00416C6563746F2056313B00416C94
:100910006563746F2056313B00416C6563746F20D2
:1009200056313B005265766F6C743B004F46463B38
:10093000004F4E3B00434D443D0048616C656D6582
:100940006965723B004F4E3B004F46463B00434DAE
:10095000443D004E6F76617479733B004F46463BD1
:100960000053544F503B004F4E3B00414C4C004312
:100970004D443D00466F726573743B49443D004FE2
:1009800046463B004F4E3B00434D443D004C69768C
:100990006F6C6F3B0044454255473D0053544F50E8
:1009A0003B00504149523B0053544F503B0055507F
:1009B0003B00444F574E3B00434D443D004B696E56
:1009C0006770696E3B0044454255473D004F4646BF
:1009D0003B004F4E3B00414C4C00434D443D004BCF
:1009E0006F63683B0053544F503B004F4E3B0053E6
:1009F000544F503B00444F574E3B0055503B004333
:100A00004D443D005254533B004C4F573B004F4B1D
:100A10003B004241543D004F4E3B004F46463B0099
:100A2000414C4C00434D443D0046756E6B627573FE
:100A30003B0053544F503B00444F574E3B005550E2
:100A40003B00434D443D00446F6F79613B0053547C
:100A50004F503B004C4F434B3B0053544F503B00D7
:100A6000444F574E3B0055503B00434D443D0042E0
:100A700072656C4D6F746F723B004C494D49543B2D
:100A800000434F4E4649524D3B0053544F503B009C
:100A9000444F574E3B0055503B00434D443D0042B0
:100AA0006F66754D6F746F723B004F46463B004F4B
:100AB0004E3B00414C4C00434D443D0053696C7625
:100AC000657243726573743B004F46463B004F4E60
:100AD0003B00434D443D00523534363B004F4E3BC6
:100AE000004F46463B00434D443D0058313053656E
:100AF000637572653B004F46463B00414C4C4F4688
:100B0000463B004F46463B004F4E3B0053544F5030
:100B10003B004F4E3B004F46463B00414C4C4F463E
:100B2000463B004F4E3B004F46463B00434D443D45
:100B3000004C69676874776176653B004F4E3B00F7
:100B40004F46463B004F4E3B004F46463B00414C14
:100B50004C00434D443D00556E697465633B004F46
:100B600046463B004F4E3B00414C4C00434D443DFC
:100B7000004575726F70653B004252494748543BCF
:100B80000044494D3B004F4E3B004F46463B00431F
:100B90004D443D005357495443483D30313B00419B
:100BA000737465723B004F4E3B004F46463B00411D
:100BB0004C4C00434D443D004D61636C65616E3BA0
:100BC000004F4E3B004F46463B00414C4C00434DCE
:100BD000443D004F4E3B004F46463B00434D443D95
:100BE00000496B6561204B6F70706C613B00414C3C
:100BF0004C4F4E3B00414C4C4F46463B0044494D08
:100C00003B004252494748543B004F4E3B004F4641
:100C1000463B00434D443D00506F776572666978EE
:100C20003B004F46463B004F4E3B00434D443D008A
:100C300046413530303B004F4E3B004F46463B006F
:100C4000414C4C00434D443D00486F6D65436F6E11
:100C5000666F72743B00434F4C4F522047524545DC
:100C60004E3B00434F4C4F522059454C4C4F573B45
:100C700000434F4C4F5220424C55453B00434F4C94
:100C80004F52205245443B00434F4C4F524D495820
:100C900020444F574E3B00434F4C4F524D49582034
:100CA00055503B0044494D2055503B0044494D2090
:100CB000444F574E3B004F46463B00434D443D009A
:100CC00054524330325247423B00414C4C4F4E3B12
:100CD00000414C4C4F46463B0044494D3B0042527C
:100CE000494748543B004F4E3B004F46463B00436C
:100CF0004D443D005831303B004F4E3B004F46467F
:100D00003B00434D443D004B616D62726F6F6B3B26
:100D1000004F46463B004F4E3B00414C4C00434D7C
:100D2000443D00436F6E7261643B00414C4C4F4642
:100D3000463B00414C4C4F4E3B004F46463B004F1C
:100D40004E3B00434D443D004176696473656E3B04
:100D500000426C7973733B004F4E3B004F46463B5D
:100D6000004F4E3B004F46463B00414C4C00434D2C
:100D7000443D004575726F646F6D6573743B00414F
:100D80004C4C4F4E3B00414C4C4F46463B004F4E67
:100D90003B004F46463B00434D443D004E65774B7C
:100DA000616B753B004F46463B004F4E3B00414C4C
:100DB0004C00434D443D0054726953746174653B6B
:100DC000005054323236323B005068696C6970739F
:100DD0003B00496D70756C733B0053617274616EBA
:100DE0006F3B00496D70756C733B0041423430308D
:100DF000443B004B616B753B003B4C6143726F732E
:100E0000736556323B49443D003B4C6143726F73FE
:100E1000736556323B49443D003B4C6143726F73EE
:100E2000736556323B49443D003B4C6143726F73DE
:100E3000736556323B49443D003B50756C73657396
:100E40002875536563293D0044454255473B50751D
:100E50006C7365733D00536C6176653B44656275E8
:100E6000673D00536C6176653B0032303B30303B70
:100E70004E6F646F20526164696F4672657175656B
:100E80006E63794C696E6B202D2052464C696E6BF7
:100E900020476174657761792056312E31202D20ED
:100EA0000000000A0B02090C0D0E080703040100E4
:100EB0000000000000000000000000000000000032
:100EC00000000000000000000000000000121110EF
:100ED0000000000000000000000000000000000012
:100EE000000000000000000102102020080810206F
:100EF00040102040800201020108040201010204A6
:100F00000810204080804020100804020180040264
:100F100001804020100804020108040201010204BB
:100F200008102040800102040810204080050505BB
:100F300005070508080808020202020A0A08080450
:100F4000040404010101010101010103030303037E
:100F5000030303040707070C0C0C0C0C0C0C0C020D
:100F600002020206060606060606060B0B0B0B0B14
:100F70000B0B0B000020002300260029002C002F63
:100F800000320000010000030106010901000022F7
:100F900000250028002B002E003100340002010043
:100FA00000050108010B0100002100240027002A90
:100FB000002D003000330001010000040107010A88
:100FC00001001DDC6EE211241FBECFEFD1E2DEBFB7
:100FD000CDBF00E00CBF1AE0A0E0B2E0E8ECF7ED16
:100FE00001E00BBF02C007900D92A23CB107D9F7F8
:100FF00021E1A2ECBAE001C01D92AD33B207E1F7E6
:101000001FE0C6ECDFE000E006C022970109FE0108
:101010000BBF0E9446E7C23CD10780E00807A9F752
:101020000E94B2E20C94E2EB0C9400002F923F92EB
:101030004F925F926F927F928F929F92AF92BF92E8
:10104000CF92DF92EF92FF920F931F93CF93DF9394
:1010500000D01F92CDB7DEB780910C0C90910D0C93
:10106000C29711F080E073C48091150C8F33D1F3D7
:101070008331C1F38091F90B833021F01B8280E131
:1010800090E004C025E02B838AE090E02091460C9C
:1010900030E08217930734F3E7E1FCE046E150E0EB
:1010A00066E170E0219130E0261737072CF04217F7
:1010B00053070CF4A9019B016CE0E734F60711F02B
:1010C000B901F0CFAB81A53009F476C0B901675002
:1010D00071096230710540F4BA016E5171096230D4
:1010E000710510F4B4E0BB83B90169507109623035
:1010F000710568F4BA01645271096230710508F42F
:1011000050C0645071096330710508F44CC0B901D6
:101110006A5071096230710540F4BA016852710970
:101120006330710508F441C009C02D30310531F438
:10113000BA016052710963307105C8F1B9016B5091
:1011400071096230710530F4BA016F51710967306D
:10115000710580F1B9016C5071096230710530F48C
:10116000BA016D5271096230710540F1B9016450E4
:1011700071096530710560F44E52510944305105D2
:10118000D8F423E02B8337E03C8384E190E01DC05A
:10119000243031058CF4465151094230510560F438
:1011A0000FC021E008C031E003C022E004C032E0FB
:1011B0003B8302C024E02B831C8207C033E0F8CFBE
:1011C00025E02B831C828AE090E06090190C712C42
:1011D000E8E1FCE049E15CE007E11CE0512C412C36
:1011E000212C812C912C5401C12CD12C7601312C35
:1011F00060E070E0DA011397BC912B2F30E03A8366
:101200002983281739070CF061C0D8012C9130E0F0
:10121000821793070CF05AC0208130E02817390755
:10122000A4F4DA012C9130E08217930774F4F69459
:10123000E794D794C79432E0880C991CAA1CBB1C75
:101240003A95D1F72C81216024C0208130E08217AB
:1012500093070CF5DA012C9130E028173907DCF4FC
:101260004394F694E794D794C794B2E0880C991C01
:10127000AA1CBB1CBA95D1F76894D3F8689481F87E
:101280006B30710521F4B1E04B1609F489C02C8153
:1012900022602C8385C0208130E028173907B4F400
:1012A000DA012C9130E02817390784F4F694E7949A
:1012B000D794C79432E0880C991CAA1CBB1C3A95A1
:1012C000D1F7B3E08B2A222423946AC029813A8182
:1012D00082179307D4F5D8012C9130E028173907ED
:1012E000A4F5208130E0821793077CF5DA012C9178
:1012F00030E0281739074CF55394F694E794D794C7
:10130000C794B2E0880C991CAA1CBB1CBA95D1F7F3
:101310006B30710541F4B1E05B1205C06894D3F8FD
:10132000689481F83DC0689480F82C8124602C83F7
:101330003B813530A9F16B30710591F1333011F0FB
:1013400036E03B836894D3F82BC06115710519F51D
:1013500032E0880C991CAA1CBB1C3A95D1F7A981D4
:10136000BA818A179B079CF4D8012C9130E0821730
:1013700093076CF4208130E02817390744F4861570
:1013800097052CF4F694E794D794C79409C02C8160
:1013900028602C8303C03C8138603C833324339421
:1013A0006F5F7F4F34960C5F1F4F4C5F5F4F6C3009
:1013B000710509F01FCF311055CE8C818B7F8330A2
:1013C00021F02C81253009F04DCE9091030C8091B5
:1013D000020C981339C04090080C5090090C609092
:1013E0000A0C70900B0C34EF430E31E0531E611C5D
:1013F000711C0E94EFDE461657066806790620F13A
:101400004090080C5090090C60900A0C70900B0CE6
:1014100068EE460E63E0561E611C711C0E94EFDEF2
:10142000641575058605970508F036C28091040C91
:101430009091050CA091060CB091070C88159905A8
:10144000AA05BB0509F428C22C812730A9F44090D5
:10145000080C5090090C60900A0C70900B0C88EEF0
:10146000480E83E0581E611C711C0E94EFDE64155B
:1014700075058605970528F08091020C8C30A9F43B
:1014800016C08091040C9091050CA091060CB091AF
:10149000070C88159905AA05BB0571F39091030CFB
:1014A0008091020C9813E8CFF7C18F30B1F44090CF
:1014B000080C5090090C60900A0C70900B0CA0ED79
:1014C0004A0EA7E05A1E611C711C0E94EFDE6415D3
:1014D00075058605970508F4DBC18092040C90928F
:1014E000050CA092060CB092070C3C81373009F431
:1014F000CBC12C81253041F53B81333029F51C2DA2
:1015000010951F70B701A601407F552766277727E2
:10151000B4E07695679557954795BA95D1F7842F9E
:1015200080958F7077276F2D5E2D4D2D4370552739
:1015300066277727CC24C394423051056105710595
:1015400009F466C0C12C64C0D701C6018827977012
:10155000AA27BB27B701A6014778577066277727C8
:10156000411557406105710509F45AC02B81811559
:1015700036E09307A105B10539F0243079F034E065
:101580003B8327E02C8380C1263009F487C12B815F
:10159000253009F499C13B81343089F597018601E2
:1015A000E5E03695279517950795EA95D1F70F71E0
:1015B0001C2D10951F711F5B0B3179F030F40F302B
:1015C00071F0073169F404E00BC00D3121F00E31E8
:1015D00039F401E005C002E003C003E001C005E00A
:1015E000D701C6017BE0B695A795979587957A9523
:1015F000D1F7682F6170C62E24E02B8357C03C8141
:10160000353081F42B81233069F4C12C10E080E067
:101610001F5B01E0080F33E03B8325E02C8346C0CD
:1016200031E03B8381159640A105B105A9F01C2D41
:101630001F701F5BD701C601807F9927AA27BB2790
:1016400064E0B695A795979587956A95D1F701E0DF
:10165000080F21E02B831EC0D701C6018827967092
:10166000AA27BB2781159640A105B10509F0FACC40
:101670001C2D1F701F5BD701C601807F9927AA27E9
:10168000BB2754E0B695A795979587955A95D1F7BE
:1016900001E0080FD701C6014BE0B695A7959795D5
:1016A00087954A95D1F7682F6170C62E8091921068
:1016B00091E0980F909392101F928F938CE892E094
:1016C0009F938F938AE490E19F938F930E9407E901
:1016D0006AE470E18EE990E10E9420E30F900F90A0
:1016E0000F900F900F900F902C812330C9F43B8105
:1016F000343018F463EF7DE00BC02B81243019F4F3
:101700006BEE7DE005C03B81353039F463EE7DE062
:101710008EE990E10E94FBE201C16AED7DE0F8CF25
:101720002C81253079F43B81353019F462ED7DE070
:10173000EFCF2B81233019F469EC7DE0E9CF61EC28
:101740007DE0E6CF3C81373009F0E8C067EB7DE013
:101750008EE990E10E94FBE22B81253019F4689418
:10176000B3F805C03B81333011F46894B2F8D50169
:10177000C40124E0B695A795979587952A95D1F74A
:10178000BB27BF93AF939F938F9385E992E09F937D
:101790008F938AE490E19F938F930E9407E96AE414
:1017A00070E18EE990E10E9420E3082D982D93705E
:1017B0000FB6F894DEBF0FBECDBFB501A40132E075
:1017C00076956795579547953A95D1F78B818350D4
:1017D000823018F4042F03700AC0042700950370A8
:1017E000913021F0842F8370813009F40860C92E74
:1017F000992311F0CC24C3942B81253031F403FDBF
:1018000004C0C0943C2D3170C32E1F920F938FE9FA
:1018100092E09F938F938AE490E19F938F930E942D
:1018200007E96AE470E18EE990E10E9420E362EB4F
:101830007DE08EE990E10E94FBE20F900F900F9007
:101840000F900F900F9061E0261206C06EEA7DE0C7
:101850008EE990E10E94FBE281E0C81203C06AEACF
:101860007DE002C065EA7DE08EE990E10E94FBE246
:101870008EE990E10E9428E381E080930E0C1092A3
:101880000D0C10920C0C63C000E010E0C12C0ECFC8
:101890008091020C8093030C81E059C0D701C601EE
:1018A000817F9E70AA27BB27892B8A2B8B2B09F05F
:1018B000D9CB1C2D1E701695109517701F5B3D2DF2
:1018C0003170C32E00E0F2CED701C601807F937045
:1018D000AA27BB27F4E0B695A79597958795FA9523
:1018E000D1F71C2D10951F701F5B082F00950F71ED
:1018F000B701A601AAE07695679557954795AA95F1
:10190000D1F74370552766277727CC24C3944130FD
:1019100051056105710509F0B9CFC8CE1F921F931B
:101920008AEA92E09F938F938AE490E19F938F934A
:101930000E9407E96AE470E18EE990E10E9420E3E9
:101940000F900F900F900F900F900F905ECF0F9011
:101950000F900F900F90DF91CF911F910F91FF90FB
:10196000EF90DF90CF90BF90AF909F908F907F903F
:101970006F905F904F903F902F9008954F925F929D
:101980006F927F92AF92BF92CF92DF92EF92FF92CF
:101990000F931F93CF93DF9380910C0C90910D0CBC
:1019A0009C012F7E2438310521F08238910509F001
:1019B00075C02091150C2F3009F48DC08238910527
:1019C00019F003E010E002C001E010E0C12CD12CBE
:1019D0007601B12CA12C9C0122503109F801E45F61
:1019E000F34F728563855485E185E53108F056C073
:1019F000753130F4653108F051C05631A8F40BC090
:101A0000753109F44BC0653108F048C0553108F014
:101A100045C041E00AC0553108F040C08439910505
:101A2000E9F5BB24B39401C040E00238110534F459
:101A3000CC0CDD1CEE1CFF1CC42A02C0AA0CA42A7C
:101A40000C5F1F4F021713074CF29091030C80910B
:101A5000020C981325C04090080C5090090C60901F
:101A60000A0C70900B0C8CEB480E82E0581E611C27
:101A7000711C0E94EFDE461657066806790680F054
:101A80008091040C9091050CA091060CB091070C6C
:101A90008C159D05AE05BF0519F41DC080E0DDC0A5
:101AA000C091020CCC30C9F44090080C5090090C45
:101AB00060900A0C70900B0C90ED490E97E0591E47
:101AC000611C711C0E94EFDE641575058605970583
:101AD00020F4C093030C81E0C0C0C092040CD092EB
:101AE000050CE092060CF092070C8091921091E0A8
:101AF000980F909392101F928F938CE892E09F938F
:101B00008F93CAE4D0E1DF93CF930E9407E9BE012F
:101B10008EE990E10E9420E36CE97DE08EE990E19E
:101B20000E94FBE2D701C60146E0B695A7959795BE
:101B300087954A95D1F7BF93AF939F938F9381EC8D
:101B400092E09F938F93DF93CF930E9407E9BE01AA
:101B50008EE990E10E9420E3D701C6018F7099279A
:101B6000AA27BB270196A11DB11DBF93AF939F93D9
:101B70008F938BEC92E09F938F93DF93CF930E9490
:101B800007E9BE018EE990E10E9420E367E97DE06C
:101B90008EE990E10E94FBE254E0F694E794D7943A
:101BA000C7945A95D1F793E0C922DD248DB79EB72B
:101BB00046960FB6F8949EBF0FBE8DBF92E0C91631
:101BC000D1041CF08FEFC81AD80A0D381105E4F0C3
:101BD00091E0B91219C01F92AF9283EB92E09F93EC
:101BE0008F938AE490E19F938F930E9407E96AE4C0
:101BF00070E18EE990E10E9420E30F900F900F902A
:101C00000F900F900F901EC0C114D10419F462E917
:101C10007DE014C081E0C816D10419F46EE87DE0BF
:101C20000DC093E0C916D10419F466E87DE006C042
:101C300084E0C816D10431F46FE77DE08EE990E1CD
:101C40000E94FBE28EE990E10E9428E381E080930C
:101C50000E0C10920D0C10920C0CDF91CF911F9175
:101C60000F91FF90EF90DF90CF90BF90AF907F905B
:101C70006F905F904F9008958F929F92AF92BF9216
:101C8000CF92DF92EF92FF920F931F93CF93DF9348
:101C90001F92CDB7DEB780910C0C90910D0C823461
:101CA000910529F08434910521F080E072C120E093
:101CB00001C022E02F5FC12CD12C76010297E22FC8
:101CC000F0E0E817F907D4F4E45FF34F31853A31D7
:101CD00060F0313350F732853A3138F7CC0CDD1CE7
:101CE000EE1CFF1C6894C0F807C032853931E8F259
:101CF000CC0CDD1CEE1CFF1C2E5FE1CF9091030C81
:101D00008091020C981311C08090080C9090090CDF
:101D1000A0900A0CB0900B0C0E94EFDE861697067E
:101D2000A806B90610F081E034C1C114D104E10461
:101D3000F10409F4BACFD701C6011EE1B695A79503
:101D4000979587951A95D1F78D7F09F0AECF8F2D96
:101D50009927AA27BB27482F4F7309F4A6CF4F33E3
:101D600009F4A3CF282F2F70182F1770173009F4FC
:101D70009CCF2B3009F499CF433009F496CF4630ED
:101D800009F493CF493009F490CF4C3009F48DCF4A
:101D9000282F2F71213109F488CF443109F485CFE0
:101DA0002A3109F482CF2D3109F47FCF413209F471
:101DB0007CCF443209F479CF4A3209F476CF4D32E0
:101DC00009F473CF2DEC240F223008F46ECF50E0CD
:101DD0009A01E3E035952795EA95E1F7022F017026
:101DE000F4E055954795FA95E1F7242F133009F45F
:101DF0005BC04330B1F4163019F481E0082755C0B8
:101E00008370813031F0111105C081E0082728E08E
:101E100055C024E0123009F44AC0143009F04EC015
:101E200046C0411114C021E0163049F0113039F09C
:101E300020E0153021F481E0082725E03FC08370C1
:101E4000C1F11230D9F581E008272DE037C04230CA
:101E5000A1F4163019F481E0082730C08370813076
:101E600031F0111105C081E008272AE027C026E0E3
:101E7000123009F1143011F51EC0163021F481E042
:101E8000082723E01BC08370813031F0111106C098
:101E900081E008272BE012C027E001C021E01230CA
:101EA00061F0143059F409C0042F20E007C02CE081
:101EB00005C029E003C02EE001C02FE08091921000
:101EC00091E0980F909392101F928F938CE892E07C
:101ED0009F938F937AE4A72E70E1B72EBF92AF92B3
:101EE00029830E9407E9B5018EE990E10E9420E371
:101EF00063E27DE08EE990E10E94FBE2FF24FF9225
:101F0000EF92DF92CF9285E992E09F938F93BF92F9
:101F1000AF920E9407E9B5018EE990E10E9420E3AB
:101F20001F9229812F938CEF94E09F938F93BF9200
:101F3000AF920E9407E9B5018EE990E10E9420E38B
:101F40006EE17DE08EE990E10E94FBE20FB6F8942D
:101F5000DEBF0FBECDBF133031F46AE17DE08EE904
:101F600090E10E94FBE2013019F466E17DE002C0DD
:101F700061E17DE08EE990E10E94FBE28EE990E173
:101F80000E9428E381E080930E0C10920D0C1092B9
:101F90000C0C0F90DF91CF911F910F91FF90EF905C
:101FA000DF90CF90BF90AF909F908F9008958F92C9
:101FB0009F92AF92BF92CF92DF92EF92FF920F93D8
:101FC0001F93CF93DF931F92CDB7DEB780910C0C98
:101FD00090910D0C8234910579F08434910511F0C3
:101FE00080E080C18091160C8333D0F38091170C70
:101FF0008536B0F322E001C020E042E0420FC12C60
:10200000D12C760130E02F5B3F4F842F90E02817D2
:10201000390774F0FC01E45FF34F8185CC0CDD1CC3
:10202000EE1CFF1C8A3110F06894C0F84E5FEDCFB3
:102030009091030C8091020C981311C08090080CB1
:102040009090090CA0900A0CB0900B0C0E94EFDE4F
:1020500086169706A806B90610F081E043C1C114A0
:10206000D104E104F10409F4BBCF8F2D9927AA27ED
:10207000BB272E2D20952813B3CF2D2DC094DC1017
:10208000AFCF382F3F70807F803709F440C0803455
:1020900009F421C1803541F0803869F0803981F040
:1020A00040E0803A91F002C043E032C0803B91F0C2
:1020B000803EA9F002C044E02BC0803FA9F002C0DE
:1020C00045E026C0803CA9F002C046E021C0803D2A
:1020D000B1F002C047E01CC0882399F002C048E07C
:1020E00017C0803181F002C049E012C0803269F02F
:1020F00002C04AE00DC0803359F44FE009C04BE004
:1021000007C04CE005C04DE003C04EE001C041E017
:10211000222309F4E2C0203209F4E1C0203149F061
:10212000203371F0283091F010E000E0283299F06F
:1021300002C011E006C02831A1F02833B9F003C075
:1021400010E002E041C02034B9F002C011E004C048
:102150002036B9F003C010E003E036C02035B9F0F6
:1021600002C011E004C02037B9F003C010E004E061
:102170002BC02834B9F002C011E004C02836B9F0F1
:1021800003C010E005E020C02835B9F002C011E01E
:1021900004C02837B9F003C010E006E015C02838A5
:1021A000C9F002C011E004C02839B1F003C010E04A
:1021B00007E00AC0203891F002C011E004C02039C5
:1021C00079F002C010E008E0343061F4123050F4CD
:1021D000085F08C012E005C013E003C014E001C0AE
:1021E00015E000E08091921091E0980F909392108A
:1021F0001F928F932CE832E03F932F935AE4E52E01
:1022000050E1F52EFF92EF9249830E9407E9B70152
:102210008EE990E10E9420E364EF7CE08EE990E19A
:102220000E94FBE24981842F90E08F5B9F4F9F9338
:102230008F938AEA92E09F938F93FF92EF920E948E
:1022400007E9B7018EE990E10E9420E31F920F9306
:102250008FE992E09F938F93FF92EF920E9407E99C
:10226000B7018EE990E10E9420E36FEE7CE08EE9F9
:1022700090E10E94FBE20FB6F894DEBF0FBECDBF27
:10228000111103C06AEE7CE016C0113019F466EE3D
:102290007CE011C0123019F46EED7CE00CC01330FC
:1022A00019F469ED7CE007C0143019F461ED7CE0AD
:1022B00002C06AEC7CE08EE990E10E94FBE28EE9CC
:1022C00090E10E9428E381E080930E0C10920D0CA7
:1022D00010920C0C07C042E01BCF11E001C010E0CF
:1022E00001E024CF0F90DF91CF911F910F91FF90CC
:1022F000EF90DF90CF90BF90AF909F908F90089518
:10230000CF92DF92EF92FF920F931F93CF93DF93C1
:1023100080910C0C90910D0C9C01245B31092730AD
:10232000310508F01EC161E0B0E070E050E040E02F
:10233000A0E0C12CD12C76010297C1E0262F30E01D
:10234000F901E45FF34F28173907BCF52185B13057
:1023500041F02C52293050F1653608F002C1B0E04E
:1023600028C02A51273090F4513009F4FAC021E0F6
:10237000711120E0722F4032F0F4CC0CDD1CEE1C09
:10238000FF1C213081F06894C0F80DC0552381F006
:10239000403298F4CC0CDD1CEE1CFF1C713011F0A7
:1023A0006894C0F8AC274F5F50E003C0B1E001C0B3
:1023B00051E06F5FC3CF81E001C080E09385985208
:1023C0009B3008F0CEC0A813CCC0860111278091A5
:1023D000921091E0980F909392101F928F938CE837
:1023E00092E09F938F93CAE4D0E1DF93CF930E9452
:1023F00007E9BE018EE990E10E9420E360EC7CE0F9
:102400008EE990E10E94FBE2C701AA27BB27BF9398
:10241000AF939F938F9386ED92E09F938F93DF937B
:10242000CF930E9407E9BE018EE990E10E9420E36C
:10243000CD2CDE2CEF2CFF24DD24DF92CF928FE415
:1024400093E09F938F93DF93CF930E9407E9BE01A0
:102450008EE990E10E9420E31F930F938CEF94E0AC
:102460009F938F93DF93CF930E9407E9BE018EE97C
:1024700090E10E9420E36BEB7CE08EE990E10E940A
:10248000FBE28DB79EB74A960FB6F8949EBF0FBE7B
:102490008DBF0115110539F46AE275E08EE990E10E
:1024A0000E9420E352C00130110519F466EB7CE074
:1024B00005C00230110539F46CEA7CE08EE990E148
:1024C0000E94FBE242C00330110519F464EA7CE08B
:1024D000F5CF0530110519F467E97CE0EFCF043042
:1024E000110519F468E87CE0E9CF0738110519F403
:1024F0006DE77CE0E3CF0433110519F461E77CE07C
:10250000DDCF0837110519F463E67CE0D7CF0D3530
:10251000110519F466E57CE0D1CF1F930F9383EB8F
:1025200092E09F938F938AE490E19F938F930E9410
:1025300007E96AE470E18EE990E10E9420E30F90E0
:102540000F900F900F900F900F908EE990E10E94E6
:1025500028E381E080930E0C10920D0C10920C0C6D
:1025600001C080E0DF91CF911F910F91FF90EF901C
:10257000DF90CF9008958F929F92AF92BF92CF92AB
:10258000DF92EF92FF920F931F93CF93DF9380918F
:102590000C0C90910D0C8A32910529F08C9709F062
:1025A00061C084E001C082E09091160C9F3108F078
:1025B00059C020E090E0C12CD12C760141E0E82FF9
:1025C000F0E0E45FF34F31853F3188F0313308F0BC
:1025D00049C032853F3108F045C0CC0CDD1CEE1CF3
:1025E000FF1C6894C0F82C3058F0942709C03B3089
:1025F000C8F132853E31B0F1CC0CDD1CEE1CFF1C65
:102600002F5F8E5F8932D8F291112CC0C2FC2AC094
:102610009091030C8091020C981326C08090080CB6
:102620009090090CA0900A0CB0900B0C8CED880EC9
:1026300085E0981EA11CB11C0E94EFDE861697064D
:10264000A806B90688F08091040C9091050CA09121
:10265000060CB091070C8C159D05AE05BF0521F445
:1026600081E0A2C080E0A0C0C092040CD092050C12
:10267000E092060CF092070CD701C60106E0B69571
:10268000A795979587950A95D1F78370823051F079
:10269000813021F0833021F000E005C003E003C069
:1026A00002E001C001E01C2D1F7312951170C3FEE2
:1026B00002C01E5F02C0C5FC1C5F8091921091E0B9
:1026C000980F909392101F928F938CE892E09F93B3
:1026D0008F93CAE4D0E1DF93CF930E9407E9BE0154
:1026E0008EE990E10E9420E368E17CE08EE990E1D0
:1026F0000E94FBE2CD2CDE2CEF2CFF24DF92CF9248
:102700008EED92E09F938F93DF93CF930E9407E922
:10271000BE018EE990E10E9420E31F920F938CEF9F
:1027200094E09F938F93DF93CF930E9407E9BE01BC
:102730008EE990E10E9420E363E17CE08EE990E184
:102740000E94FBE28DB79EB742960FB6F8949EBFEB
:102750000FBE8DBF111103C06EE07CE016C01130BA
:1027600019F46AE07CE011C0123019F462E07CE0F8
:102770000CC0133019F46DEF7BE007C0143019F46E
:1027800065EF7BE002C06EEE7BE08EE990E10E9497
:10279000FBE28EE990E10E9428E381E080930E0C39
:1027A00010920D0C10920C0CDF91CF911F910F9194
:1027B000FF90EF90DF90CF90BF90AF909F908F9061
:1027C0000895BF92CF92DF92EF92FF920F931F93E3
:1027D000CF93DF93CDB7DEB72B970FB6F894DEBF5C
:1027E0000FBECDBF20910C0C30910D0CC901849708
:1027F000419708F086C0E090160CD090170C84E149
:102800008E1510F18091180C8B32F0F48091190C18
:102810008B32D0F480911A0C8B32B0F480911B0C67
:102820008B3290F480911C0C8C52813168F4809131
:102830001D0C8C52813140F489E18093160C8093F9
:10284000170CFF24F39401C0F12C8091160C8B32ED
:1028500020F080E090E0DC011AC08091170C8B32F0
:10286000C0F78091180C8B32A0F78091190C8B3235
:1028700080F780911A0C8C52813158F780911B0C93
:102880008C52813130F783E090E0A0E0B0E061E06D
:10289000462F50E042175307F4F4FA01E45FF34F78
:1028A00041854C3240F04E3308F054C1880F991FD7
:1028B000AA1FBB1F0EC0453108F44CC142854551CB
:1028C000473108F047C16F5F880F991FAA1FBB1FD0
:1028D00081606F5FDDCF0097A105B10509F43AC1B2
:1028E0004B2F5527662777274F7055276627772761
:1028F0004E3051056105710531F0E1E0FE1609F435
:102900004DC080E02BC1AC01BD011AE07695679502
:10291000579547951A95D1F78A011F73792F7370D0
:1029200020E030E063E0A801022E02C056954795F2
:102930000A94E2F7437064272E5F3F4F2E30310533
:1029400091F7761324C0AC01BD01E2E0769567955E
:1029500057954795EA95D1F7242F2F73B22E30E083
:10296000C42EC094EC2DE370CE2EF901A4E0F595B1
:10297000E795AA95E1F7CE268370F901F595E795DD
:10298000F595E795E370CE268C1105C00CC021E0CB
:10299000F212B7CF03C081E0F812B3CFE092160C69
:1029A000D092170CAECF92E0B91609F446C0E6E11A
:1029B000BE1609F445C0BB2009F445C084E0B81632
:1029C00009F444C082E090E060E041FD15C0A90137
:1029D000082E02C0559547950A94E2F74170660F9C
:1029E000642B01968630910591F7262F20952F7044
:1029F000283078F52F5F2DC0A901082E02C055950B
:102A000047950A94E2F74170660F642B0196863071
:102A1000910591F789E0EDE0F2E0DE011196019079
:102A20000D928A95E1F76150E1E0F0E0EC0FFD1FB7
:102A3000E60FF11D208135E00DC020E031E00AC035
:102A400020E030E007C020E032E004C020E033E0C6
:102A500001C034E08091921091E0980F9093921011
:102A60001F928F938CE892E09F938F936AE4E62EF7
:102A700060E1F62EFF92EF922B873A870E9407E9DA
:102A8000B7018EE990E10E9420E361EE7BE08EE9E0
:102A900090E10E94FBE21F930F938EED92E09F93D3
:102AA0008F93FF92EF920E9407E9B7018EE990E1C0
:102AB0000E9420E31F9281E08F938CEF94E09F931C
:102AC0008F93FF92EF920E9407E9B7018EE990E1A0
:102AD0000E9420E36CED7BE08EE990E10E94FBE236
:102AE0000FB6F894DEBF0FBECDBF3A852B853323DA
:102AF00011F0333019F467ED7BE005C0315032300E
:102B000038F463ED7BE08EE990E10E94FBE216C0B1
:102B10001F922F9383EB92E09F938F93FF92EF92FC
:102B20000E9407E96AE470E18EE990E10E9420E3E7
:102B30000F900F900F900F900F900F908EE990E1F3
:102B40000E9428E381E080930E0C10920D0C1092ED
:102B50000C0C04C091E0F912D4CE20CF2B960FB606
:102B6000F894DEBF0FBECDBFDF91CF911F910F91C3
:102B7000FF90EF90DF90CF90BF9008953F924F92DB
:102B80005F926F927F928F929F92AF92BF92CF92FD
:102B9000DF92EF92FF920F931F93CF93DF93CDB706
:102BA000DEB764970FB6F894DEBF0FBECDBF80E1ED
:102BB000E6E1F2E0DE01119601900D928A95E1F7CF
:102BC00020910C0C30910D0C2437310529F022385E
:102BD000310511F080E084C11092150C80E090E086
:102BE000C12CD12C7601812C912C5401412C512CDB
:102BF0003201FC01E45FF34F4285403120F441E0B3
:102C00005385513108F440E0582F61E0680F673177
:102C100028F4440C551C661C771C442A6AEE650F88
:102C2000603428F4880C991CAA1CBB1C842A5655B5
:102C30005C3128F4CC0CDD1CEE1CFF1CC42A02966F
:102C400084379105B1F62238310501F5EAE8FCE058
:102C500010E080E0DF0111979C91913120F091E02C
:102C60002081203108F090E0880F892BDE01119639
:102C700090E02D91281301C0192F9F5F9031C9F763
:102C800032962CE0E839F20729F701C010E0D301B1
:102C9000C2018E7F9370AA27BB278C339240A10577
:102CA000B10509F097CF9091030C8091020C981315
:102CB00028C02091080C3091090C40910A0C5091C9
:102CC0000B0C24523A4F4F4F5F4F2C8B398B4A8B52
:102CD0005B8B0E94EFDE2C8939894A895B89261734
:102CE00037074807590768F08091040C9091050C4C
:102CF000A091060CB091070C8C159D05AE05BF0583
:102D000019F18091020C8C3009F52091080C30915A
:102D1000090C40910A0C50910B0C2053384F4F4F27
:102D20005F4F2C8B398B4A8B5B8B0E94EFDE2C899B
:102D300039894A895B89621773078407950730F4DC
:102D40008091020C8093030C81E0CAC0C092040CF5
:102D5000D092050CE092060CF092070CD701C60148
:102D60006AE0B695A795979587956A95D1F7282F2C
:102D70002F702B50BB27AF2D9E2D8D2D223078F438
:102D8000282F2170322ED701C60107E0B695A795EE
:102D9000979587950A95D1F7082F017014C0B70150
:102DA000A601F9E07695679557954795FA95D1F77D
:102DB000242F2170322E8770833020F481E0382652
:102DC00001E001C000E02C2D2F7340FC20688091B1
:102DD000921091E0980F909392101F928F938CE82D
:102DE00092E09F938F93EAE4EE2EE0E1FE2EFF92B5
:102DF000EF922C8B0E9407E9B7018EE990E10E94C7
:102E000020E367EE72E08EE990E10E9420E3BF923A
:102E1000AF929F928F9281EC92E09F938F93FF925B
:102E2000EF920E9407E9B7018EE990E10E9420E34A
:102E30001F922C892F932CEF34E03F932F93FF9216
:102E4000EF920E9407E9B7018EE990E10E9420E32A
:102E50006EEC7BE08EE990E10E94FBE20FB6F89405
:102E6000DEBF0FBECDBF80910C0C90910D0C82384F
:102E70009105B1F41F921F9383EB92E09F938F9380
:102E8000FF92EF920E9407E9B7018EE990E10E945C
:102E900020E30F900F900F900F900F900F9011C0A4
:102EA000013031F46AEC7BE08EE990E10E94FBE2B4
:102EB00091E0391212C065EC7BE08EE990E10E944E
:102EC000FBE28EE990E10E9428E381E080930E0C02
:102ED00010920D0C10920C0C03C061EC7BE0EDCF56
:102EE00064960FB6F894DEBF0FBECDBFDF91CF91D1
:102EF0001F910F91FF90EF90DF90CF90BF90AF9018
:102F00009F908F907F906F905F904F903F9008952B
:102F10008F929F92AF92BF92CF92DF92EF92FF92E9
:102F20000F931F93CF93DF93CDB7DEB728970FB6DC
:102F3000F894DEBF0FBECDBF80910C0C90910D0CAC
:102F40009C01245531092730310510F080E032C151
:102F50002DEA280FE22FF0E0213039F0DF01A45FE5
:102F6000B34F18962C912B3188F7E45FF34F2185EE
:102F70002456253158F722852456253138F720E08C
:102F800030E070E060E0A0EBA80F422F440F4A0F42
:102F900050E0481759074CF5FA01E45FF34F4085BC
:102FA0004531A0F64185E62FF0E04A3148F441E092
:102FB00050E04C0F5D1FE40FF51F4081440F09C026
:102FC00041E050E04C0F5D1FE40FF51F4081440FBE
:102FD000416040837F5F783028F06F5F663008F093
:102FE000B5CF70E02F5F3F4FD0CF1A810D81812E7A
:102FF000912C982C8824800E911CAA2497FCA094D4
:10300000BA2C9091030C8091020C981324C0C090AC
:10301000080CD090090CE0900A0CF0900B0C5CEDC1
:10302000C50E55E0D51EE11CF11C0E94EFDEC61650
:10303000D706E806F90678F08091040C9091050C0B
:10304000A091060CB091070C88159905AA05BB053F
:1030500011F481E0AFC08092040C9092050CA09214
:10306000060CB092070CF980F0948B81F8126ECFA9
:10307000E12EE0948C81E81269CF0F700730B1F037
:103080000830B1F00B30B1F00430B1F00330B1F0E2
:103090000C30B1F00D30B1F00230B9F00530C9F0AC
:1030A0000A3009F053CF41E020E015C041E00BC0E9
:1030B00041E00CC042E007C042E008C043E003C06A
:1030C00043E004C044E021E002C044E020E030E0FE
:1030D00003C041E021E031E08091921091E0980F2F
:1030E000909392101F928F938CE892E09F938F930E
:1030F0000AE410E11F930F9328873F834E830E94B9
:1031000007E9B8018EE990E10E9420E368EB7BE0DB
:103110008EE990E10E94FBE21F92EF921F92FF92D4
:1031200081EF92E09F938F931F930F930E9407E983
:10313000B8018EE990E10E9420E31F924E814F93E7
:103140008CEF94E09F938F931F930F930E9407E956
:10315000B8018EE990E10E9420E363EB7BE08EE909
:1031600090E10E94FBE20FB6F894DEBF0FBECDBF28
:103170003F812885313039F46FEA7BE08EE990E1B8
:103180000E94FBE22885211112C06AEA7BE08EE9E9
:1031900090E10E94FBE28EE990E10E9428E381E049
:1031A00080930E0C10920D0C10920C0C03C066EA6A
:1031B0007BE0EDCF28960FB6F894DEBF0FBECDBFF3
:1031C000DF91CF911F910F91FF90EF90DF90CF9003
:1031D000BF90AF909F908F900895CF92DF92EF9223
:1031E000FF920F931F93CF93DF93CDB7DEB728974E
:1031F0000FB6F894DEBF0FBECDBF80910C0C90913E
:103200000D0C9C012D7F2435310511F080E0E8C0C4
:103210001E828635910531F48091170C8638B0F303
:1032200054E001C052E060E040E0252F30E0235B35
:103230003F4F852F90E0281739073CF1FC01E45FF0
:10324000F34F8285813110F781858F3250F0E1E0B4
:10325000F0E0EC0FFD1FE40FF11D8081880F81600D
:103260000AC0803198F2E1E0F0E0EC0FFD1FE40FBE
:10327000F11D8081880F80836F5F683021F44F5F7C
:10328000463020F660E05E5FD4CF9091030C8091D1
:10329000020C981311C0C090080CD090090CE0905B
:1032A0000A0CF0900B0C0E94EFDEC616D706E8065B
:1032B000F90610F081E094C0F9809A812F2D207FCB
:1032C000892F807F2813A2CF8F2D80958F709F70BC
:1032D00089139CCF2B818C818095281397CF80E810
:1032E000820F8230B0F08CE7820F833090F02C3860
:1032F00081F0263C71F0223070F08CEF820F833029
:1033000050F02C3041F0263231F0263409F07ECFD7
:1033100002C030E001C031E08091921091E0980F3E
:10332000909392101F928F938CE892E09F938F93CB
:103330000AE410E11F930F932F8338870E9407E957
:10334000B8018EE990E10E9420E36BEE7AE08EE90D
:1033500090E10E94FBE28D811F928F931F92FF925A
:1033600081EF92E09F938F931F930F930E9407E941
:10337000B8018EE990E10E9420E32F812F701F9207
:103380002F938CEF94E09F938F931F930F930E9442
:1033900007E9B8018EE990E10E9420E366EE7AE049
:1033A0008EE990E10E94FBE20FB6F894DEBF0FBEFB
:1033B000CDBF3885311103C061EE7AE002C06DEDFA
:1033C0007AE08EE990E10E94FBE28EE990E10E94B2
:1033D00028E381E080930E0C10920D0C10920C0CDF
:1033E00028960FB6F894DEBF0FBECDBFDF91CF9108
:1033F0001F910F91FF90EF90DF90CF9008958F92E3
:103400009F92AF92BF92CF92DF92EF92FF920F9373
:103410001F93CF93DF931F92CDB7DEB780910C0C33
:1034200090910D0C8E33910539F09C012D7F203445
:10343000310511F080E000C122E4281B223038F071
:10344000243048F4C12CD12C7601C39409C0C12C7E
:10345000D12C760105C053E0C52ED12CE12CF12CE6
:1034600022E00197E22FF0E0E817F907C4F4E45FE7
:10347000F34F31853C3050F030853C30D8F6CC0CE1
:10348000DD1CEE1CFF1C6894C0F807C030853B3083
:1034900088F2CC0CDD1CEE1CFF1C2E5FE3CF90915C
:1034A000030C8091020C981311C08090080C90902E
:1034B000090CA0900A0CB0900B0C0E94EFDE86164F
:1034C0009706A806B90610F081E0B6C0C114D10471
:1034D000E104F10409F4AECFD701C60104E0B695CA
:1034E000A795979587950A95D1F78F708E3009F03B
:1034F000A1CF460157011CE0B694A79497948794F6
:103500001A95D1F7882D8F708F3009F093CFBB2794
:10351000AF2D9E2D8D2D282F2C252F702950223038
:1035200008F088CF482F4F70242F30E0A3E0359566
:103530002795AA95E1F7122F582F5370533021F099
:1035400011E0122750E001C040E042FD06C041FDFD
:1035500006C040FF06C003E005C001E003C002E072
:1035600001C000E08091921091E0980F909392102A
:103570001F928F932CE832E03F932F93FAE4EF2EC3
:10358000F0E1FF2EFF92EF9259830E9407E9B70105
:103590008EE990E10E9420E36CEB7AE08EE990E105
:1035A0000E94FBE2BF92AF929F928F9225E932E098
:1035B0003F932F93FF92EF920E9407E9B7018EE9A4
:1035C00090E10E9420E31F920F932CEF34E03F9391
:1035D0002F93FF92EF920E9407E9B7018EE990E1E5
:1035E0000E9420E367EB7AE08EE990E10E94FBE223
:1035F0000FB6F894DEBF0FBECDBF5981533031F402
:1036000063EB7AE08EE990E10E94FBE2113019F45D
:103610006FEA7AE002C06AEA7AE08EE990E10E94FD
:10362000FBE28EE990E10E9428E381E080930E0C9A
:1036300010920D0C10920C0C0F90DF91CF911F91F6
:103640000F91FF90EF90DF90CF90BF90AF909F9041
:103650008F9008957F928F929F92AF92BF92CF9258
:10366000DF92EF92FF920F931F93CF93DF93CDB72B
:10367000DEB729970FB6F894DEBF0FBECDBF2091FD
:103680000C0C30910D0CC901845491090D9710F068
:1036900080E08CC11F82E2E2FCE04CE08291833347
:1036A00060F44150D9F78091180C853130F041E039
:1036B0008091170C853108F440E080E090E000E054
:1036C000F12CB0E0A0E010E050E0BA01645F734F6D
:1036D000EE24E3944E5F5F4FFB01E80FF91FE28594
:1036E000E53160F0B130A1F2E1E0F0E0EC0FFD1F58
:1036F000E10FF11DB081BB0FB0830FC0BB2389F078
:10370000E1E0F0E0EC0FFD1FE10FF11DB081BB0F18
:10371000B160B0830C3208F4FE24AF5F0F5FB0E0FD
:1037200001C0B1E0FA01E80FF91FE217F3071CF03E
:10373000FF2051F0ADCFA83019F41F5FB0E0A0E03A
:103740000196183048F2F4CF89818C3209F0A0CF6D
:103750001A81C12ED12C0B81DC2CCC24C00ED11CA3
:10376000EE24D7FCE094FE2CFE2CED2CDC2CCC249B
:103770007E80C70CD11CE11CF11C9091030C809140
:10378000020C981324C08090080C9090090CA09013
:103790000A0CB0900B0C84EF880E81E0981EA11CDF
:1037A000B11C0E94EFDE86169706A806B90678F0CF
:1037B0008091040C9091050CA091060CB091070C1F
:1037C0008C159D05AE05BF0511F481E0EFC0C092D8
:1037D000040CD092050CE092060CF092070C5D816F
:1037E000252F30E0C90174E0959587957A95E1F72A
:1037F00080FFD4C044E0877090E09595879580FD68
:10380000426095958795842BBB24B394B80E35956B
:10381000279535952795322F337020FF02C092E00F
:1038200001C090E0932E9694992A5170C52E93E092
:10383000991203C08650823010F040E003C0912CF2
:10384000B12C41E0DC80D1FADD24D0F8872D90E066
:10385000B5E095958795BA95E1F780FF02C024E021
:1038600001C020E09595879580FD2260959587950C
:10387000A22EA82A8091921091E0980F9093921016
:103880001F928F932CE832E03F932F93FAE4EF2EB0
:10389000F0E1FF2EFF92EF9249870E9407E9B701FE
:1038A0008EE990E10E9420E369E27AE08EE990E1FE
:1038B0000E94FBE21F920F931F921F9321EF32E0B1
:1038C0003F932F93FF92EF920E9407E9B7018EE991
:1038D00090E10E9420E31F92BF921F929F922EEFD1
:1038E00032E03F932F93FF92EF920E9407E9B701D6
:1038F0008EE990E10E9420E364E27AE08EE990E1B3
:103900000E94FBE20FB6F894DEBF0FBECDBF498523
:10391000413031F460E27AE08EE990E10E94FBE20E
:10392000C1103EC06BE17AE08EE990E10E94FBE2BB
:1039300062E17AE08EE990E10E94FBE2D11033C0AF
:103940006EE07AE08EE990E10E94FBE22A2D3327B7
:1039500027FD30953F93AF928FE093E09F938F9335
:103960008AE490E19F938F930E9407E96AE470E1F3
:103970008EE990E10E9420E38EE990E10E9428E325
:1039800081E080930E0C10920D0C10920C0C0F9095
:103990000F900F900F900F900F9008C040E02BCF2A
:1039A00067E17AE0C1CF69E07AE0CCCF29960FB623
:1039B000F894DEBF0FBECDBFDF91CF911F910F9165
:1039C000FF90EF90DF90CF90BF90AF909F908F903F
:1039D0007F9008956F927F928F929F92AF92BF9245
:1039E000CF92DF92EF92FF920F931F93CF93DF93CB
:1039F00000D01F92CDB7DEB780910C0C90910D0CCA
:103A00009C01275131092931310510F080E0DEC0D9
:103A10002091150C2232D1F71092150C1B8271E007
:103A200060E040E050E0272F30E0281739076CF5C0
:103A3000F901E45FF34F2185253080F0203130F724
:103A4000613021F3E1E0F0E0EC0FFD1FE50FF11D27
:103A50002081220F216020834F5F0FC0662361F019
:103A6000E1E0F0E0EC0FFD1FE50FF11D2081220FDA
:103A700020834F5F60E001C061E0483021F45F5F68
:103A8000543020F640E07F5FCECF6A80862C912CA8
:103A90007B80072D10E0982C8824800E911E909139
:103AA000030C8091020CA12CB12C981324C0C0905F
:103AB000080CD090090CE0900A0CF0900B0C84EFED
:103AC000C80E81E0D81EE11CF11C0E94EFDEC61674
:103AD000D706E806F90678F08091040C9091050C61
:103AE000A091060CB091070C88159905AA05BB0595
:103AF00011F481E06BC08092040C9092050CA092AE
:103B0000060CB092070C8091921091E0980F909360
:103B100092101F928F938CE892E09F938F93BAE458
:103B2000EB2EB0E1FB2EFF92EF920E9407E9B70166
:103B30008EE990E10E9420E36DE879E08EE990E162
:103B40000E94FBE21F926F9289811F928F9381EFF7
:103B500092E09F938F93FF92EF920E9407E9B70143
:103B60008EE990E10E9420E31F927F928CEF94E017
:103B70009F938F93FF92EF920E9407E9B7018EE91E
:103B800090E10E9420E368E879E08EE990E10E94EC
:103B9000FBE2159507950FB6F894DEBF0FBECDBFBB
:103BA00000FD03C064E879E002C06FE779E08EE9C8
:103BB00090E10E94FBE28EE990E10E9428E381E01F
:103BC00080930E0C10920D0C10920C0C0F900F9015
:103BD0000F900F90DF91CF911F910F91FF90EF9079
:103BE000DF90CF90BF90AF909F908F907F906F901D
:103BF00008958F929F92AF92BF92CF92DF92EF92F1
:103C0000FF920F931F93CF93DF93CDB7DEB7289723
:103C10000FB6F894DEBF0FBECDBF80910C0C909113
:103C20000D0C9C012D7F2033310511F080E007C180
:103C30008E010F5F1F4F28E0F80111922A95E9F7D6
:103C40008233910539F42091160C285C293170F7E4
:103C500033E001C031E050E040E020E0C12CD12C45
:103C60007601E32FF0E0E817F9076CF5E45FF34F16
:103C70006185633280F06533C8F66085633210F089
:103C80003230A0F6CC0CDD1CEE1CFF1C6894C0F892
:103C9000220F21600CC0613148F26085623210F45D
:103CA000323020F6CC0CDD1CEE1CFF1C220F4F5FC7
:103CB000433039F4F801E50FF11D20835F5F40E0E8
:103CC00020E03E5FCECF9091030C8091020C9813C0
:103CD00024C08090080C9090090CA0900A0CB09021
:103CE0000B0CF0ED8F0EF7E09F1EA11CB11C0E9483
:103CF000EFDE86169706A806B90678F08091040CC8
:103D00009091050CA091060CB091070C8C159D05A7
:103D1000AE05BF0511F481E092C0C092040CD092B0
:103D2000050CE092060CF092070CCF80E5E0EC1554
:103D300008F47CCFD8848FEF8D0D833008F076CFD8
:103D40008091921091E0980F909392101F928F9310
:103D50008CE892E09F938F938AE490E19F938F93F6
:103D60000E9407E96AE470E18EE990E10E9420E395
:103D700064E779E08EE990E10E94FBE27E0187E052
:103D8000E80EF11C0F900F900F900F900F900F9076
:103D9000F80161918F0140E150E08EE990E10E94CD
:103DA00002E40E151F05A1F71F92CF928AE193E05E
:103DB0009F938F938AE490E19F938F930E9407E9EA
:103DC0006AE470E18EE990E10E9420E36FE679E019
:103DD0008EE990E10E94FBE20F900F900F900F9000
:103DE0000F900F90F5E0CF1210C082E0D81203C000
:103DF00061E679E015C06BE679E08EE990E10E941A
:103E0000FBE2E1E0DE120AC003C0F1E0DF1203C012
:103E100067E679E005C082E0D81651F36CE579E0F9
:103E20008EE990E10E94FBE28EE990E10E9428E396
:103E300081E080930E0C10920D0C10920C0C2896C1
:103E40000FB6F894DEBF0FBECDBFDF91CF911F91AB
:103E50000F91FF90EF90DF90CF90BF90AF909F9029
:103E60008F9008958F929F92AF92BF92CF92DF92E0
:103E7000EF92FF920F931F93CF93DF9380910C0CDF
:103E800090910D0C8A38910509F055C08091150C60
:103E90008F3009F46DC0C12CD12C760189E090E0FF
:103EA000FC01E45FF34F428533852485518555310C
:103EB00008F041C0453130F43531E8F52631D8F10C
:103EC00020E007C04531B9F13531A8F5253198F525
:103ED00021E0CC0CDD1CEE1CFF1CC22A04968938A4
:103EE0009105F1F69091030C8091020C981325C076
:103EF0008090080C9090090CA0900A0CB0900B0CCC
:103F00002CEB820E22E0921EA11CB11C0E94EFDE5F
:103F100086169706A806B90680F08091040C909149
:103F2000050CA091060CB091070C8C159D05AE05F3
:103F3000BF0519F41DC080E0A9C01091020C1C300F
:103F4000C9F48090080C9090090CA0900A0CB090D5
:103F50000B0C80ED880E87E0981EA11CB11C0E94FE
:103F6000EFDE681579058A059B0520F41093030C94
:103F700081E08CC0C092040CD092050CE092060C3B
:103F8000F092070CD701C601EBE1B695A79597957E
:103F90008795EA95D1F75C0121E0A222BB248C0130
:103FA0001595079507701127A4E095958795AA9513
:103FB000E1F7282F2170C22F80E0D82FCA15DB052A
:103FC00009F408608091921091E0980F90939210FC
:103FD0001F928F938CE892E09F938F93CAE4D0E175
:103FE000DF93CF930E9407E9BE018EE990E10E9422
:103FF00020E363E579E08EE990E10E94FBE283E053
:10400000F822FF92EF92DF92CF9281EC92E09F93A1
:104010008F93DF93CF930E9407E9BE018EE990E171
:104020000E9420E31F930F938CEF94E09F938F9354
:10403000DF93CF930E9407E9BE018EE990E10E94D1
:1040400020E36EE479E08EE990E10E94FBE28DB717
:104050009EB744960FB6F8949EBF0FBE8DBFAB2897
:1040600091F469E479E08EE990E10E94FBE28EE947
:1040700090E10E9428E381E080930E0C10920D0CD9
:1040800010920C0C03C065E479E0EDCFDF91CF9185
:104090001F910F91FF90EF90DF90CF90BF90AF9066
:1040A0009F908F9008958F929F92AF92BF92CF92E0
:1040B000DF92EF92FF92CF93DF9380910C0C90915F
:1040C0000D0C4A9709F04DC0E8E1FCE0C12CD12C61
:1040D0007601DF0111978C9190818F3240F08A3404
:1040E00008F03FC097519731E0F581E007C09F523B
:1040F0009B31B8F587518731A0F580E0CC0CDD1CF1
:10410000EE1CFF1CC82A32968CE0E033F80709F752
:104110009091030C8091020C981325C08090080C9C
:104120009090090CA0900A0CB0900B0C9CEB890E9F
:1041300092E0991EA11CB11C0E94EFDE8616970624
:10414000A806B90680F08091040C9091050CA0910E
:10415000060CB091070C8C159D05AE05BF0519F432
:104160006AC080E069C0C092040CD092050CE09255
:10417000060CF092070C8091921091E0980F9093AA
:1041800092101F928F938CE892E09F938F93CAE4D2
:10419000D0E1DF93CF930E9407E9BE018EE990E161
:1041A0000E9420E368E273E08EE990E10E9420E340
:1041B000D701C60122E0B695A795979587952A95D0
:1041C000D1F7BF93AF939F938F938EED92E09F9320
:1041D0008F93DF93CF930E9407E9BE018EE990E1B0
:1041E0000E9420E383E0C822DD24EE24FF24FF9216
:1041F000EF92DF92CF928DE293E09F938F93DF93C4
:10420000CF930E9407E9BE018EE990E10E9420E36E
:104210008EE990E10E9428E381E080930E0C1092D9
:104220000D0C10920C0C8DB79EB746960FB6F894F5
:104230009EBF0FBE8DBF81E0DF91CF91FF90EF90C9
:10424000DF90CF90BF90AF909F908F900895AF92E6
:10425000BF92CF92DF92EF92FF920F931F93CF9373
:10426000DF9300D01F921F92CDB7DEB780910C0C68
:1042700090910D0C9C012A5431092530310510F024
:1042800080E0B0C12091150C2E32D1F31D828E3406
:10429000910549F08C34910541F48091170C8333DA
:1042A00020F422E003C024E001C020E030E080E000
:1042B00090E0E12CF12CB12CD9011296A901465BBA
:1042C0005F4F245F334FBD01680F791F46175707B3
:1042D0008CF1F901E80FF91F6485633188F6638575
:1042E000653678F06358633110F4BB24B394E1E091
:1042F000F0E0EC0FFD1FEF0DF11D6081660F6160B6
:104300000CC06353643108F0BBCFE1E0F0E0EC0F88
:10431000FD1FEF0DF11D6081660F6083E39468E07F
:10432000E61206C0F39465E06F1508F4A9CFE12CFE
:104330000296C9CF9091030C8091020C981317C07C
:10434000C090080CD090090CE0900A0CF0900B0C77
:1043500088EBC80E8BE0D81EE11CF11C0E94EFDE3A
:10436000C616D706E806F90610F081E03BC1D980F1
:104370006A81B11041C0CD2C962F9B7FD92E63FF4F
:104380007FCF6370633009F47BCF0C818B81E02E8B
:10439000E2944FE0E422F12C20E1829FE00CF11C3A
:1043A0001124F3FE0DC080E090E18E199F09813940
:1043B00031E093070CF064CF7C016894F7F806C0F5
:1043C00061E9E61661E0F6060CF05ACF80E1089F3D
:1043D0008001112411278D8190E0959587958F702C
:1043E000080F111D043611050CF04ACFA12C043121
:1043F00011050CF472C073C0862F8F70E82EF12C5B
:10440000EB814E2F50E07C818D2D90E0F4E095956E
:104410008795FA95E1F72D2D2F70820F911D262F8C
:1044200030E0A4E035952795AA95E1F7820F931F18
:104430008E0D9F1D9A01B4E035952795BA95E1F749
:10444000820F931FEF708E0F911D272F30E014E025
:10445000359527951A95E1F7820F931F272F2E7018
:10446000820F911D8F739927072F017010E025E0AF
:10447000000F111F2A95E1F72D81020F111D8017E2
:10448000910709F0FDCE962F9370C92EA62EAA1C77
:10449000AA24AA1C6073603309F4F2CEFE2CEE2429
:1044A000E40EF51EE11428E0F2064CF080E090E105
:1044B0009C012E193F0979016894F7F806C031E88C
:1044C000E31632E0F3060CF0DBCE76958CEE870F28
:1044D000873418F4072F10E002C006E610E0809140
:1044E000921091E0980F909392101F928F938CE806
:1044F00092E09F938F938AE490E19F938F930E9421
:1045000007E96AE470E18EE990E10E9420E30F90F0
:104510000F900F900F900F900F90B11003C062ECAE
:1045200078E002C063EB78E08EE990E10E94FBE264
:104530001F92DF921F92CF9281EF92E09F938F9311
:104540004AE4C42E40E1D42EDF92CF920E9407E9C4
:10455000B6018EE990E10E9420E3FF92EF928AE398
:1045600096E09F938F93DF92CF920E9407E9B60166
:104570008EE990E10E9420E30FB6F894DEBF0FBEF3
:10458000CDBF03361105ACF41F930F9380E493E085
:104590009F938F93DF92CF920E9407E9B6018EE935
:1045A00090E10E9420E30F900F900F900F900F90DA
:1045B0000F9091E0B9120BC0A11003C06BEA78E034
:1045C00002C062EA78E08EE990E10E94FBE28EE9A7
:1045D00090E10E9428E381E080930E0C10920D0C74
:1045E00010920C0C0F900F900F900F900F90DF9186
:1045F000CF911F910F91FF90EF90DF90CF90BF90E0
:10460000AF900895AF92BF92CF92DF92EF92FF9258
:104610000F931F93CF93DF93CDB7DEB727970FB6D6
:10462000F894DEBF0FBECDBF80910C0C90910D0CA5
:104630008436910511F080E0CEC08091160C823452
:10464000D0F38091170C8C38B0F3E9E1FCE083E003
:1046500030E090E0DF0111972C91253278F08F3512
:1046600020F4208127512E3030F7A1E0B0E0AC0FCC
:10467000BD1FA90FB11D2C91220F0FC08F3520F443
:10468000208120512531B8F6A1E0B0E0AC0FBD1F6C
:10469000A90FB11D2C91220F21602C933F5F383060
:1046A00021F49F5F983038F630E08E5F3296853681
:1046B00089F6FE013196CE0107962081209521933F
:1046C000E817F907D1F78981823A09F0B4CFAA80B7
:1046D000BB805C814D818A2D8B0D8E55850F840F9B
:1046E00090E002962E8130E08217930709F0A3CF65
:1046F0008A2D8B259DE58927852784139CCF909152
:10470000030C8091020C981316C0C090080CD09036
:10471000090CE0900A0CF0900B0C88EEC80E83E0B8
:10472000D81EE11CF11C0E94EFDEC616D706E80673
:10473000F90608F04FC08091921091E0980F909385
:1047400092101F928F938CE892E09F938F930AE4CC
:1047500010E11F930F930E9407E9B8018EE990E1E1
:104760000E9420E36AEE77E08EE990E10E94FBE28E
:104770001F92AF928EED92E09F938F931F930F93B2
:104780000E9407E9B8018EE990E10E9420E38FE6DC
:1047900091E08B1991099F938F938AE396E09F9301
:1047A0008F931F930F930E9407E9B8018EE990E160
:1047B0000E9420E38EE990E10E9428E381E080934B
:1047C0000E0C10920D0C10920C0C0FB6F894DEBF6C
:1047D0000FBECDBF81E027960FB6F894DEBF0FBEA7
:1047E000CDBFDF91CF911F910F91FF90EF90DF90A0
:1047F000CF90BF90AF900895AF92BF92CF92DF92CB
:10480000EF92FF920F931F93CF93DF93CDB7DEB755
:1048100029970FB6F894DEBF0FBECDBF80910C0C68
:1048200090910D0C8639910529F08439910521F07C
:1048300080E0E1C092E001C090E0E92FF0E0E45FA9
:10484000F34F84858035A0F38585803588F3898191
:10485000880F816089839A5F31E020E0E92FF0E0E2
:10486000E45FF34F8185E22FF0E041E050E04C0F30
:104870005D1FE40FF51F813518F08081880F03C09C
:104880008081880F816080833F5F383021F42F5F03
:10489000283020F430E09E5F963900F38981BD8096
:1048A000AE800F811A8118279B8119279C811927B7
:1048B0001B251A25102798851913BACF8B258F3FF2
:1048C00009F0B6CF9091030C8091020C981316C09A
:1048D000C090080CD090090CE0900A0CF0900B0CE2
:1048E00058EEC50E53E0D51EE11CF11C0E94EFDE10
:1048F000C616D706E806F90608F07CC00770812FB7
:1049000090E054E0959587955A95E1F72AE0289F25
:104910007001299FF00C11241F70E10EF11C94E628
:10492000099FE00CF11C112449E5E41642E0F4066D
:1049300008F07ECFA3FE02C06894F7F88091921031
:1049400091E0980F909392101F928F938CE892E0D1
:104950009F938F930AE410E11F930F930E9407E93E
:10496000B8018EE990E10E9420E36FED77E08EE9D7
:1049700090E10E94FBE28A2D83701F928F938AE45C
:1049800093E09F938F931F930F930E9407E9B801C1
:104990008EE990E10E9420E3FF92EF928AE396E095
:1049A0009F938F931F930F930E9407E9B8018EE99D
:1049B00090E10E9420E31F92BF9281EF94E09F93C9
:1049C0008F931F930F930E9407E9B8018EE990E13E
:1049D0000E9420E38EE990E10E9428E381E0809329
:1049E0000E0C10920D0C10920C0C0FB6F894DEBF4A
:1049F0000FBECDBF81E029960FB6F894DEBF0FBE83
:104A0000CDBFDF91CF911F910F91FF90EF90DF907D
:104A1000CF90BF90AF9008954F925F926F927F9228
:104A20008F929F92AF92BF92CF92DF92EF92FF92BE
:104A30000F931F93CF93DF9300D01F92CDB7DEB7B4
:104A400080910C0C90910D0C8236910579F0843692
:104A5000910511F080E024C18091160C8933D0F3C8
:104A60008091170C8536B0F322E001C020E062E0AF
:104A7000620F812C912C5401C12CD12C760130E095
:104A8000A9014F595F4F2F5C3F4F862F90E0481789
:104A900059072CF1FC01E45FF34F7185753188F003
:104AA000281739073CF0CC0CDD1CEE1CFF1C689469
:104AB000C0F813C0880C991CAA1CBB1C689480F811
:104AC0000CC0281739072CF0CC0CDD1CEE1CFF1C89
:104AD00004C0880C991CAA1CBB1C6E5FD6CF909199
:104AE000030C8091020C981310C04090080C509059
:104AF000090C60900A0C70900B0C0E94EFDE4616B9
:104B000057066806790608F0CAC0C114D104E1044A
:104B1000F10431F481149104A104B10409F49ACF91
:104B200027016624772433272F2D1E2D0D2D80EF8E
:104B3000842580138FCFC501AA27BB2789839A8339
:104B4000AB83BC8377276B2D5A2D492D8C2D8F700D
:104B50009C2D92959F70890F982D92959F70890F2B
:104B6000942D92959F70890F942D9F70890F902F8F
:104B700092959F70890F0F70800F998192959F7009
:104B8000890F99819F70890F942F92959F70890F3B
:104B9000942F9F70890F8095282D2F7030E08F7093
:104BA00090E02817390709F055CFDB01CA01992792
:104BB000AA27BB27DC0199278827DD24EE24FF24C0
:104BC000FE2CED2CDC2CCC24E981CE0ED11CE11C7A
:104BD000F11CC80ED91EEA1EFB1E8091921091E0B6
:104BE000980F909392101F928F938CE892E09F936E
:104BF0008F930AE410E11F930F930E9407E9B80115
:104C00008EE990E10E9420E36FE974E08EE990E183
:104C10000E94FBE21F924F928AEA92E09F938F9349
:104C20001F930F930E9407E9B8018EE990E10E945B
:104C300020E3912CE4E095948794EA95E1F79F9224
:104C40008F9285E593E09F938F931F930F930E941C
:104C500007E9B8018EE990E10E9420E3FF92EF920C
:104C6000DF92CF928EE593E09F938F931F930F93E4
:104C70000E9407E9B8018EE990E10E9420E38EE9E5
:104C800090E10E9428E381E080930E0C10920D0CBD
:104C900010920C0C0FB6F894DEBF0FBECDBF81E0B2
:104CA0000F900F900F900F90DF91CF911F910F9168
:104CB000FF90EF90DF90CF90BF90AF909F908F903C
:104CC0007F906F905F904F900895CF92DF92EF9218
:104CD000FF920F931F93CF93DF93CDB7DEB7289743
:104CE0000FB6F894DEBF0FBECDBF80910C0C909133
:104CF0000D0C8237910511F5E8E1FCE020E080E041
:104D000010C09F32D8F4A1E0B0E0AC0FBD1FA80FD7
:104D1000B11D9C91990F91609C932F5F2830E9F011
:104D200032969CE0E838F907E9F0DF0111973C91F1
:104D30009081931728F438533F3018F380E081C0F6
:104D40003232E0F79C33D0F3A1E0B0E0AC0FBD1FEE
:104D5000A80FB11D9C91990FDFCF8F5F883070F73E
:104D600020E0DECF9091030C8091020C981316C0C6
:104D7000C090080CD090090CE0900A0CF0900B0C3D
:104D800080EDC80E87E0D81EE11CF11C0E94EFDE0A
:104D9000C616D706E806F90608F052C080919210B0
:104DA00091E0980F909392101F928F938CE892E06D
:104DB0009F938F930AE410E11F930F930E9407E9DA
:104DC000B8018EE990E10E9420E36EE373E08EE982
:104DD00090E10E94FBE28F811F928F938E811F9240
:104DE0008F938D811F928F9389811F928F9389E674
:104DF00093E09F938F931F930F930E9407E9B8014D
:104E00008EE990E10E9420E363E373E08EE990E194
:104E10000E94FBE26BE273E08EE990E10E94FBE20C
:104E20008EE990E10E9428E381E080930E0C1092BD
:104E30000D0C10920C0C0FB6F894DEBF0FBECDBF58
:104E400081E028960FB6F894DEBF0FBECDBFDF918C
:104E5000CF911F910F91FF90EF90DF90CF90089529
:104E6000CF92DF92EF92FF92CF93DF9380910C0C61
:104E700090910D0C8433910529F0C69709F093C0E9
:104E800082E001C080E044E0480FC12CD12C7601C3
:104E900090E0C296242F30E082179307F4F0F901D6
:104EA000E45FF34F2085223208F07DC02185233452
:104EB00050F0253608F077C0CC0CDD1CEE1CFF1C32
:104EC0006894C0F808C02152223108F06CC0CC0CA4
:104ED000DD1CEE1CFF1C4E5FDDCFC114D104E104CC
:104EE000F10409F460C02FEFC216D206E206F10405
:104EF00009F459C0D701C601AA27BB278F3F9F4F8E
:104F0000A105B10509F44FC08091921091E0980F6E
:104F1000909392101F928F938CE892E09F938F93BF
:104F2000CAE4D0E1DF93CF930E9407E9BE018EE986
:104F300090E10E9420E363E273E08EE990E10E9439
:104F4000FBE2FF92EF92DF92CF9285E992E09F938E
:104F50008F93DF93CF930E9407E9BE018EE990E122
:104F60000E9420E361E173E08EE990E10E94FBE2A0
:104F700062E073E08EE990E10E94FBE28EE990E14D
:104F80000E9428E381E080930E0C10920D0C109289
:104F90000C0C8DB79EB70E960FB6F8949EBF0FBE41
:104FA0008DBF81E001C080E0DF91CF91FF90EF9055
:104FB000DF90CF9008958F929F92AF92BF92CF9241
:104FC000DF92EF92FF92CF93DF9380910C0C909140
:104FD0000D0C869711F080E0AAC08091150C8736E1
:104FE000D1F71092150C8091160C8137A0F38091A7
:104FF000170C813780F3E8E1FCE0C12CD12C76015D
:105000002CE0EC33F207C9F081919081833358F0A2
:10501000933308F78A34F8F6CC0CDD1CEE1CFF1C29
:105020006894C0F8EDCF9233B0F284518E3098F688
:10503000CC0CDD1CEE1CFF1CE3CF9091030C809187
:10504000020C981316C08090080C9090090CA09048
:105050000A0CB0900B0C80ED880E87E0981EA11C06
:10506000B11C0E94EFDE86169706A806B90608F066
:105070005DC0C114D104E104F10409F4ACCFD7013F
:10508000C601AA27BB278F3F9F4FA105B10509F491
:10509000A2CF8091921091E0980F909392101F925E
:1050A0008F938CE892E09F938F93CAE4D0E1DF93D3
:1050B000CF930E9407E9BE018EE990E10E9420E3B0
:1050C00069EB72E08EE990E10E94FBE2FF92EF92C1
:1050D000DF92CF928EED92E09F938F93DF93CF93E9
:1050E0000E9407E9BE018EE990E10E9420E367EA91
:1050F00072E08EE990E10E94FBE268E972E08EE9DD
:1051000090E10E94FBE28EE990E10E9428E381E0B9
:1051100080930E0C10920D0C10920C0C8DB79EB754
:105120000E960FB6F8949EBF0FBE8DBF81E0DF9143
:10513000CF91FF90EF90DF90CF90BF90AF909F9076
:105140008F9008958F929F92AF92BF92CF92DF92ED
:10515000EF92FF92CF93DF9380910C0C90910D0C06
:105160008232910531F08A32910509F058C040E051
:1051700001C048E04F5FC12CD12C76010197242F4C
:1051800030E02817390714F5C2E0CC0CDD1CEE1C0A
:10519000FF1CCA95D1F7F901E45FF34F2185223254
:1051A000F0F522853EEB320F37FD39C0203630F066
:1051B000213A30F42B3730F421E005C020E003C061
:1051C00023E001C022E0C22A4E5FD9CF9091030CA8
:1051D0008091020C981325C08090080C9090090CC7
:1051E000A0900A0CB0900B0C80ED880E87E0981E02
:1051F000A11CB11C0E94EFDE86169706A806B90610
:1052000080F08091040C9091050CA091060CB09157
:10521000070C8C159D05AE05BF0519F457C080E03D
:1052200056C0C092040CD092050CE092060CF0928D
:10523000070C8091921091E0980F909392101F921A
:105240008F938CE892E09F938F93CAE4D0E1DF9331
:10525000CF930E9407E9BE018EE990E10E9420E30E
:1052600065E871E08EE990E10E94FBE2FF92EF9227
:10527000DF92CF9281EC92E09F938F93DF93CF9355
:105280000E9407E9BE018EE990E10E9420E364E7F5
:1052900071E08EE990E10E94FBE26AE671E08EE93E
:1052A00090E10E94FBE28EE990E10E9428E381E018
:1052B00080930E0C10920D0C10920C0C8DB79EB7B3
:1052C0000E960FB6F8949EBF0FBE8DBF81E0DF91A2
:1052D000CF91FF90EF90DF90CF90BF90AF909F90D5
:1052E0008F9008954F925F926F927F928F929F92CC
:1052F000AF92BF92CF92DF92EF92FF921F93CF9324
:10530000DF93CDB7DEB728970FB6F894DEBF0FBE98
:10531000CDBF80910C0C90910D0C8637910541F01A
:105320008837910539F08E37910531F080E083C1DF
:1053300060E003C062E001C068E0862F90E0FC01FD
:10534000EE57F34F208127502A3080F773E0AC01ED
:10535000495E5F4F272F30E04217530744F0F901B1
:10536000E45FF34F2185243008F77F5FF3CF78E1C6
:10537000760FC12CD12C7601AC01425C5F4F272FF8
:1053800030E042175307C4F0F901E45FF34F228580
:10539000243060F62185243038F0283038F6CC0CE3
:1053A000DD1CEE1CFF1C06C0CC0CDD1CEE1CFF1C23
:1053B0006894C0F87E5FE3CF70E4760F812C912C67
:1053C0005401AC0144595F4F272F30E04217530777
:1053D000D4F0F901E45FF34F2085243008F0A6CF24
:1053E0002185243040F0283008F0A0CF880C991C8B
:1053F000AA1CBB1C06C0880C991CAA1CBB1C689468
:1054000080F87E5FE1CF625910E08C589F4F262FC5
:1054100030E0821793079CF0F901E45FF34F228597
:10542000243008F083CF2185243028F0283008F07C
:105430007DCF110F02C0110F11606E5FE8CFD50153
:10544000C4012CE0B695A795979587952A95D1F735
:1054500089839A83AB83BC8389818370260137015A
:1054600032E0440C551C661C771C3A95D1F7482A4B
:105470009091030C8091020C98132AC02091080C83
:105480003091090C40910A0C50910B0C28513C4F63
:105490004F4F5F4F2D833E834F8358870E94EFDE2F
:1054A0002D813E814F8158852617370748075907B8
:1054B00078F08091040C9091050CA091060CB091AD
:1054C000070C84159505A605B70511F481E0B3C056
:1054D000C114D104E104F10409F428CF4092040C72
:1054E0005092050C6092060C7092070C80919210FD
:1054F00091E0980F909392101F928F938CE892E016
:105500009F938F938AE4682E80E1782E7F926F922A
:105510000E9407E9B3018EE990E10E9420E362E670
:1055200073E08EE990E10E94FBE2D701C601AF7003
:10553000BB27BF93AF939F938F938EE793E09F9387
:105540008F937F926F920E9407E9B3018EE990E1F9
:105550000E9420E367E573E08EE990E10E94FBE2A0
:1055600062E573E08EE990E10E94FBE20FB6F894E9
:10557000DEBF0FBECDBFB981B0FD03C06EE473E0E6
:1055800002C069E473E08EE990E10E94FBE2809141
:10559000921091E0980F909392101F928F938CE845
:1055A00092E09F938F938AE490E19F938F930E9460
:1055B00007E96AE470E18EE990E10E9420E368E87F
:1055C00073E08EE990E10E9420E320E130E0B70132
:1055D000A6018EE990E10E94F6E360EE75E08EE9A7
:1055E00090E10E9420E320E130E0B501A4018EE9C2
:1055F00090E10E94F6E360EE75E08EE990E10E9492
:1056000020E340E150E0612F8EE990E10E9402E446
:1056100066E076E08EE990E10E942BE381E08093E2
:105620000E0C10920D0C10920C0C0F900F900F900E
:105630000F900F900F9028960FB6F894DEBF0FBE14
:10564000CDBFDF91CF911F91FF90EF90DF90CF9072
:10565000BF90AF909F908F907F906F905F904F9092
:1056600008958F929F92AF92BF92CF92DF92EF9266
:10567000FF920F931F93CF93DF9380910C0C909127
:105680000D0CC29709F073C08091150C8F3309F48B
:105690006EC08091460C8E3008F069C0E7E1FCE0F6
:1056A000A6E1BCE0C0E0812C912C540180818E30B9
:1056B00070F09C919E3008F05AC08F3108F057C0AE
:1056C000880C991CAA1CBB1C689480F811C08330FC
:1056D00008F44DC08C918D3020F4C11105C0C1E09B
:1056E00003C0C13009F443C0880C991CAA1CBB1C20
:1056F000329612968CE0E734F807C1F69091030CCD
:105700008091020C981310C0C090080CD090090C26
:10571000E0900A0CF0900B0C0E94EFDEC616D70644
:10572000E806F90608F0C5C081149104A104B1048B
:10573000F1F08091020C8C30E1F08F30D1F07501E6
:105740006401D4E0F694E794D794C794DA95D1F73E
:105750009FE0E922FF24C114D104E104F10439F0EF
:105760008FEFC816D8068FE0E806F104C9F480E090
:10577000A1C0C090080CD090090CE0900A0CF090E9
:105780000B0C90EDC90E97E0D91EE11CF11C0E9494
:10579000EFDE6C157D058E059F0508F486C0CFCF22
:1057A000C13011F46894E7F8D501C401B695A79506
:1057B00097958795182F1770082D01701330B9F23F
:1057C000143009F413E08091921091E0980F9093B7
:1057D00092101F928F932CE832E03F932F93CAE4EC
:1057E000D0E1DF93CF930E9407E9BE018EE990E1FB
:1057F0000E9420E363E77DE08EE990E10E94FBE2F6
:10580000FF92EF92DF92CF9225E932E03F932F9300
:10581000DF93CF930E9407E9BE018EE990E10E94D9
:1058200020E31F921F932CEF34E03F932F93DF93DD
:10583000CF930E9407E9BE018EE990E10E9420E328
:105840006EE67DE08EE990E10E94FBE28DB79EB7A7
:1058500044960FB6F8949EBF0FBE8DBF153070F002
:105860006AE67DE08EE990E10E94FBE2011103C04F
:1058700065E67DE00AC061E67DE007C0013019F40D
:105880006CE57DE002C068E57DE08EE990E10E9474
:10589000FBE28EE990E10E9428E381E080930E0C08
:1058A00010920D0C10920C0C05C08091020C80938C
:1058B000030C81E0DF91CF911F910F91FF90EF904A
:1058C000DF90CF90BF90AF909F908F9008954F92B0
:1058D0005F926F927F928F929F92AF92BF92CF9280
:1058E000DF92EF92FF920F931F93CF93DF938091FC
:1058F0000C0C90910D0C8A36910509F052C0E7E12D
:10590000FCE081E0812C912C5401C12CD12C76013A
:1059100020819FEF980F213160F0903228F4CC0C59
:10592000DD1CEE1CFF1C14C0880C991CAA1CBB1C9F
:105930000FC0903238F4CC0CDD1CEE1CFF1C6894B8
:10594000C0F806C0880C991CAA1CBB1C689480F87F
:1059500032968F5F8533E1F68F2D8E3F29F08233AB
:1059600001F5C1E0D0E002C0C0E0D0E09091030CAE
:105970008091020C981311C04090080C5090090CB3
:1059800060900A0C70900B0C0E94EFDE46165706D2
:105990006806790610F081E0ADC01A2D1F70143032
:1059A00010F080E0A7C0D701C60124E1B695A79505
:1059B000979587952A95D1F7282F2F70722E46013B
:1059C000570134E0B694A794979487943A95D1F709
:1059D0000C2D0F7081E4780E083051F0043051F036
:1059E000023051F0013051F0033049F405E007C0B6
:1059F00001E005C002E003C003E001C004E08091C3
:105A0000921091E0980F909392101F928F938CE8D0
:105A100092E09F938F932AE430E13F932F930E946B
:105A200007E96AE470E18EE990E10E9420E30F90BB
:105A30000F900F900F900F900F90CD2B19F461E500
:105A40007DE002C068E47DE08EE990E10E94FBE227
:105A50009F928F922EED32E03F932F93CAE4D0E1D4
:105A6000DF93CF930E9407E9BE018EE990E10E9487
:105A700020E31F920F931F927F928FE893E09F93F2
:105A80008F93DF93CF930E9407E9BE018EE990E1E7
:105A90000E9420E363E47DE08EE990E10E94FBE256
:105AA0008DB79EB70E960FB6F8949EBF0FBE8DBFF2
:105AB000111103C06FE37DE00EC0113019F46AE3E9
:105AC0007DE009C0123019F463E37DE004C01330B7
:105AD00031F46BE27DE08EE990E10E94FBE28EE919
