:10000000CCC60000FBC60000F9C60000F7C6000021
:10001000F5C60000F3C60000F1C60000EFC6000000
:10002000EDC60000EBC60000E9C60000E7C6000010
:10003000E5C60000E3C60000E1C60000DFC6000020
:10004000DDC60000DBC60000D9C60000D7C6000030
:10005000D5C60000D3C60000D1C600000C9406B07F
:10006000CDC600000C9441B30C9477B3C7C6000012
:10007000C5C60000C3C60000C1C60000BFC6000060
:10008000BDC60000BBC60000B9C60000B7C6000070
:10009000B5C60000B3C60000B1C60000AFC6000080
:1000A000ADC60000ABC60000A9C60000A7C6000090
:1000B000A5C60000A3C60000A1C600009FC60000A0
:1000C0009DC600009BC6000099C6000097C60000B0
:1000D00095C6000093C6000091C600008FC60000C0
:1000E0008DC6000029B12CB11BB11FB125B163B180
:1000F00030B134B13AB13EB142B148B14CB150B176
:1001000063B156B15AB15EB13B50756C73657328DB
:1001100075536563293D0044454255473B50756C16
:100120007365733D003B50756C736573287553653B
:1001300063293D0044454255473B50756C736573D8
:100140003D00536C6176653B44656275673D0053C5
:100150006C6176653B00534D4F4B45414C455254C5
:100160003D4F4E3B00416C6563746F53413B00470C
:100170004F444F574E3B00474F55503B0053544F51
:10018000503B004F4E3B004F46463B00444F574EBE
:100190003B0055503B00434D443D005357495443A9
:1001A000483D30313B004D657274696B3B00534DE7
:1001B0004F4B45414C4552543D4F4E3B004641321A
:1001C0003052463B004348494D453D30313B00539A
:1001D00057495443483D313B434D443D4F4E3B000E
:1001E0003B446F6F7262656C6C3B004348494D4500
:1001F0003D30313B005357495443483D313B434D1B
:10020000443D4F4E3B003B456C726F44423B0043C4
:1002100048494D453D30313B005357495443483DD3
:10022000313B434D443D4F4E3B003B446F6F726248
:10023000656C6C3B004348494D453D30313B0053B4
:1002400057495443483D313B434D443D4F4E3B009D
:100250004348494D453D30313B005357495443488D
:100260003D313B434D443D4F4E3B003B4279726F25
:100270006E204D503B004348494D453D30313B00D9
:100280005357495443483D313B434D443D4F4E3B0A
:10029000003B44656C74726F6E69633B003B42794E
:1002A000726F6E3B003B506C69656765723B004343
:1002B0004D443D4F4E3B4348494D453D30313B0059
:1002C0003B53656C656374506C75733B004F4E0017
:1002D0004F4E004F4E004F4E004F4646004F4E00CF
:1002E0004F4646003B5357495443483D30313B430A
:1002F0004D443D0041746C616E7469633B49443DFB
:10030000004241543D4C4F573B004241543D4F4BFE
:100310003B00434D443D4F4E3B00434D443D4F4613
:10032000463B003B5357495443483D30313B004521
:100330006C6D65733B49443D00434D443D4F4E3B1E
:10034000005831303B00434D443D4F4E3B00434D40
:10035000443D4F46463B005357495443483D303295
:100360003B00436875616E676F3B00434D443D4FF2
:100370004E3B004556313532373B00434D443D4FEF
:100380004E3B005357495443483D30313B0048549D
:100390003132453B0053544F503B004F4E3B0053CE
:1003A000544F503B00444F574E3B0055503B004389
:1003B0004D443D005254533B003B4F7265676F6E96
:1003C000205747523830303B44454255473D003B6B
:1003D0004F7265676F6E20434D3138303B49443D65
:1003E000003B44454255473D003B4F7265676F6E89
:1003F00020434D3131393B49443D003B4F726567E5
:100400006F6E20434D3136303B49443D003B4F72C7
:1004100065676F6E20434D3131333B44454255474C
:100420003D003B4F7265676F6E20434D3131333B6A
:1004300049443D0044454255473D004241543D4FEB
:100440004B3B004241543D4C4F573B003B4F726584
:10045000676F6E2055564E3830303B49443D00445E
:10046000454255473D004241543D4F4B3B004241C0
:10047000543D4C4F573B003B4F7265676F6E2055A4
:10048000564E3132382F3133383B49443D004241DA
:10049000543D4F4B3B004241543D4C4F573B003B7A
:1004A0004F7265676F6E2057696E64323B49443DF9
:1004B0000044454255473D004241543D4F4B3B00AF
:1004C0004241543D4C4F573B003B4F7265676F6E46
:1004D0002057696E643B49443D0044454255473DC1
:1004E000004241543D4F4B3B004241543D4C4F571D
:1004F0003B003B4F7265676F6E205261696E323B05
:1005000049443D0044454255473D004241543D4F1A
:100510004B3B004241543D4C4F573B003B4F7265B3
:10052000676F6E205261696E3B49443D0042415401
:100530003D4C4F573B004241543D4F4B3B003B4FDE
:100540007265676F6E204254483B49443D0042410A
:10055000543D4C4F573B004241543D4F4B3B003BB9
:100560004F7265676F6E2054656D70487967726F62
:100570003B49443D004241543D4C4F573B004241B2
:10058000543D4F4B3B003B4F7265676F6E20546587
:100590006D703B49443D004241543D4F4B3B00424E
:1005A00041543D4C4F573B003B4F7265676F6E5651
:1005B000313B49443D30300042696F77696E3B0002
:1005C0004241543D4F4B3B004241543D4C4F573B01
:1005D000003B5869726F6E3B49443D003B41757268
:1005E000696F6C2056323B49443D004241543D4FB7
:1005F0004B3B004241543D4C4F573B003B417572D1
:10060000696F6C3B49443D3030003B417572696F06
:100610006C2056333B49443D004C6143726F737309
:10062000653B49443D004C6143726F7373653B49C0
:10063000443D003B55504D5F457369632046323B56
:1006400049443D004241543D4F4B3B004241543DE3
:100650004C4F573B003B55504D5F457369633B49D9
:10066000443D004C6143726F73736556333B49449C
:100670003D004C6143726F73736556333B49443D93
:10068000004C6143726F73736556333B49443D00C0
:100690004C6143726F73736556333B49443D004D63
:1006A000656275733B004241543D4F4B3B004241F4
:1006B000543D4C4F573B00496E6F56616C6C6579E9
:1006C0003B004B726970706C3B004241543D4F4B94
:1006D0003B004241543D4C4F573B0050726F6C6F92
:1006E0006775653B004575726F6368726F6E3B009E
:1006F0005754303132323B0046696E654F6666733F
:1007000065743B00496D6167696E74726F6E6978DC
:100710003B003B003B4372657374613B444542556B
:10072000473B49443D004241543D4C4F573B0042FA
:1007300041543D4F4B3B003B4372657374613B49F1
:10074000443D004241543D4C4F573B004241543DD3
:100750004F4B3B003B4372657374613B49443D0022
:100760004241543D4C4F573B004241543D4F4B3B5F
:10077000003B4372657374613B49443D0042415400
:100780003D4C4F573B004241543D4F4B3B003B4398
:1007900072657374613B49443D004241543D4C4F86
:1007A000573B004241543D4F4B3B003B4372657306
:1007B00074613B49443D00436F6E7261643B00428B
:1007C00041543D4C4F573B004241543D4F4B3B0041
:1007D000476C6F62616C54726F6E6963733B00416A
:1007E0006C6563746F2056343B00416C6563746FB5
:1007F0002056333B00416C6563746F2056313B00DB
:10080000416C6563746F2056313B00416C656374C5
:100810006F2056313B00416C6563746F2056313B4D
:100820000053544F503B00444F574E3B0055503BF4
:1008300000434D443D00414F4B3B0053544F503B10
:10084000004C4F434B3B0053544F503B00444F57D9
:100850004E3B0055503B00434D443D004272656C99
:100860004D6F746F723B004C494D49543B00434FF0
:100870004E4649524D3B0053544F503B00444F5756
:100880004E3B0055503B00434D443D00426F667562
:100890004D6F746F723B004F46463B004F4E3B001E
:1008A000414C4C00434D443D0053696C76657243A6
:1008B000726573743B004F46463B004F4E3B00430E
:1008C0004D443D00523534363B004F4E3B004F46C1
:1008D000463B00434D443D005831305365637572CB
:1008E000653B004F46463B00414C4C4F46463B0063
:1008F0004F4E3B0053544F503B004F4E3B004F4632
:10090000463B00414C4C4F46463B004F4E3B004F50
:1009100046463B00434D443D004C6967687477612F
:1009200076653B004F4E3B004F46463B004F4E3BEB
:10093000004F46463B00414C4C00434D443D005562
:100940006E697465633B004F46463B004F4E3B006B
:10095000414C4C00434D443D004575726F70653B02
:10096000004252494748543B0044494D3B004F4EDA
:100970003B004F46463B00434D443D0053574954CE
:1009800043483D30313B0041737465723B004F4E2C
:100990003B004F46463B00414C4C00434D443D001C
:1009A0004D61636C65616E3B004F4E3B004F4646A8
:1009B0003B00414C4C00434D443D004F4E3B004FEB
:1009C00046463B00434D443D00496B6561204B6FFB
:1009D00070706C613B00414C4C4F4E3B00414C4CA5
:1009E0004F46463B0044494D3B004252494748541C
:1009F0003B004F4E3B004F46463B00434D443D00BD
:100A0000506F7765726669783B004F46463B004FF2
:100A10004E3B00434D443D0046413530303B004F96
:100A20004E3B004F46463B00414C4C00434D443D3D
:100A300000486F6D65436F6E666F72743B00434F85
:100A40004C4F5220475245454E3B00434F4C4F526E
:100A50002059454C4C4F573B00434F4C4F5220427E
:100A60004C55453B00434F4C4F52205245443B00B0
:100A7000434F4C4F524D495820444F574E3B004333
:100A80004F4C4F524D49582055503B0044494D2042
:100A900055503B0044494D20444F574E3B004F4674
:100AA000463B00434D443D0054524330325247428E
:100AB0003B00414C4C4F4E3B00414C4C4F46463B5B
:100AC0000044494D3B004252494748543B004F4E79
:100AD0003B004F46463B00434D443D005831303BC0
:100AE000004F4E3B004F46463B00434D443D004BBC
:100AF000616D62726F6F6B3B004F46463B004F4E1D
:100B00003B00414C4C00434D443D00436F6E7261CD
:100B1000643B00414C4C4F46463B00414C4C4F4ED1
:100B20003B004F46463B004F4E3B00434D443D008B
:100B30004176696473656E3B00426C7973733B0068
:100B40004F4E3B004F46463B004F4E3B004F464604
:100B50003B00414C4C00434D443D004575726F6471
:100B60006F6D6573743B00414C4C4F4E3B00414CE4
:100B70004C4F46463B004F4E3B004F46463B0043E2
:100B80004D443D004E65774B616B753B004F4646CB
:100B90003B004F4E3B00414C4C00434D443D005404
:100BA000726953746174653B005054323236323B83
:100BB000005068696C6970733B00496D70756C73A7
:100BC0003B0053617274616E6F3B00496D70756CD0
:100BD000733B004142343030443B004B616B753B0A
:100BE000003B4C6143726F73736556323B49443D21
:100BF000003B4C6143726F73736556323B49443D11
:100C0000003B4C6143726F73736556323B49443D00
:100C1000003B4C6143726F73736556323B49443DF0
:100C2000003B50756C7365732875536563293D00EF
:100C300044454255473B50756C7365733D003230F7
:100C40003B30303B4E6F646F20526164696F467277
:100C5000657175656E63794C696E6B202D20524607
:100C60004C696E6B20476174657761792056312E2F
:100C700031202D200000000A0B02090C0D0E080780
:100C8000030401000000000000000000000000005C
:100C90000000000000000000000000000000000054
:100CA0000012111000000000000000000000000011
:100CB00000000000000000000000000102102020E1
:100CC00008081020401020408002010201080402A0
:100CD0000101020408102040808040201008040216
:100CE000018004020180402010080402010804026F
:100CF0000101020408102040800102040810204075
:100D00008005050505070508080808020202020A11
:100D10000A0808040404040101010101010101039E
:100D200003030303030303040707070C0C0C0C0C59
:100D30000C0C0C0202020206060606060606060B4C
:100D40000B0B0B0B0B0B0B000020002300260029C4
:100D5000002C002F003200000100000301060109F1
:100D60000100002200250028002B002E0031003455
:100D70000002010000050108010B01000021002410
:100D80000027002A002D003000330001010000047C
:100D90000107010A01000FAEA9B311241FBECFEF56
:100DA000D1E2DEBFCDBF00E00CBF18E0A0E0B2E0B2
:100DB000E2EDF9E701E00BBF02C007900D92A43904
:100DC000B107D9F72EE0A4E9B8E001C01D92A83020
:100DD000B207E1F71DE0CAE9DDE000E006C02297B6
:100DE0000109FE010BBF0E945AB8C639D10780E045
:100DF0000807A9F70E94EDB30C94E7BC01C92F9234
:100E00003F924F925F926F927F928F929F92AF929A
:100E1000BF92CF92DF92EF92FF920F931F93CF93E7
:100E2000DF93CDB7DEB727970FB6F894DEBF0FBEBE
:100E3000CDBF8091410990914209C29711F080E0A5
:100E4000D4C480914A098F3009F48CC28F33B9F32E
:100E50008331A9F3813239F410924A0925E02F83B6
:100E60008AE090E003C01F8280E190E020917B093E
:100E700030E0821793071CF3ECE4F9E046E150E020
:100E800066E170E0219130E0261737072CF0421719
:100E900053070CF4A9019B0169E0EC37F60711F048
:100EA000B901F0CFAF81A53009F477C0B90167501F
:100EB00071096230710540F4BA016E5171096230F6
:100EC000710510F4B4E0BF83B90169507109623053
:100ED000710568F4BA01645271096230710508F451
:100EE00050C0645071096330710508F44CC0B901F9
:100EF0006A5071096230710540F4BA016852710993
:100F00006330710508F441C009C02D30310531F45A
:100F1000BA016052710963307105D0F1B9016B50AB
:100F200071096230710530F4BA016F51710967308F
:100F3000710588F1B9016C5071096230710530F4A6
:100F4000BA016D5271096230710548F1B9016450FE
:100F500071096530710560F44E52510944305105F4
:100F6000E0F423E02F8317E0212E84E190E01FC0FE
:100F70002430310594F4465151094230510568F44A
:100F800011C031E009C041E00BC052E05F8305C0F1
:100F900022E02F8302C034E03F83212C08C043E0CD
:100FA0004F83FBCF55E05F83212C8AE090E0609077
:100FB0004E09712CEDE4F9E04EE459E00CE419E03F
:100FC000312C512C812C912C5401C12CD12C760127
:100FD000412C60E070E0DA011397AC912A2F30E0E9
:100FE0003E832D83281739070CF062C0D8012C915D
:100FF00030E0821793070CF05BC0208130E02817A7
:101000003907ACF4DA012C9130E0821793077CF4B5
:10101000F694E794D794C794B2E0880C991CAA1C64
:10102000BB1CBA95D1F7B22DB1602B2E9FC0208189
:1010300030E0821793070CF5DA012C9130E0281785
:101040003907DCF45394F694E794D794C79432E0CC
:10105000880C991CAA1CBB1C3A95D1F76894D3F84C
:10106000689481F86B30710521F4B1E05B1609F4E6
:101070007DC0222D2260222E79C0208130E02817E9
:101080003907B4F4DA012C9130E02817390784F4D9
:10109000F694E794D794C794B2E0880C991CAA1CE4
:1010A000BB1CBA95D1F7B3E08B2A332433945EC0CE
:1010B0002D813E818217930774F5D8012C9130E081
:1010C0002817390744F5208130E0821793071CF573
:1010D000DA012C9130E028173907ECF422E0880C73
:1010E000991CAA1CBB1C2A95D1F7689480F8B22DD4
:1010F000B4602B2EF694E794D794C7942F812530B3
:10110000A9F16B30710591F1233011F026E02F83A6
:101110006894D3F82BC06115710519F5B2E0880CFD
:10112000991CAA1CBB1CBA95D1F7AD81BE818A1748
:101130009B079CF4D8012C9130E0821793076CF444
:10114000208130E02817390744F4861597052CF4E0
:10115000F694E794D794C79409C0B22DB8602B2EAB
:1011600003C0222D2860222E442443946F5F7F4FBA
:1011700034960C5F1F4F4C5F5F4F6C30710509F068
:101180002ACF1F8141105BCE822D8B7F833019F0D7
:1011900035E0231254CE40913509509136096091C3
:1011A0003709709138098091310990913209A091E5
:1011B0003309B0913409481759076A077B07C9F505
:1011C00040903D0950903E0960903F097090400961
:1011D00044EF440E41E0541E611C711C0E9450B04B
:1011E000461657066806790620F140903D09509052
:1011F0003E0960903F097090400958EE450E53E05B
:10120000551E611C711C0E9450B064157505860541
:10121000970508F0A7C08091390990913A09A091EB
:101220003B09B0913C0988159905AA05BB0509F44D
:1012300099C0A7E02A1215C040903D0950903E0980
:1012400060903F097090400968EE460E63E0561EBC
:10125000611C711C0E9450B06415750586059705C8
:1012600078F0209131093091320940913309509141
:1012700034092E3031054105510509F041C023C024
:101280008091390990913A09A0913B09B0913C09AC
:1012900088159905AA05BB0521F3409135095091A0
:1012A0003609609137097091380980913109909120
:1012B0003209A0913309B0913409481759076A07D8
:1012C0007B0779F64FC040903D0950903E096090F1
:1012D0003F097090400980ED480E87E0581E611C60
:1012E000711C29833A834B835C830E9450B029810F
:1012F0003A814B815C81641575058605970550F12F
:1013000020913109309132094091330950913409CB
:101310002B3031054105510539F540903D0950907C
:101320003E0960903F097090400990ED490E97E0AA
:10133000591E611C711C29833A834B835C830E9474
:1013400050B029813A814B815C8164157505860511
:10135000970550F4209335093093360940933709A7
:101360005093380981E041C28092390990923A093C
:10137000A0923B09B0923C09B7E02B1609F42CC1AE
:10138000A5E02A1227C02F81233021F50C2D0095CE
:101390000F70B701A601407F55276627772734E0F5
:1013A00076956795579547953A95D1F7842F80950F
:1013B0008F7077276F2D5E2D4D2D43705527662733
:1013C000772777247394423051056105710509F040
:1013D00002C202C2D701C60187789770AA27BB272D
:1013E00081159740A105B10509F4F0C1D701C601E7
:1013F00088279770AA27BB2781159640A105B105BC
:1014000009F0E6C15F815630B1F4D701C601817F92
:101410009E70AA27BB27892B8A2B8B2B09F00FCD17
:101420000C2D0E700695009507700F5B6D2D617089
:10143000762E612CD5C01F81153089F5D701C601E4
:10144000807F9370AA27BB2704E0B695A795979550
:1014500087950A95D1F70C2D00950F700F5B682EBC
:101460006094862D8F71682ED701C6012AE0B6954B
:10147000A795979587952A95D1F783709927AA27DD
:10148000BB2782309105A105B10509F4A8C07724D6
:1014900073940197A105B10509F0A1C0A1C0712CF9
:1014A00000E080E02F812430E9F5B701A60115E0C6
:1014B00076956795579547951A95D1F7342F3F71D3
:1014C000632E0C2D00950F710F5B4BE13417B9F0B3
:1014D000431748F05FE03517A9F067E1361314C0F1
:1014E000F4E06F2E11C08DE1381731F09EE1391311
:1014F0000BC06624639408C0B2E06B2E05C0A3E065
:101500006A2E02C0E5E06E2ED701C6017BE0B695DB
:10151000A795979587957A95D1F7E82FE1707E2E5C
:1015200014E05EC0F5E02F1209C02F81233031F4A2
:101530000F5B66246394680E13E052C0D701C601A6
:1015400088279770AA27BB2781159640A105B1056A
:10155000B1F00C2D0F700F5BD701C601807F99276A
:10156000AA27BB2764E0B695A795979587956A95B6
:10157000D1F766246394680E41E04F831FC0D70102
:10158000C60188279670AA27BB2781159640A1051A
:10159000B10509F054CC0C2D0F700F5BD701C601BB
:1015A000807F9927AA27BB2754E0B695A7959795E2
:1015B00087955A95D1F766246394680ED701C601C2
:1015C0004BE0B695A795979587954A95D1F7682FE3
:1015D0006170762E1F8104C01F81612C00E0712C88
:1015E00080915D0D91E0980F90935D0D1F928F9308
:1015F00083E592E09F938F938CE19DE09F938F937F
:101600000E940CBA6CE17DE089E69DE00E945BB42B
:101610000F900F900F900F900F900F9083E0281273
:1016200012C0143018F46BED7BE01CC0143019F4B8
:1016300063ED7BE017C0153019F46BEC7BE012C052
:1016400062EC7BE00FC095E0291211C0153019F44F
:101650006AEB7BE007C0133019F461EB7BE002C05A
:1016600069EA7BE089E69DE00E9436B458C0A7E0B5
:101670002A1255C06FE97BE089E69DE00E9436B4EE
:10168000153019F46894B3F804C0133011F4689459
:10169000B2F8D501C40124E0B695A7959795879532
:1016A0002A95D1F7BB27BF93AF939F938F938CE578
:1016B00092E09F938F938CE19DE09F938F930E9484
:1016C0000CBA6CE17DE089E69DE00E945BB4282DB8
:1016D000D501C40132E0B695A795979587953A95BF
:1016E000D1F7682E60946824E62DE3706E2E0FB655
:1016F000F894DEBF0FBECDBF133019F4582F5370CE
:10170000652E2370722E61E0621708F467C01530F1
:10171000F1F481E0281301C080E0782E18C01F92F8
:101720000F9386E692E09F938F938CE19DE09F93C9
:101730008F930E940CBA6CE17DE089E69DE00E94E7
:101740005BB40F900F900F900F900F900F901F921F
:101750006F928FE692E09F938F938CE19DE09F9331
:101760008F930E940CBA6CE17DE089E69DE00E94B7
:101770005BB46AE97BE089E69DE00E9436B40F9095
:101780000F900F900F900F900F9081E0381206C0CD
:1017900066E97BE089E69DE00E9436B491E079122B
:1017A00003C062E97BE002C06DE87BE089E69DE072
:1017B0000E9436B489E69DE00E9463B481E0809384
:1017C000430910924209109241090FC011E001C073
:1017D00014E080E000E0712C1F8364CE77247394C2
:1017E000153009F0B4CF712CB2CF27960FB6F8940C
:1017F000DEBF0FBECDBFDF91CF911F910F91FF9044
:10180000EF90DF90CF90BF90AF909F908F907F90A0
:101810006F905F904F903F902F9008952F923F923E
:101820004F925F926F927F928F929F92AF92BF92F0
:10183000CF92DF92EF92FF920F931F93CF93DF939C
:101840002091410930914209C9018F7E8438910568
:1018500021F02A38310509F099C080914A098F306A
:1018600009F4C1C02A38310511F0A0E001C0A6E09A
:1018700080E090E0C12CD12C7601312C212CB0E0FD
:10188000ED01CF5BD64FAD014D5F5F4F1796B901AC
:1018900062507109FE01E80FF91F658406851785FE
:1018A000E485E53108F072C0E4E1E61530F0053179
:1018B00008F06CC01631C0F40DC0E5E16E1609F4F5
:1018C00065C0053108F062C0153108F05FC07724AB
:1018D00073940BC0153108F059C02439310509F053
:1018E00055C03324339401C0712CFA01E80FF91F5D
:1018F000E238F10534F4CC0CDD1CEE1CFF1CC728CB
:1019000002C0220C27288D01080F191F0496FA0126
:10191000E80FF91FE617F7070CF4BCCF4091350923
:1019200050913609609137097091380980913109D9
:1019300090913209A0913309B091340948175907A1
:101940006A077B0729F540903D0950903E09609059
:101950003F09709040098CEB480E82E0581E611CD4
:10196000711C0E9450B0461657066806790680F032
:101970008091390990913A09A0913B09B0913C09B5
:101980008C159D05AE05BF0519F42DC080E0EDC096
:101990008090310990903209A0903309B0903409B9
:1019A0009BE089169104A104B104F9F440903D092B
:1019B00050903E0960903F097090400990ED490EAB
:1019C00097E0591E611C711C0E9450B0641575058A
:1019D0008605970550F48092350990923609A092B9
:1019E0003709B092380981E0C0C0C0923909D0925D
:1019F0003A09E0923B09F0923C0980915D0D91E03B
:101A0000980F90935D0D1F928F9383E592E09F93C3
:101A10008F93CCE1DDE0DF93CF930E940CBABE013F
:101A200089E69DE00E945BB464E87BE089E69DE086
:101A30000E9436B4D701C60126E0B695A7959795C2
:101A400087952A95D1F7BF93AF939F938F9388E89B
:101A500092E09F938F93DF93CF930E940CBABE01C5
:101A600089E69DE00E945BB4D701C6018F7099277B
:101A7000AA27BB270196A11DB11DBF93AF939F93CA
:101A80008F9382E992E09F938F93DF93CF930E948D
:101A90000CBABE0189E69DE00E945BB46FE77BE073
:101AA00089E69DE00E9436B434E0F694E794D7943A
:101AB000C7943A95D1F7E3E0CE22DD248DB79EB7E7
:101AC00046960FB6F8949EBF0FBE8DBF92E0C91622
:101AD000D1041CF0EFEFCE1ADE0A0D381105E4F048
:101AE00081E0381219C01F922F928AE792E09F93EB
:101AF0008F938CE19DE09F938F930E940CBA6CE1D1
:101B00007DE089E69DE00E945BB40F900F900F90FE
:101B10000F900F900F901EC0C114D10419F46AE702
:101B20007BE014C091E0C916D10419F466E77BE0AC
:101B30000DC0E3E0CE16D10419F46EE67BE006C0DA
:101B400084E0C816D10431F467E67BE089E69DE0C5
:101B50000E9436B489E69DE00E9463B481E08093E0
:101B600043091092420910924109DF91CF911F91D0
:101B70000F91FF90EF90DF90CF90BF90AF909F902C
:101B80008F907F906F905F904F903F902F9008952F
:101B90008F929F92AF92BF92CF92DF92EF92FF927D
:101BA0000F931F93CF93DF931F92CDB7DEB7809132
:101BB0004109909142098234910529F084349105BC
:101BC00021F080E080C120E001C022E02F5FC12C25
:101BD000D12C76010297E22FF0E0E817F907D4F450
:101BE000EF5BF64F3185353160F0313350F7328598
:101BF000353138F7CC0CDD1CEE1CFF1C6894C0F8A6
:101C000007C032853431E8F2CC0CDD1CEE1CFF1C21
:101C10002E5FE1CF40913509509136096091370927
:101C2000709138098091310990913209A09133095E
:101C3000B0913409481759076A077B0789F48090E7
:101C40003D0990903E09A0903F09B09040090E9444
:101C500050B086169706A806B90610F081E033C189
:101C6000C114D104E104F10409F4ABCFD701C601DA
:101C70000EE1B695A795979587950A95D1F782308D
:101C800009F09FCF8F2D9927AA27BB273FE7380F51
:101C90003E3308F096CF382F3F70182F177017304B
:101CA00009F48FCF3B3009F48CCF833809F489CF06
:101CB000863809F486CF893809F483CF8C3809F443
:101CC00080CF382F3F7D313909F47BCF843909F437
:101CD00078CF3A3909F475CF3D3909F472CF813A9A
:101CE00009F46FCF843A09F46CCF8A3A09F469CFCA
:101CF0008D3A09F466CF2DE4280F223008F461CF25
:101D0000282F30E0A901A3E055954795AA95E1F762
:101D1000042F0170B4E035952795BA95E1F723704B
:101D2000133009F45BC02330B1F4163019F481E0AC
:101D3000082755C08370813031F0111105C081E052
:101D4000082728E055C024E0123009F44AC01430B6
:101D500009F04EC046C0211114C021E0163049F0F0
:101D6000113039F020E0153021F481E0082725E01A
:101D70003FC08370C1F11230D9F581E008272DE012
:101D800037C02230A1F4163019F481E0082730C0A2
:101D90008370813031F0111105C081E008272AE0FD
:101DA00027C026E0123009F1143011F51EC016309C
:101DB00021F481E0082723E01BC08370813031F0DB
:101DC000111106C081E008272BE012C027E001C0F6
:101DD00021E0123061F0143059F409C0022F20E0E4
:101DE00007C02CE005C029E003C02EE001C02FE0B1
:101DF00080915D0D91E0980F90935D0D1F928F93F0
:101E000083E592E09F938F93FCE1AF2EFDE0BF2E20
:101E1000BF92AF9229830E940CBAB50189E69DE07A
:101E20000E945BB46BE07BE089E69DE00E9436B4E3
:101E3000FF24FF92EF92DF92CF928CE592E09F9386
:101E40008F93BF92AF920E940CBAB50189E69DE0D4
:101E50000E945BB41F9229812F938DE992E09F939A
:101E60008F93BF92AF920E940CBAB50189E69DE0B4
:101E70000E945BB466E07BE089E69DE00E9436B498
:101E80000FB6F894DEBF0FBECDBF133031F462E061
:101E90007BE089E69DE00E9436B4013019F46EEFD4
:101EA0007AE002C069EF7AE089E69DE00E9436B4EC
:101EB00089E69DE00E9463B481E08093430910921B
:101EC0004209109241090F90DF91CF911F910F911C
:101ED000FF90EF90DF90CF90BF90AF909F908F904A
:101EE00008958F929F92AF92BF92CF92DF92EF921E
:101EF000FF920F931F93CF93DF931F92CDB7DEB75F
:101F0000809141099091420982349105C9F084344D
:101F1000910511F080E099C120914B09809145090C
:101F2000289F90011124293B3B40A4F390914C0938
:101F3000989FC0011124893B9B4064F322E001C0BB
:101F400020E042E0420FC12CD12C760130E02F5B23
:101F50003F4F842F90E02817390774F0FC01EF5BA6
:101F6000F64F8185CC0CDD1CEE1CFF1C853110F07A
:101F70006894C0F84E5FEDCF409135095091360915
:101F80006091370970913809809131099091320937
:101F9000A0913309B0913409481759076A077B07A4
:101FA00089F480903D0990903E09A0903F09B0903F
:101FB00040090E9450B086169706A806B90610F090
:101FC00081E043C1C114D104E104F10409F4A2CFBA
:101FD0008F2D9927AA27BB272E2D209528139ACF1E
:101FE0002D2DC094DC1096CF382F3F70807F803726
:101FF00009F440C0803409F421C1803541F08038B3
:1020000069F0803981F040E0803A91F002C043E00D
:1020100032C0803B91F0803EA9F002C044E02BC06A
:10202000803FA9F002C045E026C0803CA9F002C074
:1020300046E021C0803DB1F002C047E01CC08823CB
:1020400099F002C048E017C0803181F002C049E039
:1020500012C0803269F002C04AE00DC0803359F4EA
:102060004FE009C04BE007C04CE005C04DE003C0A5
:102070004EE001C041E0222309F4E2C0203209F41D
:10208000E1C0203149F0203371F0283091F010E0A8
:1020900000E0283299F002C011E006C02831A1F01A
:1020A0002833B9F003C010E002E041C02034B9F099
:1020B00002C011E004C02036B9F003C010E003E014
:1020C00036C02035B9F002C011E004C02037B9F0A5
:1020D00003C010E004E02BC02834B9F002C011E0C6
:1020E00004C02836B9F003C010E005E020C0283550
:1020F000B9F002C011E004C02837B9F003C010E005
:1021000006E015C02838C9F002C011E004C0283923
:10211000B1F003C010E007E00AC0203891F002C01F
:1021200011E004C0203979F002C010E008E034303A
:1021300061F4123050F4085F08C012E005C013E0EB
:1021400003C014E001C015E000E080915D0D91E056
:10215000980F90935D0D1F928F9323E532E03F938C
:102160002F935CE1E52E5DE0F52EFF92EF9249831F
:102170000E940CBAB70189E69DE00E945BB46CED49
:102180007AE089E69DE00E9436B44981842F90E090
:102190008F5B9F4F9F938F9386E692E09F938F93E1
:1021A000FF92EF920E940CBAB70189E69DE00E946F
:1021B0005BB41F920F938FE692E09F938F93FF92F1
:1021C000EF920E940CBAB70189E69DE00E945BB4D1
:1021D00067ED7AE089E69DE00E9436B40FB6F89488
:1021E000DEBF0FBECDBF111103C062ED7AE016C095
:1021F000113019F46EEC7AE011C0123019F466EC6B
:102200007AE00CC0133019F461EC7AE007C01430A6
:1022100019F469EB7AE002C062EB7AE089E69DE0AE
:102220000E9436B489E69DE00E9463B481E0809309
:102230004309109242091092410907C042E01BCFA6
:1022400011E001C010E001E024CF0F90DF91CF91A9
:102250001F910F91FF90EF90DF90CF90BF90AF90C4
:102260009F908F900895CF92DF92EF92FF920F93FD
:102270001F93CF93DF9380914109909142099C0174
:10228000245B31092730310508F02AC1B091450996
:1022900061E0A0E070E0C0E040E050E0C12CD12C53
:1022A00076010297D1E0262F30E0F901EF5BF64F7F
:1022B00028173907E4F52185A13041F02C52293047
:1022C00078F1653608F00CC1A0E02DC02B9F90017D
:1022D00011242F5E3240293F310590F4C13009F4BA
:1022E000FFC021E0711120E0722F4032F0F4CC0CDD
:1022F000DD1CEE1CFF1C213081F06894C0F80DC07D
:10230000CC2381F0403298F4CC0CDD1CEE1CFF1C79
:10231000713011F06894C0F85D274F5FC0E003C0D2
:10232000A1E001C0C1E06F5FBECF21E001C020E0AD
:1023300083858B9FC0011124805B94408D32914036
:1023400008F0CEC05213CCC08601112780915D0DDC
:1023500091E0980F90935D0D1F928F9383E592E02B
:102360009F938F93CCE1DDE0DF93CF930E940CBA73
:10237000BE0189E69DE00E945BB468EA7AE089E6E6
:102380009DE00E9436B4C701AA27BB27BF93AF9335
:102390009F938F938AEA92E09F938F93DF93CF93DB
:1023A0000E940CBABE0189E69DE00E945BB4CD2C70
:1023B000DE2CEF2CFF24DD24DF92CF9281EE92E021
:1023C0009F938F93DF93CF930E940CBABE0189E64F
:1023D0009DE00E945BB41F930F938DE992E09F9361
:1023E0008F93DF93CF930E940CBABE0189E69DE0E4
:1023F0000E945BB463EA7AE089E69DE00E9436B40D
:102400008DB79EB74A960FB6F8949EBF0FBE8DBF8C
:102410000115110539F46EE274E089E69DE00E9431
:102420005BB452C00130110519F46EE97AE005C0C1
:102430000230110539F464E97AE089E69DE00E94F2
:1024400036B442C00330110519F46CE87AE0F5CFD8
:102450000530110519F46FE77AE0EFCF043011056C
:1024600019F460E77AE0E9CF0738110519F465E659
:102470007AE0E3CF0433110519F469E57AE0DDCFA2
:102480000837110519F46BE47AE0D7CF0D35110543
:1024900019F46EE37AE0D1CF1F930F938AE792E0AD
:1024A0009F938F938CE19DE09F938F930E940CBA32
:1024B0006CE17DE089E69DE00E945BB40F900F9097
:1024C0000F900F900F900F9089E69DE00E9463B4EB
:1024D00081E080934309109242091092410901C0A2
:1024E00080E0DF91CF911F910F91FF90EF90DF90EF
:1024F000CF9008958F929F92AF92BF92CF92DF922A
:10250000EF92FF920F931F93CF93DF938091410936
:10251000909142098A32910529F08C9709F072C096
:1025200084E001C082E090914B099F3108F06AC0BD
:1025300020E090E0C12CD12C760141E0E82FF0E0C2
:10254000EF5BF64F31853F3188F0313308F05AC0E8
:1025500032853F3108F056C0CC0CDD1CEE1CFF1C50
:102560006894C0F82C3068F094270BC03B3008F416
:1025700049C032853E3108F445C0CC0CDD1CEE1C50
:10258000FF1C2F5F8E5F8932C8F291113BC0C2FCE5
:1025900039C04091350950913609609137097091E1
:1025A00038098091310990913209A0913309B09195
:1025B0003409481759076A077B0731F580903D09B0
:1025C00090903E09A0903F09B09040098CED880E94
:1025D00085E0981EA11CB11C0E9450B0861697067B
:1025E000A806B90688F08091390990913A09A0911E
:1025F0003B09B0913C098C159D05AE05BF0521F442
:1026000081E0A2C080E0A0C0C0923909D0923A090E
:10261000E0923B09F0923C09D701C60106E0B6956D
:10262000A795979587950A95D1F78370823051F0D9
:10263000813021F0833021F000E005C003E003C0C9
:1026400002E001C001E01C2D1F7312951170C3FE42
:1026500002C01E5F02C0C5FC1C5F80915D0D91E051
:10266000980F90935D0D1F928F9383E592E09F9357
:102670008F93CCE1DDE0DF93CF930E940CBABE01D3
:1026800089E69DE00E945BB460E07AE089E69DE027
:102690000E9436B4CD2CDE2CEF2CFF24DF92CF929B
:1026A00082EB92E09F938F93DF93CF930E940CBABB
:1026B000BE0189E69DE00E945BB41F920F938DE9F5
:1026C00092E09F938F93DF93CF930E940CBABE0149
:1026D00089E69DE00E945BB46BEF79E089E69DE0BE
:1026E0000E9436B48DB79EB742960FB6F8949EBF3F
:1026F0000FBE8DBF111103C066EF79E016C0113017
:1027000019F462EF79E011C0123019F46AEE79E041
:102710000CC0133019F465EE79E007C0143019F4D9
:102720006DED79E002C066ED79E089E69DE00E94FA
:1027300036B489E69DE00E9463B481E0809343094A
:102740001092420910924109DF91CF911F910F9190
:10275000FF90EF90DF90CF90BF90AF909F908F90C1
:102760000895BF92CF92DF92EF92FF920F931F9343
:10277000CF93DF93CDB7DEB72B970FB6F894DEBFBC
:102780000FBECDBF2091410930914209C901849704
:10279000419708F086C0E0904B09D0904C0984E145
:1027A0008E1510F180914D098B32F0F480914E0915
:1027B0008B32D0F480914F098B32B0F48091500964
:1027C0008B3290F4809151098C52813168F4809160
:1027D00052098C52813140F489E180934B098093F6
:1027E0004C09FF24F39401C0F12C80914B098B32EA
:1027F00020F080E090E0DC011AC080914C098B321F
:10280000C0F780914D098B32A0F780914E098B3231
:1028100080F780914F098C52813158F7809150098F
:102820008C52813130F783E090E0A0E0B0E061E0CD
:10283000462F50E042175307F4F4FA01EF5BF64FCE
:1028400041854C3240F04E3308F054C1880F991F37
:10285000AA1FBB1F0EC0453108F44CC1428545512B
:10286000473108F047C16F5F880F991FAA1FBB1F30
:1028700081606F5FDDCF0097A105B10509F43AC112
:102880004B2F5527662777274F70552766277727C1
:102890004E3051056105710531F0E1E0FE1609F495
:1028A0004DC080E02BC1AC01BD011AE07695679563
:1028B000579547951A95D1F78A011F73792F737031
:1028C00020E030E063E0A801022E02C05695479553
:1028D0000A94E2F7437064272E5F3F4F2E30310594
:1028E00091F7761324C0AC01BD01E2E076956795BF
:1028F00057954795EA95D1F7242F2F73B22E30E0E4
:10290000C42EC094EC2DE370CE2EF901A4E0F59511
:10291000E795AA95E1F7CE268370F901F595E7953D
:10292000F595E795E370CE268C1105C00CC021E02B
:10293000F212B7CF03C081E0F812B3CFE0924B0997
:10294000D0924C09AECF92E0B91609F446C0E6E148
:10295000BE1609F445C0BB2009F445C084E0B81692
:1029600009F444C082E090E060E041FD15C0A90197
:10297000082E02C0559547950A94E2F74170660FFC
:10298000642B01968630910591F7262F20952F70A4
:10299000283078F52F5F2DC0A901082E02C055956B
:1029A00047950A94E2F74170660F642B01968630D2
:1029B000910591F789E0E4E0F2E0DE0111960190E3
:1029C0000D928A95E1F76150E1E0F0E0EC0FFD1F18
:1029D000E60FF11D208135E00DC020E031E00AC096
:1029E00020E030E007C020E032E004C020E033E027
:1029F00001C034E080915D0D91E0980F90935D0DE2
:102A00001F928F9383E592E09F938F936CE1E62E64
:102A10006DE0F62EFF92EF922B873A870E940CBA58
:102A2000B70189E69DE00E945BB469EC79E089E634
:102A30009DE00E9436B41F930F9382EB92E09F9328
:102A40008F93FF92EF920E940CBAB70189E69DE046
:102A50000E945BB41F9281E08F938DE992E09F9377
:102A60008F93FF92EF920E940CBAB70189E69DE026
:102A70000E945BB464EC79E089E69DE00E9436B484
:102A80000FB6F894DEBF0FBECDBF3A852B8533233A
:102A900011F0333019F46FEB79E005C0315032306A
:102AA00038F46BEB79E089E69DE00E9436B416C0FD
:102AB0001F922F938AE792E09F938F93FF92EF925A
:102AC0000E940CBA6CE17DE089E69DE00E945BB457
:102AD0000F900F900F900F900F900F9089E69DE050
:102AE0000E9463B481E080934309109242091092DE
:102AF000410904C091E0F912D4CE20CF2B960FB635
:102B0000F894DEBF0FBECDBFDF91CF911F910F9123
:102B1000FF90EF90DF90CF90BF9008953F924F923B
:102B20005F926F927F928F929F92AF92BF92CF925D
:102B3000DF92EF92FF920F931F93CF93DF93CDB766
:102B4000DEB764970FB6F894DEBF0FBECDBF80E14D
:102B5000EDE0F2E0DE01119601900D928A95E1F729
:102B600020914109309142092437310529F022385A
:102B7000310511F080E070C110924A0980E090E0C8
:102B8000C12CD12C7601812C912C5401412C512C3B
:102B90003201FC01EF5BF64F4285403120F441E009
:102BA0005385513108F440E0582F61E0680F6731D8
:102BB00028F4440C551C661C771C442A6AEE650FE9
:102BC000603428F4880C991CAA1CBB1C842A565516
:102BD0005C3128F4CC0CDD1CEE1CFF1CC42A0296D0
:102BE00084379105B1F62238310501F5EFEBF9E0B4
:102BF00010E080E0DF0111979C91913120F091E08D
:102C00002081203108F090E0880F892BDE01119699
:102C100090E02D91281301C0192F9F5F9031C9F7C3
:102C2000329629E0ED3CF20729F701C010E0D3010C
:102C3000C2018E7F9370AA27BB278C339240A105D7
:102C4000B10509F097CF409135095091360960914F
:102C50003709709138098091310990913209A0911A
:102C60003309B0913409481759076A077B0751F5B2
:102C700020913D0930913E0940913F095091400912
:102C800024523A4F4F4F5F4F2C8B398B4A8B5B8BC3
:102C90000E9450B02C8939894A895B8926173707E9
:102CA0004807590778F08091390990913A09A09125
:102CB0003B09B0913C098C159D05AE05BF0511F48B
:102CC00081E0CAC0C0923909D0923A09E0923B092A
:102CD000F0923C09D701C6016AE0B695A795979591
:102CE00087956A95D1F7282F2F702B50BB27AF2DD2
:102CF0009E2D8D2D223078F4282F2170322ED70171
:102D0000C60107E0B695A795979587950A95D1F7DF
:102D1000082F017014C0B701A601F9E076956795F8
:102D200057954795FA95D1F7242F2170322E877049
:102D3000833020F481E0382601E001C000E02C2D32
:102D40002F7340FC206880915D0D91E0980F909367
:102D50005D0D1F928F9383E592E09F938F93ECE13B
:102D6000EE2EEDE0FE2EFF92EF922C8B0E940CBA1D
:102D7000B70189E69DE00E945BB46BEB72E089E6E7
:102D80009DE00E945BB4BF92AF929F928F9288E8C1
:102D900092E09F938F93FF92EF920E940CBAB7013B
:102DA00089E69DE00E945BB41F922C892F932DE948
:102DB00032E03F932F93FF92EF920E940CBAB7013B
:102DC00089E69DE00E945BB466EB79E089E69DE0D0
:102DD0000E9436B40FB6F894DEBF0FBECDBF80910F
:102DE00041099091420982389105B1F41F921F93D5
:102DF0008AE792E09F938F93FF92EF920E940CBA22
:102E0000B70189E69DE00E945BB40F900F900F9090
:102E10000F900F900F9011C0013031F462EB79E008
:102E200089E69DE00E9436B491E0391212C06DEA45
:102E300079E089E69DE00E9436B489E69DE00E9433
:102E400063B481E0809343091092420910924109D2
:102E500003C069EA79E0EDCF64960FB6F894DEBF5F
:102E60000FBECDBFDF91CF911F910F91FF90EF90DB
:102E7000DF90CF90BF90AF909F908F907F906F909A
:102E80005F904F903F9008958F929F92AF92BF9224
:102E9000CF92DF92EF92FF920F931F93CF93DF9326
:102EA000CDB7DEB728970FB6F894DEBF0FBECDBF03
:102EB00080914109909142099C01245531092730A4
:102EC000310510F080E041C12DEA280FE22FF0E03B
:102ED000213039F0DF01AF5BB64F18962C912B31C2
:102EE00088F7EF5BF64F21852456253158F7228568
:102EF0002456253138F720E030E070E060E0A0EBA8
:102F0000A80F422F440F4A0F50E0481759074CF5BD
:102F1000FA01EF5BF64F40854531A0F64185E62F7B
:102F2000F0E04A3148F441E050E04C0F5D1FE40FFF
:102F3000F51F4081440F09C041E050E04C0F5D1F78
:102F4000E40FF51F4081440F416040837F5F78307C
:102F500028F06F5F663008F0B5CF70E02F5F3F4F0D
:102F6000D0CF1A810D81812E912C982C8824800E2F
:102F7000911CAA2497FCA094BA2C40913509509139
:102F80003609609137097091380980913109909123
:102F90003209A0913309B0913409481759076A07DB
:102FA0007B0721F5C0903D09D0903E09E0903F0994
:102FB000F09040095CEDC50E55E0D51EE11CF11CFA
:102FC0000E9450B0C616D706E806F90678F0809140
:102FD000390990913A09A0913B09B0913C098815B3
:102FE0009905AA05BB0511F481E0AFC080923909AB
:102FF00090923A09A0923B09B0923C09F980F09472
:103000008B81F8125FCFE12EE0948C81E8125ACFC9
:103010000F700730B1F00830B1F00B30B1F0043070
:10302000B1F00330B1F00C30B1F00D30B1F002303E
:10303000B9F00530C9F00A3009F044CF41E020E092
:1030400015C041E00BC041E00CC042E007C042E0C7
:1030500008C043E003C043E004C044E021E002C0F4
:1030600044E020E030E003C041E021E031E0809125
:103070005D0D91E0980F90935D0D1F928F9383E506
:1030800092E09F938F930CE11DE01F930F9328878D
:103090003F834E830E940CBAB80189E69DE00E94EE
:1030A0005BB460EA79E089E69DE00E9436B41F9245
:1030B000EF921F92FF9285EC92E09F938F931F9364
:1030C0000F930E940CBAB80189E69DE00E945BB4A0
:1030D0001F924E814F938DE992E09F938F931F93A0
:1030E0000F930E940CBAB80189E69DE00E945BB480
:1030F0006BE979E089E69DE00E9436B40FB6F8945A
:10310000DEBF0FBECDBF3F812885313039F467E97E
:1031100079E089E69DE00E9436B42885211112C02D
:1031200062E979E089E69DE00E9436B489E69DE097
:103130000E9463B481E08093430910924209109287
:10314000410903C06EE879E0EDCF28960FB6F894F8
:10315000DEBF0FBECDBFDF91CF911F910F91FF90CA
:10316000EF90DF90CF90BF90AF909F908F90089599
:10317000CF92DF92EF92FF920F931F93CF93DF9343
:10318000CDB7DEB728970FB6F894DEBF0FBECDBF20
:1031900080914109909142099C012D7F2435310590
:1031A00011F080E0F7C01E828635910531F48091E0
:1031B0004C098638B0F354E001C052E060E040E0D2
:1031C000252F30E0235B3F4F852F90E028173907EC
:1031D0003CF1FC01EF5BF64F8285813110F7818570
:1031E0008F3250F0E1E0F0E0EC0FFD1FE40FF11D35
:1031F0008081880F81600AC0803198F2E1E0F0E0C0
:10320000EC0FFD1FE40FF11D8081880F80836F5F3D
:10321000683021F44F5F463020F660E05E5FD4CF27
:1032200040913509509136096091370970913809FC
:103230008091310990913209A0913309B0913409FC
:10324000481759076A077B0789F4C0903D09D09059
:103250003E09E0903F09F09040090E9450B0C61628
:10326000D706E806F90610F081E094C0F9809A814B
:103270002F2D207F892F807F281393CF8F2D80952E
:103280008F709F7089138DCF2B818C81809528132F
:1032900088CF80E8820F8230B0F08CE7820F8330D5
:1032A00090F02C3881F0263C71F0223070F08CEFD9
:1032B000820F833050F02C3041F0263231F026342A
:1032C00009F06FCF02C030E001C031E080915D0DA8
:1032D00091E0980F90935D0D1F928F9383E592E09C
:1032E0009F938F930CE11DE01F930F932F833887DB
:1032F0000E940CBAB80189E69DE00E945BB468EDBB
:1033000078E089E69DE00E9436B48D811F928F930C
:103310001F92FF9285EC92E09F938F931F930F93E0
:103320000E940CBAB80189E69DE00E945BB42F812F
:103330002F701F922F938DE992E09F938F931F938D
:103340000F930E940CBAB80189E69DE00E945BB41D
:1033500063ED78E089E69DE00E9436B40FB6F894FC
:10336000DEBF0FBECDBF3885311103C06EEC78E0F3
:1033700002C06AEC78E089E69DE00E9436B489E6F6
:103380009DE00E9463B481E080934309109242095A
:103390001092410928960FB6F894DEBF0FBECDBF3C
:1033A000DF91CF911F910F91FF90EF90DF90CF9021
:1033B00008958F929F92AF92BF92CF92DF92EF9239
:1033C000FF920F931F93CF93DF931F92CDB7DEB77A
:1033D00080914109909142098E33910539F09C0109
:1033E0002D7F2034310511F080E00FC122E4281B2D
:1033F000223038F0243048F4C12CD12C7601C3940B
:1034000009C0C12CD12C760105C053E0C52ED12CAA
:10341000E12CF12C22E00197E22FF0E0E817F90708
:10342000C4F4EF5BF64F31853C3050F030853C30D2
:10343000D8F6CC0CDD1CEE1CFF1C6894C0F807C04D
:1034400030853B3088F2CC0CDD1CEE1CFF1C2E5F5F
:10345000E3CF409135095091360960913709709159
:1034600038098091310990913209A0913309B091C6
:103470003409481759076A077B0789F480903D098A
:1034800090903E09A0903F09B09040090E9450B032
:1034900086169706A806B90610F081E0B6C0C114DA
:1034A000D104E104F10409F49FCFD701C60104E07F
:1034B000B695A795979587950A95D1F78F708E3019
:1034C00009F092CF460157011CE0B694A794979457
:1034D00087941A95D1F7882D8F708F3009F084CF9B
:1034E000BB27AF2D9E2D8D2D282F2C252F702950D9
:1034F000223008F079CF482F4F70242F30E0A3E01E
:1035000035952795AA95E1F7122F582F5370533010
:1035100021F011E0122750E001C040E042FD06C05A
:1035200041FD06C040FF06C003E005C001E003C046
:1035300002E001C000E080915D0D91E0980F909352
:103540005D0D1F928F9323E532E03F932F93FCE1B3
:10355000EF2EFDE0FF2EFF92EF9259830E940CBAEE
:10356000B70189E69DE00E945BB469EA78E089E6EC
:103570009DE00E9436B4BF92AF929F928F922CE54D
:1035800032E03F932F93FF92EF920E940CBAB70163
:1035900089E69DE00E945BB41F920F932DE932E013
:1035A0003F932F93FF92EF920E940CBAB70189E6E6
:1035B0009DE00E945BB464EA78E089E69DE00E94A9
:1035C00036B40FB6F894DEBF0FBECDBF598153306D
:1035D00031F460EA78E089E69DE00E9436B411306B
:1035E00019F46CE978E002C067E978E089E69DE0CB
:1035F0000E9436B489E69DE00E9463B481E0809326
:10360000430910924209109241090F90DF91CF9126
:103610001F910F91FF90EF90DF90CF90BF90AF90F0
:103620009F908F900895AF92BF92CF92DF92EF92CA
:10363000FF920F931F93CF93DF9300D01F921F929F
:10364000CDB7DEB780914109909142099C012A547F
:1036500031092530310510F080E0BDC120914A09C3
:103660002E32D1F31D828E34910549F08C349105B0
:1036700041F480914C09833320F422E003C024E01C
:1036800001C020E030E080E090E0E12CF12CB12C92
:10369000D9011296A901465B5F4F2F5B364FBD01E2
:1036A000680F791F461757078CF1F901E80FF91FCA
:1036B0006485633188F66385653678F063586331D5
:1036C00010F4BB24B394E1E0F0E0EC0FFD1FEF0D2C
:1036D000F11D6081660F61600CC06353643108F0B6
:1036E000BBCFE1E0F0E0EC0FFD1FEF0DF11D6081BD
:1036F000660F6083E39468E0E61206C0F39465E029
:103700006F1508F4A9CFE12C0296C9CF4091350975
:1037100050913609609137097091380980913109CB
:1037200090913209A0913309B09134094817590793
:103730006A077B07B9F4C0903D09D0903E09E0903C
:103740003F09F090400988EBC80E8BE0D81EE11CC1
:10375000F11C0E9450B0C616D706E806F90610F014
:1037600081E039C1D980EA81B11040C0CD2C9E2FB3
:103770009B7FD92EE3FF70CFE370E33009F46CCF69
:10378000EC808B810E2D02950F7010E020E1829F5E
:10379000000D111D112413FF0CC080E090E1801B6F
:1037A000910B813931E093070CF056CF8C011068F2
:1037B00005C0013961E016070CF04ECF80E1E89EAC
:1037C00070011124FF248D8190E0959587958F706D
:1037D000E80EF11C94E6E916F1040CF03DCFA12CA3
:1037E00024E1E216F1040CF46FC071C06E2F6F700B
:1037F00070E0AB814A2F50E0FC818D2D90E0B4E069
:1038000095958795BA95E1F72D2D2F70820F911D13
:103810002E2F30E014E0359527951A95E1F7820FA9
:10382000931F860F971F9A0104E0359527950A95F7
:10383000E1F7820F931FAF708A0F911D2F2F30E099
:10384000A4E035952795AA95E1F7820F931F2F2FB6
:103850002E70820F911D8F7399270F2F017010E02A
:10386000B5E0000F111FBA95E1F72D81020F111D70
:103870008017910709F0F0CE3E2F3370C32EAE2E85
:10388000AA1CAA24AA1CE073E03309F4E5CE162F83
:103890000027040F151F011568E0160744F080E0AB
:1038A00090E19C01201B310B8901106805C0013893
:1038B00032E013070CF0D0CEF6958CEE8F0F8734E4
:1038C00018F4EF2EF12C03C0E6E6EE2EF12C8091D9
:1038D0005D0D91E0980F90935D0D1F928F9383E59E
:1038E00092E09F938F938CE19DE09F938F930E9432
:1038F0000CBA6CE17DE089E69DE00E945BB40F901C
:103900000F900F900F900F900F90B11003C06FEDBC
:1039100077E002C060ED77E089E69DE00E9436B472
:103920001F92DF921F92CF9285EC92E09F938F932C
:103930007CE1C72E7DE0D72EDF92CF920E940CBA99
:10394000B60189E69DE00E945BB41F930F9380EC63
:1039500093E09F938F93DF92CF920E940CBAB601AF
:1039600089E69DE00E945BB40FB6F894DEBF0FBEFF
:10397000CDBF93E6E916F104ACF4FF92EF9282ED2D
:1039800092E09F938F93DF92CF920E940CBAB60180
:1039900089E69DE00E945BB40F900F900F900F900E
:1039A0000F900F9021E0B2120BC0A11003C068EC81
:1039B00077E002C06FEB77E089E69DE00E9436B4C5
:1039C00089E69DE00E9463B481E0809343091092F0
:1039D0004209109241090F900F900F900F900F9095
:1039E000DF91CF911F910F91FF90EF90DF90CF90DB
:1039F000BF90AF900895AF92BF92CF92DF92EF92B7
:103A0000FF920F931F93CF93DF93CDB7DEB7299724
:103A10000FB6F894DEBF0FBECDBF809141099091E3
:103A200042098639910529F08439910521F080E019
:103A3000F3C092E001C090E0E92FF0E0EF5BF64FB9
:103A400084858035A0F38585803588F38981880F4A
:103A5000816089839A5F31E020E0E92FF0E0EF5B3D
:103A6000F64F8185E22FF0E041E050E04C0F5D1F02
:103A7000E40FF51F813518F08081880F03C0808125
:103A8000880F816080833F5F383021F42F5F2830BA
:103A900020F430E09E5F963900F389810D81BE806D
:103AA000AF801A8118279B8119279C81192710271D
:103AB0001B251A2598851913BACF80278F3F09F047
:103AC000B6CF409135095091360960913709709110
:103AD00038098091310990913209A0913309B09150
:103AE0003409481759076A077B07B1F4C0903D09AC
:103AF000D0903E09E0903F09F090400958EEC50E85
:103B000053E0D51EE11CF11C0E9450B0C616D7062A
:103B1000E806F90608F07FC02A2D2770812F90E073
:103B200034E0959587953A95E1F73AE0389F700132
:103B3000399FF00C11241F70E10EF11C94E6299FAF
:103B4000E00CF11C112449E5E41642E0F40608F00B
:103B50006ECFB3FE02C06894F7F880915D0D91E0DE
:103B6000980F90935D0D1F928F9383E592E09F9342
:103B70008F934CE1C42E4DE0D42EDF92CF920E9461
:103B80000CBAB60189E69DE00E945BB465EE76E072
:103B900089E69DE00E9436B48B2D83701F928F932F
:103BA0008CED92E09F938F93DF92CF920E940CBA9C
:103BB000B60189E69DE00E945BB4FF92EF9280EC33
:103BC00093E09F938F93DF92CF920E940CBAB6013D
:103BD00089E69DE00E945BB41F920F938CEE93E008
:103BE0009F938F93DF92CF920E940CBAB60189E621
:103BF0009DE00E945BB489E69DE00E9463B481E091
:103C00008093430910924209109241090FB6F8942B
:103C1000DEBF0FBECDBF81E029960FB6F894DEBFA0
:103C20000FBECDBFDF91CF911F910F91FF90EF900D
:103C3000DF90CF90BF90AF900895CF92DF92EF9238
:103C4000FF92CF93DF938091410990914209843391
:103C5000910529F0C69709F08DC082E001C080E08F
:103C600044E0480FC12CD12C760190E0C296242F5D
:103C700030E082179307F4F0F901EF5BF64F2085EF
:103C8000223208F077C02185233450F0253608F021
:103C900071C0CC0CDD1CEE1CFF1C6894C0F808C081
:103CA0002152223108F066C0CC0CDD1CEE1CFF1C3A
:103CB0004E5FDDCFC114D104E104F10409F45AC010
:103CC0002FEFC216D206E206F10409F453C0D70161
:103CD000C601AA27BB278F3F9F4FA105B10509F455
:103CE00049C080915D0D91E0980F90935D0D1F92FA
:103CF0008F9383E592E09F938F93CCE1DDE0DF9398
:103D0000CF930E940CBABE0189E69DE00E945BB48D
:103D10006DEB71E089E69DE00E9436B4FF92EF9270
:103D2000DF92CF928CE592E09F938F93DF93CF93B6
:103D30000E940CBABE0189E69DE00E945BB46EEA67
:103D400071E089E69DE00E9436B489E69DE00E941C
:103D500063B481E0809343091092420910924109B3
:103D60008DB79EB70E960FB6F8949EBF0FBE8DBF4F
:103D700081E001C080E0DF91CF91FF90EF90DF9074
:103D8000CF9008958F929F92AF92BF92CF92DF9281
:103D9000EF92FF92CF93DF93809141099091420976
:103DA000869711F080E0B3C080914A098335D1F73E
:103DB00010924A0980914B098137A0F380914C09F8
:103DC000813780F3EDE4F9E0C12CD12C760129E0B4
:103DD000E137F207C9F081919081833358F0933332
:103DE00008F78A34F8F6CC0CDD1CEE1CFF1C689436
:103DF000C0F8EDCF9233B0F284518E3098F6CC0CEF
:103E0000DD1CEE1CFF1CE3CF4091350950913609B3
:103E10006091370970913809809131099091320988
:103E2000A0913309B0913409481759076A077B07F5
:103E3000B1F480903D0990903E09A0903F09B09068
:103E4000400980ED880E87E0981EA11CB11C0E94DD
:103E500050B086169706A806B90608F057C0C114D8
:103E6000D104E104F10409F49DCFD701C601AA27CA
:103E7000BB278F3F9F4FA105B10509F493CF8091D8
:103E80005D0D91E0980F90935D0D1F928F9383E5E8
:103E900092E09F938F93CCE1DDE0DF93CF930E947C
:103EA0000CBABE0189E69DE00E945BB465E671E054
:103EB00089E69DE00E9436B4FF92EF92DF92CF92A6
:103EC00082EB92E09F938F93DF93CF930E940CBA83
:103ED000BE0189E69DE00E945BB466E571E089E67B
:103EE0009DE00E9436B489E69DE00E9463B481E0C3
:103EF0008093430910924209109241098DB79EB7F1
:103F00000E960FB6F8949EBF0FBE8DBF81E0DF9175
:103F1000CF91FF90EF90DF90CF90BF90AF909F90A8
:103F20008F9008958F929F92AF92BF92CF92DF921F
:103F3000EF92FF920F931F93CF93DF9380914109EC
:103F400090914209C29709F076C080914A098F3357
:103F500009F471C080917B098E3008F06CC0ECE4EC
:103F6000F9E0ABE4B9E0C0E0C12CD12C760180814E
:103F70008E3070F09C919E3008F05DC08F3108F05B
:103F80005AC0CC0CDD1CEE1CFF1C6894C0F811C09C
:103F9000833008F450C08C918D3020F4C11105C0DD
:103FA000C1E003C0C13009F446C0CC0CDD1CEE1CDE
:103FB000FF1C3296129689E0EC37F807C1F6409163
:103FC000350950913609609137097091380980910F
:103FD000310990913209A0913309B0913409481701
:103FE00059076A077B0789F480903D0990903E0944
:103FF000A0903F09B09040090E9450B086169706E5
:10400000A806B90610F081E0A3C0C114D104E104F0
:10401000F10489F046015701D4E0B694A79497942F
:104020008794DA95D1F79FE0A922BB2481149104EB
:10403000A104B10411F480E08BC08FEF88169806BC
:104040008FE0A806B104B9F3C13011F46894A7F861
:10405000D701C601B695A79597958795182F177024
:104060000C2D0170133039F3143009F413E08091F2
:104070005D0D91E0980F90935D0D1F928F9323E556
:1040800032E03F932F93CCE1DDE0DF93CF930E94AA
:104090000CBABE0189E69DE00E945BB46BE57BE053
:1040A00089E69DE00E9436B4BF92AF929F928F92B4
:1040B0002CE532E03F932F93DF93CF930E940CBA0D
:1040C000BE0189E69DE00E945BB41F921F932DE91B
:1040D00032E03F932F93DF93CF930E940CBABE013F
:1040E00089E69DE00E945BB466E57BE089E69DE0A1
:1040F0000E9436B48DB79EB744960FB6F8949EBF13
:104100000FBE8DBF153070F062E57BE089E69DE063
:104110000E9436B4011103C06DE47BE00AC069E47B
:104120007BE007C0013019F464E47BE002C060E486
:104130007BE089E69DE00E9436B489E69DE00E941E
:1041400063B481E0809343091092420910924109BF
:10415000DF91CF911F910F91FF90EF90DF90CF9063
:10416000BF90AF909F908F9008954F925F926F9203
:104170007F928F929F92AF92BF92CF92DF92EF92F7
:10418000FF920F931F93CF93DF93809141099091FA
:1041900042098A36910509F061C0ECE4F9E081E05A
:1041A000812C912C5401C12CD12C760120819FEFC0
:1041B000980F213160F0903228F4CC0CDD1CEE1CFD
:1041C000FF1C14C0880C991CAA1CBB1C0FC0903289
:1041D00038F4CC0CDD1CEE1CFF1C6894C0F806C043
:1041E000880C991CAA1CBB1C689480F832968F5FBF
:1041F0008533E1F68F2D8E3F29F0823379F5C1E0CA
:10420000D0E002C0C0E0D0E04091350950913609BD
:104210006091370970913809809131099091320984
:10422000A0913309B0913409481759076A077B07F1
:1042300089F440903D0950903E0960903F0970908C
:1042400040090E9450B0461657066806790610F0DD
:1042500081E0ADC01A2D1F70143010F080E0A7C0AF
:10426000D701C60124E1B695A795979587952A951C
:10427000D1F7282F2F70722E4601570134E0B694E3
:10428000A794979487943A95D1F70C2D0F7081E4F9
:10429000780E083051F0043051F0023051F0013006
:1042A00051F0033049F405E007C001E005C002E029
:1042B00003C003E001C004E080915D0D91E0980F20
:1042C00090935D0D1F928F9383E592E09F938F9360
:1042D0002CE13DE03F932F930E940CBA6CE17DE00E
:1042E00089E69DE00E945BB40F900F900F900F90B5
:1042F0000F900F90CD2B19F469E37BE002C060E3CF
:104300007BE089E69DE00E9436B49F928F9222EB7B
:1043100032E03F932F93CCE1DDE0DF93CF930E9417
:104320000CBABE0189E69DE00E945BB41F920F9318
:104330001F927F9287EE92E09F938F93DF93CF93AC
:104340000E940CBABE0189E69DE00E945BB46BE25C
:104350007BE089E69DE00E9436B48DB79EB70E964D
:104360000FB6F8949EBF0FBE8DBF111103C067E258
:104370007BE00EC0113019F462E27BE009C012301C
:1043800019F46BE17BE004C0133031F463E17BE0AE
:1043900089E69DE00E9436B489E69DE00E9463B400
:1043A00081E0809343091092420910924109DF9104
:1043B000CF911F910F91FF90EF90DF90CF90BF9022
:1043C000AF909F908F907F906F905F904F900895E7
:1043D0008F929F92AF92BF92CF92DF92EF92FF9215
:1043E0000F931F93CF93DF938091410990914209DE
:1043F0008036910509F060C0EBE4F9E080E090E0E0
:10440000C0E0C12CD12C760120E030813E30B0F0EC
:10441000883018F4220F216021C0803238F4CC0C8F
:10442000DD1CEE1CFF1C6894C0F818C0883218F41C
:10443000CC0FC16013C0990F916010C0883010F488
:10444000220F0CC0803228F4CC0CDD1CEE1CFF1CAB
:1044500005C0883210F4CC0F01C0990F32968F5FDF
:10446000803399F6253541F59F3F31F54091350967
:10447000509136096091370970913809809131095E
:1044800090913209A0913309B09134094817590726
:104490006A077B0799F480903D0990903E09A090AF
:1044A0003F09B09040090E9450B086169706A806B2
:1044B000B90620F081E079C080E077C0AC2EB12C45
:1044C000C50195958795082F07701C2F1170C0FDA9
:1044D0000F5F80915D0D91E0980F90935D0D1F929D
:1044E0008F9383E592E09F938F93CCE1DDE0DF93A0
:1044F000CF930E940CBABE0189E69DE00E945BB496
:104500006FEE7AE089E69DE00E9436B4FF24FF92C8
:10451000EF92DF92CF928CE592E09F938F93DF939F
:10452000CF930E940CBABE0189E69DE00E945BB465
:104530001F920F93C501F4E095958795FA95E1F7E1
:104540008F5B1F928F9387EE92E09F938F93DF9301
:10455000CF930E940CBABE0189E69DE00E945BB435
:104560006AEE7AE089E69DE00E9436B48DB79EB788
:1045700046960FB6F8949EBF0FBE8DBF111112C0A4
:1045800065EE7AE089E69DE00E9436B489E69DE01A
:104590000E9463B481E08093430910924209109213
:1045A000410903C061EE7AE0EDCFDF91CF911F9119
:1045B0000F91FF90EF90DF90CF90BF90AF909F90C2
:1045C0008F9008954F925F926F927F928F929F92F9
:1045D000AF92BF92CF92DF92EF92FF920F931F9311
:1045E000CF93DF93809141099091420984369105E0
:1045F00009F0ADC020914B0940914509249F9001DD
:104600001124203D37400CF4A2C0EDE4F9E051E064
:10461000C12CD12C7601812C912C5401DF011197F2
:104620008C91849FC0011124853F21E09207F4F012
:10463000813293400CF08BC02081249F9001112483
:10464000213931400CF083C08FEF850F883138F469
:10465000880C991CAA1CBB1C689480F820C0CC0C48
:10466000DD1CEE1CFF1C6894C0F819C08D3291400F
:104670000CF06DC02081249F90011124203931401D
:104680000CF465C08FEF850F883128F4880C991CD5
:10469000AA1CBB1C04C0CC0CDD1CEE1CFF1C5F5F05
:1046A0003296513309F0BACF2091AC09249F900182
:1046B00011242D3231400CF04AC08091AD09849F05
:1046C000C00111248D3291400CF041C0D1103FC087
:1046D000E1103DC08C2D8F738130C9F540913509B3
:1046E00050913609609137097091380980913109EC
:1046F00090913209A0913309B091340948175907B4
:104700006A077B0731F540903D0950903E09609063
:104710003F09709040098CED480E85E0581E611CE1
:10472000711C0E9450B0461657066806790688F03C
:104730008091390990913A09A0913B09B0913C09C7
:104740008C159D05AE05BF0521F481E0ACC080E06D
:10475000AAC0C0923909D0923A09E0923B09F0927E
:104760003C09D501C401C3E0B695A79597958795F7
:10477000CA95D1F78370823051F0813021F08330B7
:1047800021F001E405C003E403C004E401C002E435
:10479000D701C601D7E0B695A79597958795DA9585
:1047A000D1F7182F117080915D0D91E0980F9093C3
:1047B0005D0D1F928F9383E592E09F938F93CCE1E1
:1047C000DDE0DF93CF930E940CBABE0189E69DE045
:1047D0000E945BB461E37AE089E69DE00E9436B412
:1047E000D501C40125E0B695A795979587952A959B
:1047F000D1F7BB27BF93AF939F938F938CE592E044
:104800009F938F93DF93CF930E940CBABE0189E6EA
:104810009DE00E945BB4882D83708F5F1F928F9301
:104820001F920F9387EE92E09F938F93DF93CF9326
:104830000E940CBABE0189E69DE00E945BB46CE266
:104840007AE089E69DE00E9436B436E0F694E7947B
:10485000D794C7943A95D1F78DB79EB746960FB6C1
:10486000F8949EBF0FBE8DBFC0FE06C068E27AE01E
:1048700089E69DE00E9436B4111112C063E27AE02D
:1048800089E69DE00E9436B489E69DE00E9463B40B
:1048900081E080934309109242091092410903C0BC
:1048A0006FE17AE0EDCFDF91CF911F910F91FF90F3
:1048B000EF90DF90CF90BF90AF909F908F907F90C0
:1048C0006F905F904F9008958F929F92AF92BF929A
:1048D000CF92DF92EF92FF921F93CF93DF9380915D
:1048E0004109909142094A9709F05CC080914A09B8
:1048F000883409F457C080914B098B3108F052C0BD
:10490000EDE4F9E0C12CD12C7601DF0111978C91F7
:104910008E3060F08B3108F045C080818E3008F019
:1049200041C0CC0CDD1CEE1CFF1C0BC08430D0F150
:1049300080818D30B8F1CC0CDD1CEE1CFF1C68941E
:10494000C0F8329689E0E536F807F9F64091350966
:104950005091360960913709709138098091310979
:1049600090913209A0913309B09134094817590741
:104970006A077B07C9F480903D0990903E09A0909A
:104980003F09B090400990ED890E97E0991EA11C57
:10499000B11C0E9450B086169706A806B90620F0F2
:1049A00081E06EC080E06CC01C2D137080915D0DA5
:1049B00091E0980F90935D0D1F928F9383E592E0A5
:1049C0009F938F93CCE1DDE0DF93CF930E940CBAED
:1049D000BE0189E69DE00E945BB467E879E089E664
:1049E0009DE00E9436B48CEFC8228FE0D822EE24DE
:1049F000FF24FF92EF92DF92CF9282EB92E09F939F
:104A00008F93DF93CF930E940CBABE0189E69DE09D
:104A10000E945BB46CE779E089E69DE00E9436B4C1
:104A200067E779E089E69DE00E9436B48DB79EB7CE
:104A30000E960FB6F8949EBF0FBE8DBF111103C026
:104A400062E779E00EC0133019F46EE679E009C030
:104A5000113019F469E679E004C0123031F461E6EE
:104A600079E089E69DE00E9436B489E69DE00E94E7
:104A700063B481E080934309109242091092410986
:104A8000DF91CF911F91FF90EF90DF90CF90BF907B
:104A9000AF909F908F9008958F929F92AF92BF9208
:104AA000CF92DF92EF92FF921F93CF93DF9380918B
:104AB000410990914209C49709F060C0ECE4F9E023
:104AC000C12CD12C7601DF0111978C91853148F0F2
:104AD0008352893008F052C0CC0CDD1CEE1CFF1C48
:104AE00009C08C3008F44AC0CC0CDD1CEE1CFF1C45
:104AF0006894C0F88081843608F440C0329689E01A
:104B0000E038F80701F74091350950913609609176
:104B10003709709138098091310990913209A0913B
:104B20003309B0913409481759076A077B07B9F46C
:104B300080903D0990903E09A0903F09B0904009B7
:104B400090ED890E97E0991EA11CB11C0E9450B0F7
:104B500086169706A806B90610F081E095C0C11424
:104B6000D104E104F10451F0D701C601807B9927FB
:104B7000AA27BB27892B8A2B8B2B11F080E084C0BE
:104B8000D701C60116E0B695A795979587951A9512
:104B9000D1F7182F117080915D0D91E0980F9093CF
:104BA0005D0D1F928F9383E592E09F938F93CCE1ED
:104BB000DDE0DF93CF930E940CBABE0189E69DE051
:104BC0000E945BB469E579E089E69DE00E9436B415
:104BD000D701C6012CE0B695A795979587952A959C
:104BE000D1F79F938F9382EB92E09F938F93DF9304
:104BF000CF930E940CBABE0189E69DE00E945BB48F
:104C00008D2D83701F928F932DE932E03F932F9368
:104C1000DF93CF930E940CBABE0189E69DE00E940B
:104C20005BB464E579E089E69DE00E9436B43AE041
:104C3000F694E794D794C7943A95D1F78DB79EB779
:104C400042960FB6F8949EBF0FBE8DBFC0FE06C041
:104C500060E579E089E69DE00E9436B4111103C059
:104C60006CE479E002C067E479E089E69DE00E94A7
:104C700036B489E69DE00E9463B481E080934309E5
:104C80001092420910924109DF91CF911F91FF903C
:104C9000EF90DF90CF90BF90AF909F908F9008954E
:104CA0008F929F92AF92BF92CF92DF92EF92FF923C
:104CB0000F931F93CF93DF93809141099091420905
:104CC000C29709F069C080914A09833109F064C034
:104CD00010924A09EEE4F9E0C12CD12C7601DF01F3
:104CE00011978C91853170F09081953108F054C006
:104CF0008C3208F051C0CC0CDD1CEE1CFF1C6894FB
:104D0000C0F80BC0873008F447C08081843108F4B4
:104D100043C0CC0CDD1CEE1CFF1C329629E0EE37A4
:104D2000F207E9F64091350950913609609137094B
:104D3000709138098091310990913209A09133091D
:104D4000B0913409481759076A077B0789F48090A6
:104D50003D0990903E09A0903F09B09040090E9403
:104D600050B086169706A806B90610F081E097C0E5
:104D7000C114D104E104F10479F0D701C60174E053
:104D8000B695A795979587957A95D1F7AF70BB277C
:104D90000097A105B10511F480E081C08F3F9F4FBE
:104DA000AF40B105C9F3D701C601B695A795979550
:104DB0008795082F07701C2D117080915D0D91E073
:104DC000980F90935D0D1F928F9323E532E03F93F0
:104DD0002F93CCE1DDE0DF93CF930E940CBABE01AC
:104DE00089E69DE00E945BB46FE379E089E69DE08F
:104DF0000E9436B4FF24FF92EF92DF92CF922CE50F
:104E000032E03F932F93DF93CF930E940CBABE0101
:104E100089E69DE00E945BB41F920F932DE932E07A
:104E20003F932F93DF93CF930E940CBABE0189E684
:104E30009DE00E945BB46AE379E089E69DE00E9410
:104E400036B48DB79EB744960FB6F8949EBF0FBE8A
:104E50008DBF053070F066E379E089E69DE00E9441
:104E600036B4111103C061E379E00AC06DE279E064
:104E700007C0113019F468E279E002C064E279E019
:104E800089E69DE00E9436B489E69DE00E9463B405
:104E900081E0809343091092420910924109DF9109
:104EA000CF911F910F91FF90EF90DF90CF90BF9027
:104EB000AF909F908F9008958F929F92AF92BF92E4
:104EC000CF92DF92EF92FF92CF93DF9380914109CF
:104ED000909142098435910509F05CC08091660982
:104EE000813C08F457C080918209813C08F452C08B
:104EF00080919E09813C08F44DC0ABE4B9E0EAE43E
:104F0000F9E0C12CD12C760181E09C91913268F4BA
:104F1000813021F090819E529531E0F5CC0CDD1C62
:104F2000EE1CFF1C6894C0F80AC0813021F090810B
:104F30009E51913178F5CC0CDD1CEE1CFF1C8E5F70
:104F4000129632968D3109F7409135095091360904
:104F50006091370970913809809131099091320937
:104F6000A0913309B0913409481759076A077B07A4
:104F700099F480903D0990903E09A0903F09B0902F
:104F800040090E9450B086169706A806B90620F080
:104F900081E077C080E075C080915D0D91E0980F51
:104FA00090935D0D1F928F9383E592E09F938F9373
:104FB000CCE1DDE0DF93CF930E940CBABE0189E61D
:104FC0009DE00E945BB464EC78E089E69DE00E947D
:104FD00036B4D701C60129E0B695A7959795879570
:104FE0002A95D1F71F928F9386E692E09F938F9335
:104FF000DF93CF930E940CBABE0189E69DE00E9428
:105000005BB4D701C60136E0B695A795979587950D
:105010003A95D1F787701F928F938DE992E09F9315
:105020008F93DF93CF930E940CBABE0189E69DE077
:105030000E945BB46FEB78E089E69DE00E9436B495
:105040008C2D8F732DB73EB72E5E3F4F0FB6F89461
:105050003EBF0FBE2DBF811103C06BEB78E002C0D5
:1050600066EB78E089E69DE00E9436B489E69DE033
:105070000E9463B481E08093430910924209109228
:105080004109DF91CF91FF90EF90DF90CF90BF90DB
:10509000AF909F908F9008958F929F92AF92BF9202
:1050A000CF92DF92EF92FF920F931F93CF93DF93F4
:1050B000CDB7DEB727970FB6F894DEBF0FBECDBFD2
:1050C00080914109909142098235910509F08CC087
:1050D00080914B09853808F487C080914C09813252
:1050E00008F482C0EEE4F9E030E090E083E0DF0114
:1050F00011974C9120814F3078F02F3018F0803587
:1051000008F472C0A1E0B0E0AC0FBD1FA90FB11D43
:105110002C91220F21600DC02E3018F4803508F438
:1051200063C0A1E0B0E0AC0FBD1FA90FB11D2C9171
:10513000220F2C933F5F383029F49F5F963008F0A0
:1051400053C030E08E5F3296833589F60D81013190
:1051500049F0033339F0053529F0063619F00C3CD7
:1051600009F042C01981812E912C982C8824800E40
:10517000911C409135095091360960913709709121
:1051800038098091310990913209A0913309B09189
:105190003409A12CB12C481759076A077B0731F550
:1051A000C0903D09D0903E09E0903F09F090400941
:1051B00084EFC80E81E0D81EE11CF11C0E9450B0A3
:1051C000C616D706E806F90688F08091390990914D
:1051D0003A09A0913B09B0913C0988159905AA05A7
:1051E000BB0521F481E07FC080E07DC08092390959
:1051F00090923A09A0923B09B0923C090F708091BD
:105200005D0D91E0980F90935D0D1F928F9383E554
:1052100092E09F938F936CE1E62E6DE0F62EFF9265
:10522000EF920E940CBAB70189E69DE00E945BB440
:105230006CE578E089E69DE00E9436B48B811F9290
:105240008F938A811F928F931F921F9384EF92E016
:105250009F938F93FF92EF920E940CBAB70189E659
:105260009DE00E945BB48C811F928F938DE992E048
:105270009F938F93FF92EF920E940CBAB70189E639
:105280009DE00E945BB467E578E089E69DE00E94BE
:1052900036B40FB6F894DEBF0FBECDBF013019F49F
:1052A00063E578E011C0033019F46DE478E00CC0D8
:1052B000053019F467E478E007C0063019F461E4BA
:1052C00078E002C06BE378E089E69DE00E9436B4A6
:1052D00089E69DE00E9463B481E0809343091092C7
:1052E00042091092410927960FB6F894DEBF0FBE0F
:1052F000CDBFDF91CF911F910F91FF90EF90DF9085
:10530000CF90BF90AF909F908F9008958F929F9273
:10531000AF92BF92CF92DF92EF92FF920F931F93C3
:10532000CF93DF93CDB7DEB72A970FB6F894DEBFE1
:105330000FBECDBF809141099091420984389105FB
:1053400009F082C080914B09805A8E3108F07CC0F0
:105350001986EEE4F9E020E080E0DF0111973C914E
:1053600090813B3068F09B3008F06EC0A1E0B0E067
:10537000AC0FBD1FA80FB11D9C91990F91600BC080
:105380009A3008F461C0A1E0B0E0AC0FBD1FA80FD7
:10539000B11D9C91990F9C932F5F283029F48F5F4A
:1053A0008A3008F051C020E0329699E0E03DF907DC
:1053B000A1F68981833A09F047C08985813009F0D7
:1053C00043C01A81812E912C0B81982C8824800E49
:1053D000911C4091350950913609609137097091BF
:1053E00038098091310990913209A0913309B09127
:1053F0003409A12CB12C481759076A077B0731F5EE
:10540000C0903D09D0903E09E0903F09F0904009DE
:1054100084EFC80E81E0D81EE11CF11C0E9450B040
:10542000C616D706E806F90688F0809139099091EA
:105430003A09A0913B09B0913C0988159905AA0544
:10544000BB0521F481E07AC080E078C08092390900
:1054500090923A09A0923B09B0923C092F81229583
:105460002F7080915D0D91E0980F90935D0D1F92CC
:105470008F9383E592E09F938F93ECE1EE2EEDE026
:10548000FE2EFF92EF922A870E940CBAB70189E69E
:105490009DE00E945BB466E378E089E69DE00E94AF
:1054A00036B48C811F928F931F920F931F921F937C
:1054B00084EF92E09F938F93FF92EF920E940CBA39
:1054C000B70189E69DE00E945BB48D811F928F93A6
:1054D0008DE992E09F938F93FF92EF920E940CBA16
:1054E000B70189E69DE00E945BB461E378E089E65C
:1054F0009DE00E9436B40FB6F894DEBF0FBECDBF5C
:105500002A85211103C06DE278E009C0243019F426
:1055100067E278E004C0223031F461E278E089E6A5
:105520009DE00E9436B489E69DE00E9463B481E06C
:105530008093430910924209109241092A960FB6AE
:10554000F894DEBF0FBECDBFDF91CF911F910F91B9
:10555000FF90EF90DF90CF90BF90AF909F908F9093
:1055600008952F923F924F925F926F927F928F9207
:105570009F92AF92BF92CF92DF92EF92FF920F93E2
:105580001F93CF93DF93CDB7DEB728970FB6F8946C
:10559000DEBF0FBECDBF80914109909142098A3490
:1055A000910509F0ECC080914A098E3209F4E7C0F8
:1055B00020914509EDE4F9E0C12CD12C76018081E0
:1055C000829FC00111248D3B92400CF0D8C0DF01B6
:1055D00011978C91829FC0011124F694E794D7947F
:1055E000C79481309A4014F06894F7F83296B9E085
:1055F000ED38FB0721F7ECE8F9E0212C8081829F50
:10560000C0011124312C81309A403CF0C1019595A4
:105610008795A82FA8602A2E04C0C101959587956B
:10562000282E3296B9E0E439FB0741F7C114D104C2
:10563000E104F10409F4A3C0409135095091360901
:105640006091370970913809809131099091320940
:10565000A0913309B0913409481759076A077B07AD
:1056600049F580903D0990903E09A0903F09B09087
:105670004009E8EE8E0EE3E09E1EA11CB11C0E94C4
:1056800050B00091390910913A0920913B093091AD
:105690003C0986169706A806B90628F40C151D05C0
:1056A0002E053F0539F40C151D052E053F0511F497
:1056B00081E00CC2C0923909D0923A09E0923B09CC
:1056C000F0923C09B701A601ACE176956795579534
:1056D0004795AA95D1F78F2D9927AA27BB278D83A8
:1056E0009E83AF83B8878F70382ED701C60114E12F
:1056F000B695A795979587951A95D1F7E82FEF70EE
:105700007E2EC701AA27BB2789839A83AB83BC83DC
:105710008F70682ED701C6012CE0B695A795979596
:1057200087952A95D1F7E82FEF705E2E33272F2D1E
:105730001E2D0D2DF02FFF704F2E4601570154E006
:10574000B694A794979487945A95D1F7E82DEF7063
:105750008E2E9C2CFC2DFF70BF2EE02FE670AE2EFF
:10576000F6E0EF1771F0EFE0E41BEB19E819E71929
:10577000E619E519E419E319EF702E16D1F080E06F
:10578000A5C1E82FE770E33051F4EB2DE40FE95F9A
:10579000E30DE70DE60DE50DE40DE80DEDCFEFE0CF
:1057A000E41BEB19E419E819E319E719E619E519FF
:1057B000E3CF0170F6E0AF1609F483C07C012FE05F
:1057C000F22288279870892B71F0A110D8CF80E041
:1057D00090E18E199F09893532E0930784F67C01A8
:1057E0006894F7F805C089E5E81682E0F8063CF60B
:1057F000132D90E1499F100D11241A3908F0BFCFE5
:1058000080915D0D91E0980F90935D0D1F928F93A5
:1058100083E592E09F938F93BCE1CB2EBDE0DB2E1E
:10582000DF92CF920E940CBAB60189E69DE00E94F9
:105830005BB466E178E089E69DE00E9436B4892D8C
:105840008C7F1F928F93892D83701F928F9385EC8D
:1058500092E09F938F93DF92CF920E940CBAB60191
:1058600089E69DE00E945BB4FF92EF9280EC93E0AA
:105870009F938F93DF92CF920E940CBAB60189E674
:105880009DE00E945BB40FB6F894DEBF0FBECDBFA3
:10589000193909F405C11F921F938CEE93E09F9371
:1058A0008F93DF92CF920E940CBAB60189E69DE0F9
:1058B0000E945BB40F900F900F900F900F900F907D
:1058C000EFC087708330C9F580915D0D91E0980F2E
:1058D00090935D0D1F928F9383E592E09F938F933A
:1058E000ACE1EA2EADE0FA2EFF92EF920E940CBAE4
:1058F000B70189E69DE00E945BB46BE078E089E641
:105900009DE00E9436B41F929F928CED92E09F938F
:105910008F93FF92EF920E940CBAB70189E69DE047
:105920000E945BB4BA81BF93E981EF9386ED93E067
:105930009F938F93FF92EF9241C0813009F042C054
:1059400080915D0D91E0980F90935D0D1F928F9364
:1059500083E592E09F938F93FCE1EF2EFDE0FF2E15
:10596000FF92EF920E940CBAB70189E69DE00E9477
:105970005BB460E078E089E69DE00E9436B4892D52
:105980008C7F1F928F93892D83701F928F9385EC4C
:1059900092E09F938F93FF92EF920E940CBAB7010F
:1059A00089E69DE00E945BB48D81880F1F928F93E2
:1059B00085E194E09F938F93FF92EF920E940CBA3F
:1059C000B70165C0873009F0DACE80915D0D91E0B6
:1059D000980F90935D0D1F928F9383E592E09F93B4
:1059E0008F936CE1A62E6DE0B62EBF92AF920E940F
:1059F0000CBAB50189E69DE00E945BB465EF77E0E3
:105A000089E69DE00E9436B4892D8C7F1F928F938A
:105A1000892D83701F928F9385EC92E09F938F93D3
:105A2000BF92AF920E940CBAB50189E69DE00E9438
:105A30005BB4C701B601EFE09695879577956795BA
:105A4000EA95D1F77170882799272DE230E040E080
:105A500050E00E94A8B73F932F938CED94E09F9362
:105A60008F93BF92AF920E940CBAB50189E69DE078
:105A70000E945BB48D81880F1F928F9386E193E023
:105A80009F938F93BF92AF920E940CBAB50189E6A3
:105A90009DE00E945BB40FB6F894DEBF0FBECDBF91
:105AA000011103C065E073E002C06DE073E089E6B8
:105AB0009DE00E945BB489E69DE00E9463B481E0B2
:105AC00080934309109242091092410928960FB61B
:105AD000F894DEBF0FBECDBFDF91CF911F910F9124
