:10000000D1C700000C940308FEC70000FCC7000025
:10001000FAC70000F8C70000F6C70000F4C70000E8
:10002000F2C70000F0C70000EEC70000ECC70000F8
:10003000EAC70000E8C70000E6C70000E4C7000008
:10004000E2C70000E0C70000DEC70000DCC7000018
:10005000DAC70000D8C70000D6C700000C94E3D46C
:10006000D2C700000C9443D80C9479D8CCC70000B8
:10007000CAC70000C8C70000C6C70000C4C7000048
:10008000C2C70000C0C70000BEC70000BCC7000058
:10009000BAC70000B8C70000B6C70000B4C7000068
:1000A000B2C70000B0C70000AEC70000ACC7000078
:1000B000AAC70000A8C70000A6C70000A4C7000088
:1000C000A2C70000A0C700009EC700009CC7000098
:1000D0009AC7000098C7000096C7000094C70000A8
:1000E00092C700002BD62ED61DD621D627D665D690
:1000F00032D636D63CD640D644D64AD64ED652D63E
:1001000065D658D65CD660D63B50756C736573283F
:1001100075536563293D0044454255473B50756C16
:100120007365733D003B50756C736573287553653B
:1001300063293D0044454255473B50756C736573D8
:100140003D00536C6176653B44656275673D0053C5
:100150006C6176653B00536C6176653B4465627506
:10016000673D00536C6176653B004348494D453D12
:1001700030313B005357495443483D313B434D4494
:100180003D4F4E3B0046726965646C616E643B0096
:100190004348494D453D30313B005357495443484E
:1001A0003D313B434D443D4F4E3B003B446F6F72EE
:1001B00062656C6C3B004348494D453D30313B0026
:1001C0005357495443483D313B434D443D4F4E3BCB
:1001D000003B456C726F44423B004348494D453DEE
:1001E00030313B005357495443483D313B434D4424
:1001F0003D4F4E3B003B446F6F7262656C6C3B0041
:100200004348494D453D30313B00535749544348DD
:100210003D313B434D443D4F4E3B004348494D45E6
:100220003D30313B005357495443483D313B434DEA
:10023000443D4F4E3B003B4279726F6E204D503B28
:10024000004348494D453D30313B005357495443E5
:10025000483D313B434D443D4F4E3B003B44656C74
:1002600074726F6E69633B003B4279726F6E3B0044
:100270003B506C69656765723B00434D443D4F4E92
:100280003B4348494D453D30313B003B53656C6530
:100290006374506C75733B00534D4F4B45414C4557
:1002A00052543D4F4E3B005357495443483D303123
:1002B0003B434D443D4F4E3B00416C6563746F536F
:1002C000413B00474F444F574E3B00474F55503B33
:1002D0000053544F503B004F4E3B004F46463B00AF
:1002E000444F574E3B0055503B00434D443D005357
:1002F00057495443483D30313B004D657274696B3A
:100300003B00534D4F4B45414C4552543D4F4E3BA6
:10031000005357495443483D30313B434D443D4FD2
:100320004E3B004641323052463B00434D443D4F28
:100330004E3B005357495443483D30313B004672D1
:100340006965646C616E643B004F46463B004F4EEE
:100350003B00434D443D005357495443483D3031E1
:100360003B004C6F6265636F3B00434D443D4F4E15
:100370003B005357495443483D30313B004D4331D6
:1003800034353032363B004F4E004F4E004F4E005A
:100390004F4E004F4E004F4646004F4E004F4646D0
:1003A000003B5357495443483D30313B434D443D56
:1003B0000041746C616E7469633B49443D00424185
:1003C000543D4C4F573B004241543D4F4B3B004343
:1003D0004D443D4F4E3B00434D443D4F46463B0050
:1003E0003B5357495443483D30313B004B65656CA6
:1003F0006F713B49443D00434D443D4F4E3B0058D7
:1004000031303B00434D443D4F4E3B00434D443D56
:100410004F46463B005357495443483D30323B001A
:10042000436875616E676F3B00434D443D4F4E3BE3
:10043000004556313532373B00434D443D4F4E3B2E
:10044000005357495443483D30313B004854313202
:10045000453B0046696E654F66667365743B0044B4
:10046000454255473D005748353032393B00436FD0
:100470006E7261643B003B42696C74656D613B491F
:10048000443D30300052465831304D455445523B82
:10049000003B4F7265676F6E205747523830303BD4
:1004A00044454255473D003B4F7265676F6E2043A0
:1004B0004D3138303B49443D003B44454255473D72
:1004C000003B4F7265676F6E20434D3131393B49B8
:1004D000443D003B4F7265676F6E20434D313630AF
:1004E0003B49443D003B4F7265676F6E20434D3181
:1004F00031333B44454255473D003B4F7265676F82
:100500006E20434D3131333B49443D004445425513
:10051000473D004241543D4F4B3B004241543D4C0E
:100520004F573B003B4F7265676F6E2055564E38F4
:1005300030303B49443D0044454255473D0042412F
:10054000543D4F4B3B004241543D4C4F573B003BC9
:100550004F7265676F6E2055564E3132382F3133EA
:10056000383B49443D004241543D4F4B3B004241E2
:10057000543D4C4F573B003B4F7265676F6E2057A1
:10058000696E64323B49443D0044454255473D0055
:100590004241543D4F4B3B004241543D4C4F573B31
:1005A000003B4F7265676F6E2057696E643B49442C
:1005B0003D0044454255473D004241543D4C4F5754
:1005C0003B004241543D4F4B3B003B4F7265676FD0
:1005D0006E205261696E323B49443D0044454255AC
:1005E000473D004241543D4F4B3B004241543D4C3E
:1005F0004F573B003B4F7265676F6E205261696ECB
:100600003B49443D0044454255473D004241543D2D
:100610004C4F573B004241543D4F4B3B003B4F72C8
:1006200065676F6E204254483B49443D0042415447
:100630003D4C4F573B004241543D4F4B3B003B4FDD
:100640007265676F6E2054656D70487967726F3B95
:1006500049443D004241543D4C4F573B00424154B8
:100660003D4F4B3B003B4F7265676F6E2054656D8D
:10067000703B49443D004241543D4F4B3B00424199
:10068000543D4C4F573B003B4F7265676F6E563180
:100690003B49443D30300042696F77696E3B004210
:1006A00041543D4F4B3B004241543D4C4F573B0062
:1006B0003B54756E65783B49443D003B5869726F09
:1006C0006E3B49443D003B417572696F6C20563268
:1006D0003B49443D004241543D4F4B3B0042415455
:1006E0003D4C4F573B003B417572696F6C3B494431
:1006F0003D3030003B417572696F6C2056333B4989
:10070000443D004C6143726F7373653B49443D0047
:100710004C6143726F7373653B49443D003B5550D8
:100720004D5F457369632046323B49443D00424179
:10073000543D4F4B3B004241543D4C4F573B003BD7
:1007400055504D5F457369633B49443D004C6143DF
:10075000726F73736556333B49443D004C6143727D
:100760006F73736556333B49443D004C6143726F70
:1007700073736556333B49443D004C6143726F735C
:10078000736556333B49443D004D656275733B00CC
:100790004241543D4F4B3B004241543D4C4F573B2F
:1007A00000496E6F56616C6C65793B004B726970E5
:1007B000706C3B004241543D4F4B3B004241543D25
:1007C0004C4F573B0050726F6C6F6775653B00452F
:1007D00075726F6368726F6E3B00575430313232FE
:1007E0003B0046696E654F66667365743B00496DF4
:1007F0006167696E74726F6E69783B003B003B43C2
:1008000072657374613B44454255473B49443D0022
:100810004241543D4C4F573B004241543D4F4B3BAE
:10082000003B4372657374613B49443D004241544F
:100830003D4C4F573B004241543D4F4B3B003B43E7
:1008400072657374613B49443D004241543D4C4FD5
:10085000573B004241543D4F4B3B003B4372657355
:1008600074613B49443D004241543D4C4F573B006D
:100870004241543D4F4B3B003B4372657374613BB7
:1008800049443D004241543D4C4F573B0042415486
:100890003D4F4B3B003B4372657374613B49443DA4
:1008A00000416C6563746F2056353B004241543DF6
:1008B0004C4F573B004241543D4F4B3B00476C6F00
:1008C00062616C54726F6E6963733B00416C656367
:1008D000746F2056343B00416C6563746F2056334F
:1008E0003B0058543230303B0044454255473D00B0
:1008F000416C6563746F2056313B00444542554757
:100900003D00416C6563746F2056313B00444542A5
:1009100055473D00416C6563746F2056313B004183
:100920006C6563746F2056313B004F4E3B004F4661
:10093000463B00434D443D004E6F76617479733BF6
:10094000004F46463B0053544F503B004F4E3B0038
:10095000414C4C00434D443D00466F726573743BFF
:1009600049443D004F46463B004F4E3B00434D44FB
:100970003D004C69766F6C6F3B0044454255473DE6
:100980000053544F503B00504149523B0053544F89
:10099000503B0055503B00444F574E3B00434D44A5
:1009A0003D004B696E6770696E3B00444542554798
:1009B0003D004F46463B004F4E3B00414C4C0043F0
:1009C0004D443D004B6F63683B0053544F503B0018
:1009D0004F4E3B0053544F503B00444F574E3B004B
:1009E00055503B00434D443D005254533B004C4F47
:1009F000573B004F4B3B004241543D004F4E3B00A4
:100A00004F46463B00414C4C00434D443D0046752B
:100A10006E6B6275733B0053544F503B00444F570D
:100A20004E3B0055503B00434D443D00414F4B3B36
:100A30000053544F503B004C4F434B3B0053544FDB
:100A4000503B00444F574E3B0055503B00434D44F4
:100A50003D004272656C4D6F746F723B004C494DA6
:100A600049543B00434F4E4649524D3B0053544F6F
:100A7000503B00444F574E3B0055503B00434D44C4
:100A80003D00426F66754D6F746F723B004F464676
:100A90003B004F4E3B00414C4C00434D443D005306
:100AA000696C76657243726573743B004F46463BD2
:100AB000004F4E3B00434D443D00523534363B0021
:100AC0004F4E3B004F46463B00434D443D0058319E
:100AD000305365637572653B004F46463B00414CA1
:100AE0004C4F46463B004F4E3B0053544F503B004B
:100AF0004F4E3B004F46463B00414C4C4F46463B19
:100B0000004F4E3B004F46463B00434D443D004C9A
:100B100069676874776176653B004F4E3B004F46CE
:100B2000463B004F4E3B004F46463B00414C4C007D
:100B3000434D443D00556E697465633B004F464626
:100B40003B004F4E3B00414C4C00434D443D004563
:100B500075726F70653B004252494748543B0044F0
:100B6000494D3B004F4E3B004F46463B00434D44F2
:100B70003D005357495443483D30313B0041737465
:100B800065723B004F4E3B004F46463B00414C4C8C
:100B900000434D443D004D61636C65616E3B004F09
:100BA0004E3B004F46463B00414C4C00434D443DBC
:100BB000004F4E3B004F46463B00434D443D0049ED
:100BC0006B6561204B6F70706C613B00414C4C4F0A
:100BD0004E3B00414C4C4F46463B0044494D3B0088
:100BE0004252494748543B004F4E3B004F46463B1C
:100BF00000434D443D00506F7765726669783B0055
:100C00004F46463B004F4E3B00434D443D0046415E
:100C10003530303B004F4E3B004F46463B00414C89
:100C20004C00434D443D00486F6D65436F6E666FE9
:100C300072743B00434F4C4F5220475245454E3B48
:100C400000434F4C4F522059454C4C4F573B0043AB
:100C50004F4C4F5220424C55453B00434F4C4F5256
:100C6000205245443B00434F4C4F524D495820447D
:100C70004F574E3B00434F4C4F524D495820555013
:100C80003B0044494D2055503B0044494D20444FC2
:100C9000574E3B004F46463B00434D443D005452A7
:100CA0004330325247423B00414C4C4F4E3B004197
:100CB0004C4C4F46463B0044494D3B00425249474D
:100CC00048543B004F4E3B004F46463B00434D448B
:100CD0003D005831303B004F4E3B004F46463B00F5
:100CE000434D443D004B616D62726F6F6B3B004F33
:100CF00046463B004F4E3B00414C4C00434D443D6B
:100D000000436F6E7261643B00414C4C4F46463B62
:100D100000414C4C4F4E3B004F46463B004F4E3B34
:100D200000434D443D004176696473656E3B00426B
:100D30006C7973733B004F4E3B004F46463B004F70
:100D40004E3B004F46463B00414C4C00434D443D1A
:100D5000004575726F646F6D6573743B00414C4C58
:100D60004F4E3B00414C4C4F46463B004F4E3B00E4
:100D70004F46463B00434D443D004E65774B616B0B
:100D8000753B004F46463B004F4E3B00414C4C00EC
:100D9000434D443D0054726953746174653B005087
:100DA00054323236323B005068696C6970733B00D4
:100DB000496D70756C733B0053617274616E6F3B6B
:100DC00000496D70756C733B004142343030443BD8
:100DD000004B616B753B003B4C6143726F737365F5
:100DE00056323B49443D003B4C6143726F7373651F
:100DF00056323B49443D003B4C6143726F7373650F
:100E000056323B49443D003B4C6143726F737365FE
:100E100056323B49443D003B50756C7365732875F1
:100E2000536563293D0044454255473B50756C73FB
:100E300065733D00536C6176653B44656275673D43
:100E400000536C6176653B0032303B30303B4E6F77
:100E5000646F20526164696F4672657175656E6377
:100E6000794C696E6B202D2052464C696E6B204781
:100E70006174657761792056312E31202D20000074
:100E8000000A0B02090C0D0E080703040100000004
:100E90000000000000000000000000000000000052
:100EA000000000000000000000000012111000000F
:100EB0000000000000000000000000000000000032
:100EC000000000000001021020200808102040103F
:100ED00020408002010201080402010102040810FE
:100EE000204080804020100804020180040201801C
:100EF0004020100804020108040201010204081045
:100F000020408001020408102040800505050507E7
:100F10000508080808020202020A0A080804040474
:100F200004010101010101010103030303030303A0
:100F300003040707070C0C0C0C0C0C0C0C0202022F
:100F40000206060606060606060B0B0B0B0B0B0B22
:100F50000B000020002300260029002C002F003267
:100F60000000010000030106010901000022002524
:100F70000028002B002E0031003400020100000583
:100F80000108010B0100002100240027002A002D88
:100F9000003000330001010000040107010A0100D4
:100FA0005CD2ABD811241FBECFEFD1E2DEBFCDBFE4
:100FB00000E00CBF1AE0A0E0B2E0EAE3F4EC01E0EC
:100FC0000BBF02C007900D92A031B107D9F720E105
:100FD000A0E1BAE001C01D92A836B207E1F71FE018
:100FE000C4EADFE000E006C022970109FE010BBF62
:100FF0000E9483DDC03AD10780E00807A9F70E946C
:10100000EFD80C941BE20C9400002F923F924F9269
:101010005F926F927F928F929F92AF92BF92CF9288
:10102000DF92EF92FF920F931F93CF93DF9300D045
:101030001F92CDB7DEB78091470B9091480BC297B6
:1010400011F080E073C48091500B8F33D1F3833162
:10105000C1F38091340B833021F01B8280E190E05A
:1010600004C025E02B838AE090E02091810B30E0E2
:101070008217930734F3E2E5FBE046E150E066E1D6
:1010800070E0219130E0261737072CF04217530704
:101090000CF4A9019B016BE0E238F60711F0B901ED
:1010A000F0CFAB81A53009F476C0B9016750710962
:1010B0006230710540F4BA016E51710962307105F8
:1010C00010F4B4E0BB83B901695071096230710555
:1010D00068F4BA01645271096230710508F450C0B5
:1010E000645071096330710508F44CC0B9016A504D
:1010F00071096230710540F4BA01685271096330B8
:10110000710508F441C009C02D30310531F4BA0130
:101110006052710963307105C8F1B9016B507109F2
:101120006230710530F4BA016F5171096730710591
:1011300080F1B9016C5071096230710530F4BA0167
:101140006D5271096230710540F1B9016450710945
:101150006530710560F44E52510944305105D8F4A0
:1011600023E02B8337E03C8384E190E01DC02430F2
:1011700031058CF4465151094230510560F40FC0DD
:1011800021E008C031E003C022E004C032E03B832C
:1011900002C024E02B831C8207C033E0F8CF25E097
:1011A0002B831C828AE090E06090540B712CE3E565
:1011B000FBE044E55BE002E51BE0512C412C212CD7
:1011C000812C912C5401C12CD12C7601312C60E062
:1011D00070E0DA011397BC912B2F30E03A8329831A
:1011E000281739070CF061C0D8012C9130E0821724
:1011F00093070CF05AC0208130E028173907A4F477
:10120000DA012C9130E08217930774F4F694E79496
:10121000D794C79432E0880C991CAA1CBB1C3A9541
:10122000D1F72C81216024C0208130E08217930700
:101230000CF5DA012C9130E028173907DCF44394DF
:10124000F694E794D794C794B2E0880C991CAA1C32
:10125000BB1CBA95D1F76894D3F8689481F86B30C9
:10126000710521F4B1E04B1609F489C02C8122608C
:101270002C8385C0208130E028173907B4F4DA01C7
:101280002C9130E02817390784F4F694E794D7942A
:10129000C79432E0880C991CAA1CBB1C3A95D1F764
:1012A000B3E08B2A222423946AC029813A818217D1
:1012B0009307D4F5D8012C9130E028173907A4F50D
:1012C000208130E0821793077CF5DA012C9130E021
:1012D000281739074CF55394F694E794D794C7949C
:1012E000B2E0880C991CAA1CBB1CBA95D1F76B30D4
:1012F000710541F4B1E05B1205C06894D3F86894BD
:1013000081F83DC0689480F82C8124602C833B8157
:101310003530A9F16B30710591F1333011F036E0C1
:101320003B836894D3F82BC06115710519F532E041
:10133000880C991CAA1CBB1C3A95D1F7A981BA81CB
:101340008A179B079CF4D8012C9130E082179307F1
:101350006CF4208130E02817390744F4861597058E
:101360002CF4F694E794D794C79409C02C81286094
:101370002C8303C03C8138603C83332433946F5FFB
:101380007F4F34960C5F1F4F4C5F5F4F6C30710581
:1013900009F01FCF311055CE8C818B7F833021F027
:1013A0002C81253009F04DCE90913E0B80913D0B64
:1013B000981339C04090430B5090440B6090450BFC
:1013C0007090460B34EF430E31E0531E611C711CCC
:1013D0000E942DD5461657066806790620F14090E2
:1013E000430B5090440B6090450B7090460B68EE99
:1013F000460E63E0561E611C711C0E942DD56415BB
:1014000075058605970508F036C280913F0B9091CF
:10141000400BA091410BB091420B88159905AA058C
:10142000BB0509F428C22C812730A9F44090430B56
:101430005090440B6090450B7090460B88EE480E20
:1014400083E0581E611C711C0E942DD56415750522
:101450008605970528F080913D0B8C30A9F416C0C5
:1014600080913F0B9091400BA091410BB091420BAA
:1014700088159905AA05BB0571F390913E0B8091E3
:101480003D0B9813E8CFF7C18F30B1F44090430B78
:101490005090440B6090450B7090460BA0ED4A0EA7
:1014A000A7E05A1E611C711C0E942DD5641575059C
:1014B0008605970508F4DBC180923F0B9092400BA4
:1014C000A092410BB092420B3C81373009F4CBC162
:1014D0002C81253041F53B81333029F51C2D1095A9
:1014E0001F70B701A601407F552766277727B4E014
:1014F0007695679557954795BA95D1F7842F80953E
:101500008F7077276F2D5E2D4D2D437055276627E1
:101510007727CC24C394423051056105710509F445
:1015200066C0C12C64C0D701C60188279770AA275E
:10153000BB27B701A6014778577066277727411563
:1015400057406105710509F45AC02B81811536E0B9
:101550009307A105B10539F0243079F034E03B83DD
:1015600027E02C8380C1263009F487C12B812530E8
:1015700009F499C13B81343089F597018601E5E092
:101580003695279517950795EA95D1F70F711C2D7C
:1015900010951F711F5B0B3179F030F40F3071F033
:1015A000073169F404E00BC00D3121F00E3139F43C
:1015B00001E005C002E003C003E001C005E0D7017F
:1015C000C6017BE0B695A795979587957A95D1F753
:1015D000682F6170C62E24E02B8357C03C813530C4
:1015E00081F42B81233069F4C12C10E080E01F5B73
:1015F00001E0080F33E03B8325E02C8346C031E057
:101600003B8381159640A105B105A9F01C2D1F70E3
:101610001F5BD701C601807F9927AA27BB2764E0FB
:10162000B695A795979587956A95D1F701E0080F2C
:1016300021E02B831EC0D701C60188279670AA27F8
:10164000BB2781159640A105B10509F0FACC1C2DE8
:101650001F701F5BD701C601807F9927AA27BB2770
:1016600054E0B695A795979587955A95D1F701E0DF
:10167000080FD701C6014BE0B695A79597958795BA
:101680004A95D1F7682F6170C62E8091BD0F91E009
:10169000980F9093BD0F1F928F938CE692E09F93CB
:1016A0008F9385E79FE09F938F930E9440DF65E7CC
:1016B0007FE089EC9FE00E945DD90F900F900F9022
:1016C0000F900F900F902C812330C9F43B81343060
:1016D00018F461ED7DE00BC02B81243019F469EC26
:1016E0007DE005C03B81353039F461EC7DE089EC6B
:1016F0009FE00E9438D901C168EB7DE0F8CF2C81D2
:10170000253079F43B81353019F460EB7DE0EFCF83
:101710002B81233019F467EA7DE0E9CF6FE97DE0A2
:10172000E6CF3C81373009F0E8C065E97DE089EC1F
:101730009FE00E9438D92B81253019F46894B3F8C2
:1017400005C03B81333011F46894B2F8D501C4016F
:1017500024E0B695A795979587952A95D1F7BB274D
:10176000BF93AF939F938F9385E792E09F938F935F
:1017700085E79FE09F938F930E9440DF65E77FE0BE
:1017800089EC9FE00E945DD9082D982D93700FB6CB
:10179000F894DEBF0FBECDBFB501A40132E076954F
:1017A0006795579547953A95D1F78B81835082304D
:1017B00018F4042F03700AC00427009503709130B9
:1017C00021F0842F8370813009F40860C92E992399
:1017D00011F0CC24C3942B81253031F403FD04C0D7
:1017E000C0943C2D3170C32E1F920F938FE792E06F
:1017F0009F938F9385E79FE09F938F930E9440DF95
:1018000065E77FE089EC9FE00E945DD960E97DE0BB
:1018100089EC9FE00E9438D90F900F900F900F90A5
:101820000F900F9061E0261206C06CE87DE089EC15
:101830009FE00E9438D981E0C81203C068E87DE0CB
:1018400002C063E87DE089EC9FE00E9438D989EC12
:101850009FE00E9465D981E08093490B1092480B6C
:101860001092470B63C000E010E0C12C0ECF8091B6
:101870003D0B80933E0B81E059C0D701C601817FAB
:101880009E70AA27BB27892B8A2B8B2B09F0D9CBDB
:101890001C2D1E701695109517701F5B3D2D317015
:1018A000C32E00E0F2CED701C601807F9370AA2735
:1018B000BB27F4E0B695A79597958795FA95D1F74C
:1018C0001C2D10951F701F5B082F00950F71B7011D
:1018D000A601AAE07695679557954795AA95D1F701
:1018E0004370552766277727CC24C3944130510590
:1018F0006105710509F0B9CFC8CE1F921F938AE820
:1019000092E09F938F9385E79FE09F938F930E9430
:1019100040DF65E77FE089EC9FE00E945DD90F9092
:101920000F900F900F900F900F905ECF0F900F9031
:101930000F900F90DF91CF911F910F91FF90EF903B
:10194000DF90CF90BF90AF909F908F907F906F90DF
:101950005F904F903F902F9008954F925F926F92BB
:101960007F92AF92BF92CF92DF92EF92FF920F934E
:101970001F93CF93DF938091470B9091480B9C016D
:101980002F7E2438310509F06EC02091500B2F3086
:1019900009F486C0C12CD12C7601B12CA12CC3E056
:1019A000D0E09C0122503109FE01E95BF44F7285C1
:1019B00063855485E185E53108F055C0753130F413
:1019C000653108F050C05631A8F40BC0753109F4E8
:1019D0004AC0653108F047C0553108F044C041E0C5
:1019E0000AC0553108F03FC084399105E1F5BB24A8
:1019F000B39401C040E0C238D10534F4CC0CDD1CF6
:101A0000EE1CFF1CC42A02C0AA0CA42A2496C217EA
:101A1000D30754F290913E0B80913D0B981325C053
:101A20004090430B5090440B6090450B7090460BD8
:101A30008CEB480E82E0581E611C711C0E942DD553
:101A4000461657066806790680F080913F0B909104
:101A5000400BA091410BB091420B8C159D05AE053A
:101A6000BF0519F41DC080E0DDC010913D0B1C3096
:101A7000C9F44090430B5090440B6090450B70901C
:101A8000460B90ED490E97E0591E611C711C0E9497
:101A90002DD5641575058605970520F410933E0B2A
:101AA00081E0C0C0C0923F0BD092400BE092410B4E
:101AB000F092420B8091BD0F91E0980F9093BD0F73
:101AC0001F928F938CE692E09F938F9305E71FE020
:101AD0001F930F930E9440DFB80189EC9FE00E94A2
:101AE0005DD96AE77DE089EC9FE00E9438D9D70193
:101AF000C60146E0B695A795979587954A95D1F783
:101B0000BF93AF939F938F9381EA92E09F938F93BC
:101B10001F930F930E9440DFB80189EC9FE00E9461
:101B20005DD9D701C6018F709927AA27BB270196D7
:101B3000A11DB11DBF93AF939F938F938BEA92E04A
:101B40009F938F931F930F930E9440DFB80189ECFE
:101B50009FE00E945DD965E77DE089EC9FE00E94EF
:101B600038D954E0F694E794D794C7945A95D1F7AE
:101B700093E0C922DD248DB79EB746960FB6F89440
:101B80009EBF0FBE8DBF92E0C916D1041CF08FEF2F
:101B9000C81AD80ACD38D105E4F091E0B91219C0BD
:101BA0001F92AF9283E992E09F938F9385E79FE026
:101BB0009F938F930E9440DF65E77FE089EC9FE071
:101BC0000E945DD90F900F900F900F900F900F9083
:101BD0001EC0C114D10419F460E77DE014C081E097
:101BE000C816D10419F46CE67DE00DC093E0C91667
:101BF000D10419F464E67DE006C084E0C816D1047F
:101C000031F46DE57DE089EC9FE00E9438D989ECE4
:101C10009FE00E9465D981E08093490B1092480BA8
:101C20001092470BDF91CF911F910F91FF90EF9092
:101C3000DF90CF90BF90AF907F906F905F904F906C
:101C400008958F929F92AF92BF92CF92DF92EF92C0
:101C5000FF920F931F93CF93DF931F92CDB7DEB701
:101C60008091470B9091480B8234910529F0843480
:101C7000910521F080E071C120E001C022E02F5FDA
:101C8000C12CD12C76010297E22FF0E0E817F9077A
:101C9000D4F4E95BF44F3185353160F0313350F7DE
:101CA0003285353138F7CC0CDD1CEE1CFF1C6894F6
:101CB000C0F807C032853431E8F2CC0CDD1CEE1CD4
:101CC000FF1C2E5FE1CF90913E0B80913D0B98134E
:101CD00011C08090430B9090440BA090450BB090A6
:101CE000460B0E942DD586169706A806B90610F059
:101CF00081E033C1C114D104E104F10409F4BACF85
:101D0000D701C6011EE1B695A795979587951A95B7
:101D1000D1F7823009F0AECF8F2D9927AA27BB27A4
:101D20003FE7380F3E3308F0A5CF382F3F70182F0C
:101D30001770173009F49ECF3B3009F49BCF8338DE
:101D400009F498CF863809F495CF893809F492CFF1
:101D50008C3809F48FCF382F3F7D313909F48ACF81
:101D6000843909F487CF3A3909F484CF3D3909F42D
:101D700081CF813A09F47ECF843A09F47BCF8A3A45
:101D800009F478CF8D3A09F475CF2DE4280F22306D
:101D900008F470CF282F30E0A901E3E0559547956E
:101DA000EA95E1F7042F0170F4E035952795FA954F
:101DB000E1F72370133009F45BC02330B1F416301F
:101DC00019F481E0082755C08370813031F011117A
:101DD00005C081E0082728E055C024E0123009F44E
:101DE0004AC0143009F04EC046C0211114C021E091
:101DF000163049F0113039F020E0153021F481E03F
:101E0000082725E03FC08370C1F11230D9F581E089
:101E100008272DE037C02230A1F4163019F481E0F4
:101E2000082730C08370813031F0111105C081E086
:101E300008272AE027C026E0123009F1143011F5F6
:101E40001EC0163021F481E0082723E01BC08370F8
:101E5000813031F0111106C081E008272BE012C05B
:101E600027E001C021E0123061F0143059F409C0BC
:101E7000022F20E007C02CE005C029E003C02EE0BF
:101E800001C02FE08091BD0F91E0980F9093BD0F9E
:101E90001F928F938CE692E09F938F9375E7A72E06
:101EA0007FE0B72EBF92AF9229830E9440DFB50139
:101EB00089EC9FE00E945DD961E07DE089EC9FE0C4
:101EC0000E9438D9FF24FF92EF92DF92CF9285E7EC
:101ED00092E09F938F93BF92AF920E9440DFB50133
:101EE00089EC9FE00E945DD91F9229812F9386EB98
:101EF00092E09F938F93BF92AF920E9440DFB50113
:101F000089EC9FE00E945DD96CEF7CE089EC9FE05A
:101F10000E9438D90FB6F894DEBF0FBECDBF133084
:101F200031F468EF7CE089EC9FE00E9438D9013001
:101F300019F464EF7CE002C06FEE7CE089EC9FE076
:101F40000E9438D989EC9FE00E9465D981E0809396
:101F5000490B1092480B1092470B0F90DF91CF91D5
:101F60001F910F91FF90EF90DF90CF90BF90AF90B7
:101F70009F908F9008958F929F92AF92BF92CF9231
:101F8000DF92EF92FF920F931F93CF93DF931F92F5
:101F9000CDB7DEB78091470B9091480B8234910505
:101FA00079F08434910511F080E080C18091510B6B
:101FB0008333D0F38091520B8536B0F322E001C019
:101FC00020E042E0420FC12CD12C760130E02F5BA3
:101FD0003F4F842F90E02817390774F0FC01E95B2C
:101FE000F44F8185CC0CDD1CEE1CFF1C8A3110F0F7
:101FF0006894C0F84E5FEDCF90913E0B80913D0B01
:10200000981311C08090430B9090440BA090450B07
:10201000B090460B0E942DD586169706A806B906E5
:1020200010F081E043C1C114D104E104F10409F4CA
:10203000BBCF8F2D9927AA27BB272E2D209528139C
:10204000B3CF2D2DC094DC10AFCF382F3F70807FE1
:10205000803709F440C0803409F421C1803541F053
:10206000803869F0803981F040E0803A91F002C018
:1020700043E032C0803B91F0803EA9F002C044E0D2
:102080002BC0803FA9F002C045E026C0803CA9F0EB
:1020900002C046E021C0803DB1F002C047E01CC054
:1020A000882399F002C048E017C0803181F002C057
:1020B00049E012C0803269F002C04AE00DC08033AE
:1020C00059F44FE009C04BE007C04CE005C04DE0BB
:1020D00003C04EE001C041E0222309F4E2C02032F7
:1020E00009F4E1C0203149F0203371F0283091F03B
:1020F00010E000E0283299F002C011E006C028315B
:10210000A1F02833B9F003C010E002E041C0203450
:10211000B9F002C011E004C02036B9F003C010E0ED
:1021200003E036C02035B9F002C011E004C020370A
:10213000B9F003C010E004E02BC02834B9F002C0AD
:1021400011E004C02836B9F003C010E005E020C05B
:102150002835B9F002C011E004C02837B9F003C037
:1021600010E006E015C02838C9F002C011E004C034
:102170002839B1F003C010E007E00AC0203891F020
:1021800002C011E004C0203979F002C010E008E07C
:10219000343061F4123050F4085F08C012E005C01A
:1021A00013E003C014E001C015E000E08091BD0F12
:1021B00091E0980F9093BD0F1F928F932CE632E021
:1021C0003F932F9355E7E52E5FE0F52EFF92EF92B8
:1021D00049830E9440DFB70189EC9FE00E945DD9EE
:1021E00062ED7CE089EC9FE00E9438D94981842F20
:1021F00090E08F5B9F4F9F938F938AE892E09F932D
:102200008F93FF92EF920E9440DFB70189EC9FE02D
:102210000E945DD91F920F938FE792E09F938F9357
:10222000FF92EF920E9440DFB70189EC9FE00E948D
:102230005DD96DEC7CE089EC9FE00E9438D90FB647
:10224000F894DEBF0FBECDBF111103C068EC7CE077
:1022500016C0113019F464EC7CE011C0123019F48E
:102260006CEB7CE00CC0133019F467EB7CE007C02A
:10227000143019F46FEA7CE002C068EA7CE089EC73
:102280009FE00E9438D989EC9FE00E9465D981E0E7
:102290008093490B1092480B1092470B07C042E005
:1022A0001BCF11E001C010E001E024CF0F90DF91BF
:1022B000CF911F910F91FF90EF90DF90CF90BF9043
:1022C000AF909F908F900895CF92DF92EF92FF9200
:1022D0000F931F93CF93DF938091470B9091480BFF
:1022E0009C01245B31092730310508F01EC161E0F3
:1022F000B0E070E050E040E0A0E0C12CD12C7601CD
:102300000297C1E0262F30E0F901E95BF44F28176E
:102310003907BCF52185B13041F02C52293050F1FC
:10232000653608F002C1B0E028C02A51273090F489
:10233000513009F4FAC021E0711120E0722F4032CF
:10234000F0F4CC0CDD1CEE1CFF1C213081F06894F5
:10235000C0F80DC0552381F0403298F4CC0CDD1C40
:10236000EE1CFF1C713011F06894C0F8AC274F5F71
:1023700050E003C0B1E001C051E06F5FC3CF81E026
:1023800001C080E0938598529B3008F0CEC0A8131E
:10239000CCC0860111278091BD0F91E0980F9093DA
:1023A000BD0F1F928F938CE692E09F938F93C5E7AA
:1023B000DFE0DF93CF930E9440DFBE0189EC9FE016
:1023C0000E945DD96EE97CE089EC9FE00E9438D9DB
:1023D000C701AA27BB27BF93AF939F938F9383EC2B
:1023E00092E09F938F93DF93CF930E9440DFBE01D3
:1023F00089EC9FE00E945DD9CD2CDE2CEF2CFF24D0
:10240000DD24DF92CF928CE393E09F938F93DF9351
:10241000CF930E9440DFBE0189EC9FE00E945DD90E
:102420001F930F9386EB92E09F938F93DF93CF934D
:102430000E9440DFBE0189EC9FE00E945DD969E9FE
:102440007CE089EC9FE00E9438D98DB79EB74A9610
:102450000FB6F8949EBF0FBE8DBF0115110539F45C
:1024600067EC74E089EC9FE00E945DD952C00130B6
:10247000110519F464E97CE005C00230110539F456
:102480006AE87CE089EC9FE00E9438D942C00330C2
:10249000110519F462E87CE0F5CF0530110519F457
:1024A00065E77CE0EFCF0430110519F466E67CE0C7
:1024B000E9CF0738110519F46BE57CE0E3CF04336D
:1024C000110519F46FE47CE0DDCF0837110519F42C
:1024D00061E47CE0D7CF0D35110519F464E37CE0AD
:1024E000D1CF1F930F9383E992E09F938F9385E75A
:1024F0009FE09F938F930E9440DF65E77FE089EC28
:102500009FE00E945DD90F900F900F900F900F9059
:102510000F9089EC9FE00E9465D981E08093490B80
:102520001092480B1092470B01C080E0DF91CF91D1
:102530001F910F91FF90EF90DF90CF9008958F92B1
:102540009F92AF92BF92CF92DF92EF92FF920F9342
:102550001F93CF93DF938091470B9091480B8A3262
:10256000910529F08C9709F061C084E001C082E0F8
:102570009091510B9F3108F059C020E090E0C12CA0
:10258000D12C760141E0E82FF0E0E95BF44F318592
:102590003F3188F0313308F049C032853F3108F0CF
:1025A00045C0CC0CDD1CEE1CFF1C6894C0F82C3020
:1025B00058F0942709C03B30C8F132853E31B0F164
:1025C000CC0CDD1CEE1CFF1C2F5F8E5F8932D8F215
:1025D00091112CC0C2FC2AC090913E0B80913D0B02
:1025E000981326C08090430B9090440BA090450B0D
:1025F000B090460B8CED880E85E0981EA11CB11C96
:102600000E942DD586169706A806B90688F08091F7
:102610003F0B9091400BA091410BB091420B8C1558
:102620009D05AE05BF0521F481E0A2C080E0A0C0F9
:10263000C0923F0BD092400BE092410BF092420BC4
:10264000D701C60106E0B695A795979587950A9597
:10265000D1F78370823051F0813021F0833021F046
:1026600000E005C003E003C002E001C001E01C2D52
:102670001F7312951170C3FE02C01E5F02C0C5FC1D
:102680001C5F8091BD0F91E0980F9093BD0F1F923A
:102690008F938CE692E09F938F93C5E7DFE0DF9303
:1026A000CF930E9440DFBE0189EC9FE00E945DD97C
:1026B00066EF7BE089EC9FE00E9438D9CD2CDE2CC0
:1026C000EF2CFF24DF92CF928BEC92E09F938F93BD
:1026D000DF93CF930E9440DFBE0189EC9FE00E9410
:1026E0005DD91F920F9386EB92E09F938F93DF93B8
:1026F000CF930E9440DFBE0189EC9FE00E945DD92C
:1027000061EF7BE089EC9FE00E9438D98DB79EB7DE
:1027100042960FB6F8949EBF0FBE8DBF111103C035
:102720006CEE7BE016C0113019F468EE7BE011C04E
:10273000123019F460EE7BE00CC0133019F46BED2D
:102740007BE007C0143019F463ED7BE002C06CEC51
:102750007BE089EC9FE00E9438D989EC9FE00E94E1
:1027600065D981E08093490B1092480B1092470B7A
:10277000DF91CF911F910F91FF90EF90DF90CF905D
:10278000BF90AF909F908F900895BF92CF92DF92AD
:10279000EF92FF920F931F93CF93DF93CDB7DEB7E6
:1027A0002B970FB6F894DEBF0FBECDBF2091470B1D
:1027B0003091480BC9018497419708F086C0E0909A
:1027C000510BD090520B84E18E1510F18091530B78
:1027D0008B32F0F48091540B8B32D0F48091550BF6
:1027E0008B32B0F48091560B8B3290F48091570B62
:1027F0008C52813168F48091580B8C52813140F4B5
:1028000089E18093510B8093520BFF24F39401C014
:10281000F12C8091510B8B3220F080E090E0DC01B4
:102820001AC08091520B8B32C0F78091530B8B32C0
:10283000A0F78091540B8B3280F78091550B8C520E
:10284000813158F78091560B8C52813130F783E0FB
:1028500090E0A0E0B0E061E0462F50E0421753075F
:10286000F4F4FA01E95BF44F41854C3240F04E3309
:1028700008F054C1880F991FAA1FBB1F0EC0453115
:1028800008F44CC142854551473108F047C16F5F9C
:10289000880F991FAA1FBB1F81606F5FDDCF009754
:1028A000A105B10509F43AC14B2F552766277727B3
:1028B0004F705527662777274E3051056105710502
:1028C00031F0E1E0FE1609F44DC080E02BC1AC010F
:1028D000BD011AE076956795579547951A95D1F7FA
:1028E0008A011F73792F737020E030E063E0A80144
:1028F000022E02C0569547950A94E2F7437064276A
:102900002E5F3F4F2E30310591F7761324C0AC0176
:10291000BD01E2E07695679557954795EA95D1F721
:10292000242F2F73B22E30E0C42EC094EC2DE37010
:10293000CE2EF901A4E0F595E795AA95E1F7CE260C
:102940008370F901F595E795F595E795E370CE2647
:102950008C1105C00CC021E0F212B7CF03C081E09A
:10296000F812B3CFE092510BD092520BAECF92E05F
:10297000B91609F446C0E6E1BE1609F445C0BB200D
:1029800009F445C084E0B81609F444C082E090E040
:1029900060E041FD15C0A901082E02C0559547957C
:1029A0000A94E2F74170660F642B01968630910518
:1029B00091F7262F20952F70283078F52F5F2DC0A6
:1029C000A901082E02C0559547950A94E2F7417077
:1029D000660F642B01968630910591F789E0EDE052
:1029E000F2E0DE01119601900D928A95E1F76150B7
:1029F000E1E0F0E0EC0FFD1FE60FF11D208135E076
:102A00000DC020E031E00AC020E030E007C020E047
:102A100032E004C020E033E001C034E08091BD0F1B
:102A200091E0980F9093BD0F1F928F938CE692E0E8
:102A30009F938F9365E7E62E6FE0F62EFF92EF925D
:102A40002B873A870E9440DFB70189EC9FE00E9404
:102A50005DD96FEB7BE089EC9FE00E9438D91F9332
:102A60000F938BEC92E09F938F93FF92EF920E94D3
:102A700040DFB70189EC9FE00E945DD91F9281E0A1
:102A80008F9386EB92E09F938F93FF92EF920E9439
:102A900040DFB70189EC9FE00E945DD96AEB7BE0E3
:102AA00089EC9FE00E9438D90FB6F894DEBF0FBEC4
:102AB000CDBF3A852B85332311F0333019F465EB04
:102AC0007BE005C03150323038F461EB7BE089ECBB
:102AD0009FE00E9438D916C01F922F9383E992E09D
:102AE0009F938F93FF92EF920E9440DF65E77FE014
:102AF00089EC9FE00E945DD90F900F900F900F908E
:102B00000F900F9089EC9FE00E9465D981E080933F
:102B1000490B1092480B1092470B04C091E0F91238
:102B2000D4CE20CF2B960FB6F894DEBF0FBECDBF0C
:102B3000DF91CF911F910F91FF90EF90DF90CF9099
:102B4000BF9008953F924F925F926F927F928F92C3
:102B50009F92AF92BF92CF92DF92EF92FF920F932C
:102B60001F93CF93DF93CDB7DEB764970FB6F8947A
:102B7000DEBF0FBECDBF80E1E6E1F2E0DE011196DF
:102B800001900D928A95E1F72091470B3091480B07
:102B90002437310529F02238310511F080E084C155
:102BA0001092500B80E090E0C12CD12C7601812C4A
:102BB000912C5401412C512C3201FC01E95BF44F62
:102BC0004285403120F441E05385513108F440E022
:102BD000582F61E0680F673128F4440C551C661CBF
:102BE000771C442A6AEE650F603428F4880C991C1F
:102BF000AA1CBB1C842A56555C3128F4CC0CDD1C65
:102C0000EE1CFF1CC42A029684379105B1F62238C7
:102C1000310501F5E5ECFBE010E080E0DF01119704
:102C20009C91913120F091E02081203108F090E0DA
:102C3000880F892BDE01119690E02D91281301C099
:102C4000192F9F5F9031C9F732962BE0E33DF207D1
:102C500029F701C010E0D301C2018E7F9370AA272B
:102C6000BB278C339240A105B10509F097CF909115
:102C70003E0B80913D0B981328C02091430B30915F
:102C8000440B4091450B5091460B24523A4F4F4F05
:102C90005F4F2C8B398B4A8B5B8B0E942DD52C89F7
:102CA00039894A895B89261737074807590768F029
:102CB00080913F0B9091400BA091410BB091420B42
:102CC0008C159D05AE05BF0519F180913D0B8C302B
:102CD00009F52091430B3091440B4091450B5091E5
:102CE000460B2053384F4F4F5F4F2C8B398B4A8BFD
:102CF0005B8B0E942DD52C8939894A895B896217A3
:102D000073078407950730F480913D0B80933E0B49
:102D100081E0CAC0C0923F0BD092400BE092410BC1
:102D2000F092420BD701C6016AE0B695A795979538
:102D300087956A95D1F7282F2F702B50BB27AF2D81
:102D40009E2D8D2D223078F4282F2170322ED70120
:102D5000C60107E0B695A795979587950A95D1F78F
:102D6000082F017014C0B701A601F9E076956795A8
:102D700057954795FA95D1F7242F2170322E8770F9
:102D8000833020F481E0382601E001C000E02C2DE2
:102D90002F7340FC20688091BD0F91E0980F9093B5
:102DA000BD0F1F928F938CE692E09F938F93E5E780
:102DB000EE2EEFE0FE2EFF92EF922C8B0E9440DF72
:102DC000B70189EC9FE00E945DD964ED72E089EC67
:102DD0009FE00E945DD9BF92AF929F928F9281EA4D
:102DE00092E09F938F93FF92EF920E9440DFB70192
:102DF00089EC9FE00E945DD91F922C892F9326EBCE
:102E000032E03F932F93FF92EF920E9440DFB70191
:102E100089EC9FE00E945DD96CEA7BE089EC9FE041
:102E20000E9438D90FB6F894DEBF0FBECDBF809197
:102E3000470B9091480B82389105B1F41F921F9374
:102E400083E992E09F938F93FF92EF920E9440DF7D
:102E5000B70189EC9FE00E945DD90F900F900F9011
:102E60000F900F900F9011C0013031F468EA7BE0B1
:102E700089EC9FE00E9438D991E0391212C063EAD0
:102E80007BE089EC9FE00E9438D989EC9FE00E94AA
:102E900065D981E08093490B1092480B1092470B43
:102EA00003C06FE97BE0EDCF64960FB6F894DEBF08
:102EB0000FBECDBFDF91CF911F910F91FF90EF908B
:102EC000DF90CF90BF90AF909F908F907F906F904A
:102ED0005F904F903F9008958F929F92AF92BF92D4
:102EE000CF92DF92EF92FF920F931F93CF93DF93D6
:102EF000CDB7DEB728970FB6F894DEBF0FBECDBFB3
:102F00008091470B9091480B9C0124553109273043
:102F1000310510F080E032C12DEA280FE22FF0E0F9
:102F2000213039F0DF01A95BB44F18962C912B3179
:102F300088F7E95BF44F21852456253158F722851F
:102F40002456253138F720E030E070E060E0A0EB57
:102F5000A80F422F440F4A0F50E0481759074CF56D
:102F6000FA01E95BF44F40854531A0F64185E62F33
:102F7000F0E04A3148F441E050E04C0F5D1FE40FAF
:102F8000F51F4081440F09C041E050E04C0F5D1F28
:102F9000E40FF51F4081440F416040837F5F78302C
:102FA00028F06F5F663008F0B5CF70E02F5F3F4FBD
:102FB000D0CF1A810D81812E912C982C8824800EDF
:102FC000911CAA2497FCA094BA2C90913E0B80915E
:102FD0003D0B981324C0C090430BD090440BE0905D
:102FE000450BF090460B5CEDC50E55E0D51EE11C7F
:102FF000F11C0E942DD5C616D706E806F90678F012
:1030000080913F0B9091400BA091410BB091420BEE
:1030100088159905AA05BB0511F481E0AFC080921F
:103020003F0B9092400BA092410BB092420BF98063
:10303000F0948B81F8126ECFE12EE0948C81E8122F
:1030400069CF0F700730B1F00830B1F00B30B1F03C
:103050000430B1F00330B1F00C30B1F00D30B1F00C
:103060000230B9F00530C9F00A3009F053CF41E021
:1030700020E015C041E00BC041E00CC042E007C0B9
:1030800042E008C043E003C043E004C044E021E064
:1030900002C044E020E030E003C041E021E031E044
:1030A0008091BD0F91E0980F9093BD0F1F928F9369
:1030B0008CE692E09F938F9305E71FE01F930F9399
:1030C00028873F834E830E9440DFB80189EC9FE050
:1030D0000E945DD966E97BE089EC9FE00E9438D9C7
:1030E0001F92EF921F92FF928EED92E09F938F932B
:1030F0001F930F930E9440DFB80189EC9FE00E946C
:103100005DD91F924E814F9386EB92E09F938F93F0
:103110001F930F930E9440DFB80189EC9FE00E944B
:103120005DD961E97BE089EC9FE00E9438D90FB658
:10313000F894DEBF0FBECDBF3F812885313039F412
:103140006DE87BE089EC9FE00E9438D92885211149
:1031500012C068E87BE089EC9FE00E9438D989ECD6
:103160009FE00E9465D981E08093490B1092480B43
:103170001092470B03C064E87BE0EDCF28960FB6B2
:10318000F894DEBF0FBECDBFDF91CF911F910F919D
:10319000FF90EF90DF90CF90BF90AF909F908F9077
:1031A0000895CF92DF92EF92FF920F931F93CF93E8
:1031B000DF93CDB7DEB728970FB6F894DEBF0FBE0A
:1031C000CDBF8091470B9091480B9C012D7F2435FA
:1031D000310511F080E0E8C01E828635910531F49A
:1031E0008091520B8638B0F354E001C052E060E0A9
:1031F00040E0252F30E0235B3F4F852F90E02817DC
:1032000039073CF1FC01E95BF44F8285813110F70D
:1032100081858F3250F0E1E0F0E0EC0FFD1FE40F0C
:10322000F11D8081880F81600AC0803198F2E1E051
:10323000F0E0EC0FFD1FE40FF11D8081880F80830B
:103240006F5F683021F44F5F463020F660E05E5FCC
:10325000D4CF90913E0B80913D0B981311C0C0903C
:10326000430BD090440BE090450BF090460B0E942E
:103270002DD5C616D706E806F90610F081E094C0F1
:10328000F9809A812F2D207F892F807F2813A2CF4C
:103290008F2D80958F709F7089139CCF2B818C818F
:1032A0008095281397CF80E8820F8230B0F08CE7AA
:1032B000820F833090F02C3881F0263C71F0223060
:1032C00070F08CEF820F833050F02C3041F02632BA
:1032D00031F0263409F07ECF02C030E001C031E089
:1032E0008091BD0F91E0980F9093BD0F1F928F9327
:1032F0008CE692E09F938F9305E71FE01F930F9357
:103300002F8338870E9440DFB80189EC9FE00E943C
:103310005DD96EEC7AE089EC9FE00E9438D98D810E
:103320001F928F931F92FF928EED92E09F938F9347
:103330001F930F930E9440DFB80189EC9FE00E9429
:103340005DD92F812F701F922F9386EB92E09F9370
:103350008F931F930F930E9440DFB80189EC9FE089
:103360000E945DD969EC7AE089EC9FE00E9438D92F
:103370000FB6F894DEBF0FBECDBF3885311103C044
:1033800064EC7AE002C060EC7AE089EC9FE00E9495
:1033900038D989EC9FE00E9465D981E08093490B80
:1033A0001092480B1092470B28960FB6F894DEBF88
:1033B0000FBECDBFDF91CF911F910F91FF90EF9086
:1033C000DF90CF9008958F929F92AF92BF92CF924D
:1033D000DF92EF92FF920F931F93CF93DF931F9291
:1033E000CDB7DEB78091470B9091480B8E33910596
:1033F00039F09C012D7F2034310511F080E000C1AF
:1034000022E4281B223038F0243048F4C12CD12C7F
:103410007601C39409C0C12CD12C760105C053E0BC
:10342000C52ED12CE12CF12C22E00197E22FF0E007
:10343000E817F907C4F4E95BF44F31853C3050F0EC
:1034400030853C30D8F6CC0CDD1CEE1CFF1C68949B
:10345000C0F807C030853B3088F2CC0CDD1CEE1C78
:10346000FF1C2E5FE3CF90913E0B80913D0B981394
:1034700011C08090430B9090440BA090450BB090EE
:10348000460B0E942DD586169706A806B90610F0A1
:1034900081E0B6C0C114D104E104F10409F4AECF57
:1034A000D701C60104E0B695A795979587950A952B
:1034B000D1F78F708E3009F0A1CF460157011CE083
:1034C000B694A794979487941A95D1F7882D8F7006
:1034D0008F3009F093CFBB27AF2D9E2D8D2D282F38
:1034E0002C252F702950223008F088CF482F4F709C
:1034F000242F30E0A3E035952795AA95E1F7122F08
:10350000582F5370533021F011E0122750E001C0C2
:1035100040E042FD06C041FD06C040FF06C003E09A
:1035200005C001E003C002E001C000E08091BD0FD2
:1035300091E0980F9093BD0F1F928F932CE632E08D
:103540003F932F93F5E7EF2EFFE0FF2EFF92EF92D0
:1035500059830E9440DFB70189EC9FE00E945DD94A
:103560006FE97AE089EC9FE00E9438D9BF92AF9270
:103570009F928F9225E732E03F932F93FF92EF9235
:103580000E9440DFB70189EC9FE00E945DD91F9245
:103590000F9326EB32E03F932F93FF92EF920E941E
:1035A00040DFB70189EC9FE00E945DD96AE97AE0CB
:1035B00089EC9FE00E9438D90FB6F894DEBF0FBEA9
:1035C000CDBF5981533031F466E97AE089EC9FE050
:1035D0000E9438D9113019F462E97AE002C06DE82E
:1035E0007AE089EC9FE00E9438D989EC9FE00E9444
:1035F00065D981E08093490B1092480B1092470BDC
:103600000F90DF91CF911F910F91FF90EF90DF907E
:10361000CF90BF90AF909F908F9008957F928F92A0
:103620009F92AF92BF92CF92DF92EF92FF920F9351
:103630001F93CF93DF93CDB7DEB729970FB6F894DA
:10364000DEBF0FBECDBF2091470B3091480BC901A3
:10365000845491090D9710F080E08CC11F82EDE534
:10366000FBE04CE08291833360F44150D9F78091C4
:10367000530B853130F041E08091520B853108F4D5
:1036800040E080E090E000E0F12CB0E0A0E010E04D
:1036900050E0BA01695B744FEE24E3944E5F5F4FD4
:1036A000FB01E80FF91FE285E53160F0B130A1F2CE
:1036B000E1E0F0E0EC0FFD1FE10FF11DB081BB0F69
:1036C000B0830FC0BB2389F0E1E0F0E0EC0FFD1FF9
:1036D000E10FF11DB081BB0FB160B0830C3208F473
:1036E000FE24AF5F0F5FB0E001C0B1E0FA01E80F68
:1036F000F91FE217F3071CF0FF2051F0ADCFA830FF
:1037000019F41F5FB0E0A0E00196183048F2F4CF42
:1037100089818C3209F0A0CF1A81C12ED12C0B8166
:10372000DC2CCC24C00ED11CEE24D7FCE094FE2C63
:10373000FE2CED2CDC2CCC247E80C70CD11CE11C93
:10374000F11C90913E0B80913D0B981324C080900A
:10375000430B9090440BA090450BB090460B84EF28
:10376000880E81E0981EA11CB11C0E942DD58616E2
:103770009706A806B90678F080913F0B9091400B10
:10378000A091410BB091420B8C159D05AE05BF0574
:1037900011F481E0EFC0C0923F0BD092400BE09259
:1037A000410BF092420B5D81252F30E0C90174E09E
:1037B000959587957A95E1F780FFD4C044E08770AE
:1037C00090E09595879580FD426095958795842B2F
:1037D000BB24B394B80E3595279535952795322F90
:1037E000337020FF02C092E001C090E0932E9694C7
:1037F000992A5170C52E93E0991203C086508230E9
:1038000010F040E003C0912CB12C41E0DC80D1FAF3
:10381000DD24D0F8872D90E0B5E095958795BA9591
:10382000E1F780FF02C024E001C020E09595879574
:1038300080FD226095958795A22EA82A8091BD0FC4
:1038400091E0980F9093BD0F1F928F932CE632E07A
:103850003F932F93F5E7EF2EFFE0FF2EFF92EF92BD
:1038600049870E9440DFB70189EC9FE00E945DD943
:103870006EE07AE089EC9FE00E9438D91F920F93A6
:103880001F921F932EED32E03F932F93FF92EF9202
:103890000E9440DFB70189EC9FE00E945DD91F9232
:1038A000BF921F929F922BEE32E03F932F93FF9295
:1038B000EF920E9440DFB70189EC9FE00E945DD942
:1038C00069E07AE089EC9FE00E9438D90FB6F8945D
:1038D000DEBF0FBECDBF4985413031F465E07AE0EF
:1038E00089EC9FE00E9438D9C1103EC060E07AE0C8
:1038F00089EC9FE00E9438D967EF79E089EC9FE07E
:103900000E9438D9D11033C063EF79E089EC9FE091
:103910000E9438D92A2D332727FD30953F93AF9247
:103920008CEF92E09F938F9385E79FE09F938F9317
:103930000E9440DF65E77FE089EC9FE00E945DD94F
:1039400089EC9FE00E9465D981E08093490B109239
:10395000480B1092470B0F900F900F900F900F9005
:103960000F9008C040E02BCF6CEF79E0C1CF6EEE36
:1039700079E0CCCF29960FB6F894DEBF0FBECDBF4D
:10398000DF91CF911F910F91FF90EF90DF90CF903B
:10399000BF90AF909F908F907F9008956F927F928D
:1039A0008F929F92AF92BF92CF92DF92EF92FF924F
:1039B0000F931F93CF93DF9300D01F92CDB7DEB745
:1039C0008091470B9091480B9C0127513109293177
:1039D000310510F080E0DEC02091500B2232D1F78B
:1039E0001092500B1B8271E060E040E050E0272F06
:1039F00030E0281739076CF5F901E95BF44F2185B0
:103A0000253080F0203130F7613021F3E1E0F0E043
:103A1000EC0FFD1FE50FF11D2081220F2160208397
:103A20004F5F0FC0662361F0E1E0F0E0EC0FFD1F97
:103A3000E50FF11D2081220F20834F5F60E001C060
:103A400061E0483021F45F5F543020F640E07F5F52
:103A5000CECF6A80862C912C7B80072D10E0982C8D
:103A60008824800E911E90913E0B80913D0BA12CDD
:103A7000B12C981324C0C090430BD090440BE0901D
:103A8000450BF090460B84EFC80E81E0D81EE11C78
:103A9000F11C0E942DD5C616D706E806F90678F067
:103AA00080913F0B9091400BA091410BB091420B44
:103AB00088159905AA05BB0511F481E06BC08092B9
:103AC0003F0B9092400BA092410BB092420B809121
:103AD000BD0F91E0980F9093BD0F1F928F938CE6CE
:103AE00092E09F938F93B5E7EB2EBFE0FB2EFF9202
:103AF000EF920E9440DFB70189EC9FE00E945DD900
:103B000062E779E089EC9FE00E9438D91F926F92BA
:103B100089811F928F938EED92E09F938F93FF92F6
:103B2000EF920E9440DFB70189EC9FE00E945DD9CF
:103B30001F927F9286EB92E09F938F93FF92EF927A
:103B40000E9440DFB70189EC9FE00E945DD96DE6DD
:103B500079E089EC9FE00E9438D9159507950FB65A
:103B6000F894DEBF0FBECDBF00FD03C069E679E06B
:103B700002C064E679E089EC9FE00E9438D989ECC4
:103B80009FE00E9465D981E08093490B1092480B19
:103B90001092470B0F900F900F900F90DF91CF91E5
:103BA0001F910F91FF90EF90DF90CF90BF90AF905B
:103BB0009F908F907F906F9008958F929F92AF9279
:103BC000BF92CF92DF92EF92FF920F931F93CF930A
:103BD000DF93CDB7DEB728970FB6F894DEBF0FBEE0
:103BE000CDBF8091470B9091480B9C012D7F2033D6
:103BF000310511F080E007C18E010F5F1F4F28E0F3
:103C0000F80111922A95E9F78233910539F4209150
:103C1000510B285C293170F733E001C031E050E0EE
:103C200040E020E0C12CD12C7601E32FF0E0E81732
:103C3000F9076CF5E95BF44F6185633280F0653319
:103C4000C8F66085633210F03230A0F6CC0CDD1C73
:103C5000EE1CFF1C6894C0F8220F21600CC061317B
:103C600048F26085623210F4323020F6CC0CDD1C54
:103C7000EE1CFF1C220F4F5F433039F4F801E50FB3
:103C8000F11D20835F5F40E020E03E5FCECF90914A
:103C90003E0B80913D0B981324C08090430B909075
:103CA000440BA090450BB090460BF0ED8F0EF7E063
:103CB0009F1EA11CB11C0E942DD586169706A80632
:103CC000B90678F080913F0B9091400BA091410B89
:103CD000B091420B8C159D05AE05BF0511F481E036
:103CE00092C0C0923F0BD092400BE092410BF092F9
:103CF000420BCF80E5E0EC1508F47CCFD8848FEF41
:103D00008D0D833008F076CF8091BD0F91E0980F34
:103D10009093BD0F1F928F938CE692E09F938F93A9
:103D200085E79FE09F938F930E9440DF65E77FE0E8
:103D300089EC9FE00E945DD969E579E089EC9FE01C
:103D40000E9438D97E0187E0E80EF11C0F900F9099
:103D50000F900F900F900F90F80161918F0140E14B
:103D600050E089EC9FE00E943FDA0E151F05A1F795
:103D70001F92CF9287E093E09F938F9385E79FE018
:103D80009F938F930E9440DF65E77FE089EC9FE07F
:103D90000E945DD964E579E089EC9FE00E9438D902
:103DA0000F900F900F900F900F900F90F5E0CF12A3
:103DB00010C082E0D81203C066E479E015C060E567
:103DC00079E089EC9FE00E9438D9E1E0DE120AC078
:103DD00003C0F1E0DF1203C06CE479E005C082E0CB
:103DE000D81651F361E479E089EC9FE00E9438D95C
:103DF00089EC9FE00E9465D981E08093490B109285
:103E0000480B1092470B28960FB6F894DEBF0FBEF2
:103E1000CDBFDF91CF911F910F91FF90EF90DF9079
:103E2000CF90BF90AF909F908F9008958F929F9268
:103E3000AF92BF92CF92DF92EF92FF920F931F93B8
:103E4000CF93DF938091470B9091480B8A3891056F
:103E500009F055C08091500B8F3009F46DC0C12C12
:103E6000D12C760189E090E0FC01E95BF44F4285BA
:103E7000338524855185553108F041C0453130F4F2
:103E80003531E8F52631D8F120E007C04531B9F1E8
:103E90003531A8F5253198F521E0CC0CDD1CEE1C60
:103EA000FF1CC22A049689389105F1F690913E0BC9
:103EB00080913D0B981325C08090430B9090440B4C
:103EC000A090450BB090460B2CEB820E22E0921E88
:103ED000A11CB11C0E942DD586169706A806B9060E
:103EE00080F080913F0B9091400BA091410BB091DD
:103EF000420B8C159D05AE05BF0519F41DC080E071
:103F0000A9C010913D0B1C30C9F48090430B9090D8
:103F1000440BA090450BB090460B80ED880E87E0D7
:103F2000981EA11CB11C0E942DD5681579058A0523
:103F30009B0520F410933E0B81E08CC0C0923F0B98
:103F4000D092400BE092410BF092420BD701C60198
:103F5000EBE1B695A79597958795EA95D1F75C0122
:103F600021E0A222BB248C0115950795077011272B
:103F7000A4E095958795AA95E1F7282F2170C22F87
:103F800080E0D82FCA15DB0509F408608091BD0FC9
:103F900091E0980F9093BD0F1F928F938CE692E063
:103FA0009F938F93C5E7DFE0DF93CF930E9440DFBD
:103FB000BE0189EC9FE00E945DD968E379E089EC5D
:103FC0009FE00E9438D983E0F822FF92EF92DF92BF
:103FD000CF9281EA92E09F938F93DF93CF930E94D9
:103FE00040DFBE0189EC9FE00E945DD91F930F93D3
:103FF00086EB92E09F938F93DF93CF930E9440DFF5
:10400000BE0189EC9FE00E945DD963E379E089EC11
:104010009FE00E9438D98DB79EB744960FB6F894AA
:104020009EBF0FBE8DBFAB2891F46EE279E089ECA4
:104030009FE00E9438D989EC9FE00E9465D981E019
:104040008093490B1092480B1092470B03C06AE211
:1040500079E0EDCFDF91CF911F910F91FF90EF901D
:10406000DF90CF90BF90AF909F908F9008958F92E8
:104070009F92AF92BF92CF92DF92EF92FF92CF9337
:10408000DF938091470B9091480B4A9709F04DC000
:10409000E3E5FBE0C12CD12C7601DF0111978C9177
:1040A00090818F3240F08A3408F03FC097519731A9
:1040B000E0F581E007C09F529B31B8F58751873109
:1040C000A0F580E0CC0CDD1CEE1CFF1CC82A32964B
:1040D0008BE0EB36F80709F790913E0B80913D0B92
:1040E000981325C08090430B9090440BA090450BF3
:1040F000B090460B9CEB890E92E0991EA11CB11C5E
:104100000E942DD586169706A806B90680F08091E4
:104110003F0B9091400BA091410BB091420B8C153D
:104120009D05AE05BF0519F46AC080E069C0C09264
:104130003F0BD092400BE092410BF092420B8091EA
:10414000BD0F91E0980F9093BD0F1F928F938CE657
:1041500092E09F938F93C5E7DFE0DF93CF930E94B8
:1041600040DFBE0189EC9FE00E945DD965E173E00C
:1041700089EC9FE00E945DD9D701C60122E0B69587
:10418000A795979587952A95D1F7BF93AF939F935E
:104190008F938BEC92E09F938F93DF93CF930E944A
:1041A00040DFBE0189EC9FE00E945DD983E0C82218
:1041B000DD24EE24FF24FF92EF92DF92CF928AE17A
:1041C00093E09F938F93DF93CF930E9440DFBE01D4
:1041D00089EC9FE00E945DD989EC9FE00E9465D93F
:1041E00081E08093490B1092480B1092470B8DB7DA
:1041F0009EB746960FB6F8949EBF0FBE8DBF81E066
:10420000DF91CF91FF90EF90DF90CF90BF90AF9074
:104210009F908F900895AF92BF92CF92DF92EF92CE
:10422000FF920F931F93CF93DF9300D01F921F92A3
:10423000CDB7DEB78091470B9091480B9C012A5473
:1042400031092530310510F080E0B0C12091500BCC
:104250002E32D1F31D828E34910549F08C349105B4
:1042600041F48091520B833320F422E003C024E018
:1042700001C020E030E080E090E0E12CF12CB12C96
:10428000D9011296A901465B5F4F295B344FBD01EE
:10429000680F791F461757078CF1F901E80FF91FCE
:1042A0006485633188F66385653678F063586331D9
:1042B00010F4BB24B394E1E0F0E0EC0FFD1FEF0D30
:1042C000F11D6081660F61600CC06353643108F0BA
:1042D000BBCFE1E0F0E0EC0FFD1FEF0DF11D6081C1
:1042E000660F6083E39468E0E61206C0F39465E02D
:1042F0006F1508F4A9CFE12C0296C9CF90913E0B1F
:1043000080913D0B981317C0C090430BD090440B85
:10431000E090450BF090460B88EBC80E8BE0D81E62
:10432000E11CF11C0E942DD5C616D706E806F90639
:1043300010F081E03BC1D9806A81B11041C0CD2C21
:10434000962F9B7FD92E63FF7FCF6370633009F474
:104350007BCF0C818B81E02EE2944FE0E422F12CA4
:1043600020E1829FE00CF11C1124F3FE0DC080E0DF
:1043700090E18E199F09813931E093070CF064CFE9
:104380007C016894F7F806C061E9E61661E0F6067C
:104390000CF05ACF80E1089F8001112411278D81F4
:1043A00090E0959587958F70080F111D04361105C3
:1043B0000CF04ACFA12C043111050CF472C073C06B
:1043C000862F8F70E82EF12CEB814E2F50E07C81F0
:1043D0008D2D90E0F4E095958795FA95E1F72D2DD8
:1043E0002F70820F911D262F30E0A4E03595279580
:1043F000AA95E1F7820F931F8E0D9F1D9A01B4E0DD
:1044000035952795BA95E1F7820F931FEF708E0FC0
:10441000911D272F30E014E0359527951A95E1F787
:10442000820F931F272F2E70820F911D8F73992754
:10443000072F017010E025E0000F111F2A95E1F70A
:104440002D81020F111D8017910709F0FDCE962FC7
:104450009370C92EA62EAA1CAA24AA1C60736033CE
:1044600009F4F2CEFE2CEE24E40EF51EE11428E051
:10447000F2064CF080E090E19C012E193F09790191
:104480006894F7F806C031E8E31632E0F3060CF062
:10449000DBCE76958CEE870F873418F4072F10E06B
:1044A00002C006E610E08091BD0F91E0980F909356
:1044B000BD0F1F928F938CE692E09F938F9385E7B9
:1044C0009FE09F938F930E9440DF65E77FE089EC38
:1044D0009FE00E945DD90F900F900F900F900F906A
:1044E0000F90B11003C06CEC78E002C06DEB78E087
:1044F00089EC9FE00E9438D91F92DF921F92CF92E1
:104500008EED92E09F938F9345E7C42E4FE0D42E1B
:10451000DF92CF920E9440DFB60189EC9FE00E94BB
:104520005DD9FF92EF9280E794E09F938F93DF92A3
:10453000CF920E9440DFB60189EC9FE00E945DD9D6
:104540000FB6F894DEBF0FBECDBF03361105ACF435
:104550001F930F938DE293E09F938F93DF92CF92FF
:104560000E9440DFB60189EC9FE00E945DD90F9068
:104570000F900F900F900F900F9091E0B9120BC019
:10458000A11003C065EB78E002C06CEA78E089EC2A
:104590009FE00E9438D989EC9FE00E9465D981E0B4
:1045A0008093490B1092480B1092470B0F900F907D
:1045B0000F900F900F90DF91CF911F910F91FF906F
:1045C000EF90DF90CF90BF90AF900895AF92BF92E1
:1045D000CF92DF92EF92FF920F931F93CF93DF93CF
:1045E000CDB7DEB729970FB6F894DEBF0FBECDBFAB
:1045F0008091470B9091480B8639910529F08439B9
:10460000910521F080E0E1C092E001C090E0E92F47
:10461000F0E0E95BF44F84858035A0F38585803533
:1046200088F38981880F816089839A5F31E020E077
:10463000E92FF0E0E95BF44F8185E22FF0E041E003
:1046400050E04C0F5D1FE40FF51F813518F080819D
:10465000880F03C08081880F816080833F5F38307E
:1046600021F42F5F283020F430E09E5F963900F36C
:104670008981BD80AE800F811A8118279B811927FF
:104680009C8119271B251A25102798851913BACF45
:104690008B258F3F09F0B6CF90913E0B80913D0B5B
:1046A000981316C0C090430BD090440BE090450B7C
:1046B000F090460B58EEC50E53E0D51EE11CF11CE0
:1046C0000E942DD5C616D706E806F90608F07CC06C
:1046D0000770812F90E054E0959587955A95E1F702
:1046E0002AE0289F7001299FF00C11241F70E10E11
:1046F000F11C94E6099FE00CF11C112449E5E41635
:1047000042E0F40608F07ECFA3FE02C06894F7F8FA
:104710008091BD0F91E0980F9093BD0F1F928F93E2
:104720008CE692E09F938F9305E71FE01F930F9312
:104730000E9440DFB80189EC9FE00E945DD96FECD8
:1047400077E089EC9FE00E9438D98A2D83701F9210
:104750008F9387E393E09F938F931F930F930E9410
:1047600040DFB80189EC9FE00E945DD9FF92EF9293
:1047700080E794E09F938F931F930F930E9440DFF5
:10478000B80189EC9FE00E945DD91F92BF928CE92D
:1047900094E09F938F931F930F930E9440DFB80183
:1047A00089EC9FE00E945DD989EC9FE00E9465D969
:1047B00081E08093490B1092480B1092470B0FB683
:1047C000F894DEBF0FBECDBF81E029960FB6F894F6
:1047D000DEBF0FBECDBFDF91CF911F910F91FF9034
:1047E000EF90DF90CF90BF90AF9008954F925F927F
:1047F0006F927F928F929F92AF92BF92CF92DF92F1
:10480000EF92FF920F931F93CF93DF9300D01F92ED
:10481000CDB7DEB78091470B9091480B823691055A
:1048200079F08436910511F080E024C18091510B1C
:104830008933D0F38091520B8536B0F322E001C06A
:1048400020E062E0620F812C912C5401C12CD12C0C
:10485000760130E0A9014F595F4F2F5C3F4F862F03
:1048600090E0481759072CF1FC01E95BF44F718582
:10487000753188F0281739073CF0CC0CDD1CEE1C94
:10488000FF1C6894C0F813C0880C991CAA1CBB1CA0
:10489000689480F80CC0281739072CF0CC0CDD1C6C
:1048A000EE1CFF1C04C0880C991CAA1CBB1C6E5F6C
:1048B000D6CF90913E0B80913D0B981310C0409045
:1048C000430B5090440B6090450B7090460B0E9438
:1048D0002DD5461657066806790608F0CAC0C114D9
:1048E000D104E104F10431F481149104A104B10470
:1048F00009F49ACF27016624772433272F2D1E2D04
:104900000D2D80EF842580138FCFC501AA27BB27EB
:1049100089839A83AB83BC8377276B2D5A2D492DCE
:104920008C2D8F709C2D92959F70890F982D92954C
:104930009F70890F942D92959F70890F942D9F7071
:10494000890F902F92959F70890F0F70800F99811A
:1049500092959F70890F99819F70890F942F9295DE
:104960009F70890F942F9F70890F8095282D2F702D
:1049700030E08F7090E02817390709F055CFDB0140
:10498000CA019927AA27BB27DC0199278827DD249C
:10499000EE24FF24FE2CED2CDC2CCC24E981CE0E61
:1049A000D11CE11CF11CC80ED91EEA1EFB1E809111
:1049B000BD0F91E0980F9093BD0F1F928F938CE6DF
:1049C00092E09F938F9305E71FE01F930F930E9440
:1049D00040DFB80189EC9FE00E945DD965E874E092
:1049E00089EC9FE00E9438D91F924F928AE892E0AA
:1049F0009F938F931F930F930E9440DFB80189EC20
:104A00009FE00E945DD9912CE4E095948794EA950B
:104A1000E1F79F928F9282E493E09F938F931F938D
:104A20000F930E9440DFB80189EC9FE00E945DD99E
:104A3000FF92EF92DF92CF928BE493E09F938F935C
:104A40001F930F930E9440DFB80189EC9FE00E9402
:104A50005DD989EC9FE00E9465D981E08093490B84
:104A60001092480B1092470B0FB6F894DEBF0FBEA2
:104A7000CDBF81E00F900F900F900F90DF91CF91FD
:104A80001F910F91FF90EF90DF90CF90BF90AF906C
:104A90009F908F907F906F905F904F9008954F926E
:104AA0005F926F927F928F929F92AF92BF92CF92BE
:104AB000DF92EF92FF921F93CF93DF938091470B8A
:104AC0009091480B8637910529F08837910521F0A0
:104AD00080E025C1C0E001C0C2E02C2F30E0F90128
:104AE000E95BF44FEA58FF4F808187508A3080F7A6
:104AF00063E0A901495E5F4F862F90E04817590790
:104B000044F0FC01E95BF44F8185843008F76F5F66
:104B1000F3CF68E16C0FC12CD12C7601A901425C66
:104B20005F4F862F90E048175907C4F0FC01E95BFE
:104B3000F44F8285843060F68185843038F0883087
:104B400038F6CC0CDD1CEE1CFF1C06C0CC0CDD1CAA
:104B5000EE1CFF1C6894C0F86E5FE3CFD0E4DC0F5E
:104B600080E090E0DC01B90164597F4F4D2F50E0A7
:104B700064177507CCF0FA01E95BF44F40854430C7
:104B800008F0A6CF4185443040F0483008F0A0CF6F
:104B9000880F991FAA1FBB1F05C0880F991FAA1F46
:104BA000BB1F8160DE5FE2CFC2592C583F4F4C2FB4
:104BB00050E0241735076CF0FA01E95BF44F4285A9
:104BC000443008F085CF4185483008F081CFCE5F72
:104BD000EECFECE0B695A79597958795EA95D1F736
:104BE000182F137046015701F2E0880C991CAA1C7B
:104BF000BB1CFA95D1F7812A90913E0B80913D0B19
:104C0000981324C04090430B5090440B6090450B88
:104C10007090460B88EE480E83E0581E611C711C94
:104C20000E942DD5461657066806790678F08091C1
:104C30003F0B9091400BA091410BB091420B881516
:104C40009905AA05BB0511F481E069C0C114D1041E
:104C5000E104F10409F43CCF80923F0B9092400BA9
:104C6000A092410BB092420B8091BD0F91E0980F42
:104C70009093BD0F1F928F938CE692E09F938F933A
:104C8000C5E7DFE0DF93CF930E9440DFBE0189ECF0
:104C90009FE00E945DD962E673E089EC9FE00E948C
:104CA00038D99FE0E922FF24FF92EF92DF92CF9262
:104CB00086E593E09F938F93DF93CF930E9440DF2D
:104CC000BE0189EC9FE00E945DD967E573E089EC45
:104CD0009FE00E9438D962E573E089EC9FE00E9472
:104CE00038D98DB79EB70E960FB6F8949EBF0FBEFB
:104CF0008DBF111103C06EE473E002C069E473E07C
:104D000089EC9FE00E9438D989EC9FE00E9465D928
:104D100081E08093490B1092480B1092470BDF9172
:104D2000CF911F91FF90EF90DF90CF90BF90AF9009
:104D30009F908F907F906F905F904F900895CF924B
:104D4000DF92EF92FF920F931F93CF93DF93CDB734
:104D5000DEB728970FB6F894DEBF0FBECDBF8091A7
:104D6000470B9091480B8237910511F5E3E5FBE085
:104D700020E080E010C09F32D8F4A1E0B0E0AC0F9A
:104D8000BD1FA80FB11D9C91990F91609C932F5F3F
:104D90002830E9F032969BE0E33CF907E9F0DF01C7
:104DA00011973C919081931728F438533F3018F3B2
:104DB00080E081C03232E0F79C33D0F3A1E0B0E074
:104DC000AC0FBD1FA80FB11D9C91990FDFCF8F5F56
:104DD000883070F720E0DECF90913E0B80913D0B44
:104DE000981316C0C090430BD090440BE090450B35
:104DF000F090460B80EDC80E87E0D81EE11CF11C38
:104E00000E942DD5C616D706E806F90608F052C04E
:104E10008091BD0F91E0980F9093BD0F1F928F93DB
:104E20008CE692E09F938F9305E71FE01F930F930B
:104E30000E9440DFB80189EC9FE00E945DD96EE3DB
:104E400073E089EC9FE00E9438D98F811F928F9385
:104E50008E811F928F938D811F928F9389811F92D4
:104E60008F9380E693E09F938F931F930F930E94FD
:104E700040DFB80189EC9FE00E945DD963E373E0F5
:104E800089EC9FE00E9438D96BE273E089EC9FE0E7
:104E90000E9438D989EC9FE00E9465D981E0809317
:104EA000490B1092480B1092470B0FB6F894DEBFD7
:104EB0000FBECDBF81E028960FB6F894DEBF0FBEBF
:104EC000CDBFDF91CF911F910F91FF90EF90DF90B9
:104ED000CF900895CF92DF92EF92FF92CF93DF931E
:104EE0008091470B9091480B8433910529F0C69728
:104EF00009F093C082E001C080E044E0480FC12C7B
:104F0000D12C760190E0C296242F30E082179307CF
:104F1000F4F0F901E95BF44F2085223208F07DC0FE
:104F20002185233450F0253608F077C0CC0CDD1CE9
:104F3000EE1CFF1C6894C0F808C02152223108F012
:104F40006CC0CC0CDD1CEE1CFF1C4E5FDDCFC11411
:104F5000D104E104F10409F460C02FEFC216D206B7
:104F6000E206F10409F459C0D701C601AA27BB27FC
:104F70008F3F9F4FA105B10509F44FC08091BD0F30
:104F800091E0980F9093BD0F1F928F938CE692E063
:104F90009F938F93C5E7DFE0DF93CF930E9440DFBD
:104FA000BE0189EC9FE00E945DD963E273E089EC69
:104FB0009FE00E9438D9FF92EF92DF92CF9285E76F
:104FC00092E09F938F93DF93CF930E9440DFBE01C7
:104FD00089EC9FE00E945DD961E173E089EC9FE07C
:104FE0000E9438D962E073E089EC9FE00E9438D9D2
:104FF00089EC9FE00E9465D981E08093490B109273
:10500000480B1092470B8DB79EB70E960FB6F894CB
:105010009EBF0FBE8DBF81E001C080E0DF91CF91C8
:10502000FF90EF90DF90CF9008958F929F92AF9274
:10503000BF92CF92DF92EF92FF92CF93DF93809156
:10504000470B9091480B869711F080E0AAC08091A1
:10505000500B8736D1F71092500B8091510B81374E
:10506000A0F38091520B813780F3E3E5FBE0C12C84
:10507000D12C76012BE0E737F207C9F081919081BE
:10508000833358F0933308F78A34F8F6CC0CDD1CE0
:10509000EE1CFF1C6894C0F8EDCF9233B0F284513F
:1050A0008E3098F6CC0CDD1CEE1CFF1CE3CF9091EB
:1050B0003E0B80913D0B981316C08090430B90904F
:1050C000440BA090450BB090460B80ED880E87E016
:1050D000981EA11CB11C0E942DD586169706A80605
:1050E000B90608F05DC0C114D104E104F10409F46B
:1050F000ACCFD701C601AA27BB278F3F9F4FA10581
:10510000B10509F4A2CF8091BD0F91E0980F909363
:10511000BD0F1F928F938CE692E09F938F93C5E70C
:10512000DFE0DF93CF930E9440DFBE0189EC9FE078
:105130000E945DD969EB72E089EC9FE00E9438D94A
:10514000FF92EF92DF92CF928BEC92E09F938F933E
:10515000DF93CF930E9440DFBE0189EC9FE00E9465
:105160005DD967EA72E089EC9FE00E9438D968E96E
:1051700072E089EC9FE00E9438D989EC9FE00E94A0
:1051800065D981E08093490B1092480B1092470B30
:105190008DB79EB70E960FB6F8949EBF0FBE8DBF0B
:1051A00081E0DF91CF91FF90EF90DF90CF90BF90A3
:1051B000AF909F908F9008958F929F92AF92BF92E1
:1051C000CF92DF92EF92FF92CF93DF938091470BC4
:1051D0009091480B8232910531F08A32910509F0A5
:1051E00058C040E001C048E04F5FC12CD12C76018F
:1051F0000197242F30E02817390714F5D2E0CC0CA2
:10520000DD1CEE1CFF1CDA95D1F7F901E95BF44FC8
:1052100021852232F0F522853EEB320F37FD39C071
:10522000203630F0213A30F42B3730F421E005C03D
:1052300020E003C023E001C022E0C22A4E5FD9CFA4
:1052400090913E0B80913D0B981325C08090430BAD
:105250009090440BA090450BB090460B80ED880ECB
:1052600087E0981EA11CB11C0E942DD586169706BA
:10527000A806B90680F080913F0B9091400BA09159
:10528000410BB091420B8C159D05AE05BF0519F47D
:1052900057C080E056C0C0923F0BD092400BE092C6
:1052A000410BF092420B8091BD0F91E0980F9093CB
:1052B000BD0F1F928F938CE692E09F938F93C5E76B
:1052C000DFE0DF93CF930E9440DFBE0189EC9FE0D7
:1052D0000E945DD965E871E089EC9FE00E9438D9B1
:1052E000FF92EF92DF92CF9281EA92E09F938F93A9
:1052F000DF93CF930E9440DFBE0189EC9FE00E94C4
:105300005DD964E771E089EC9FE00E9438D96AE6D4
:1053100071E089EC9FE00E9438D989EC9FE00E94FF
:1053200065D981E08093490B1092480B1092470B8E
:105330008DB79EB70E960FB6F8949EBF0FBE8DBF69
:1053400081E0DF91CF91FF90EF90DF90CF90BF9001
:10535000AF909F908F9008958F929F92AF92BF923F
:10536000CF92DF92EF92FF920F931F93CF93DF9331
:105370008091470B9091480BC29709F073C08091C0
:10538000500B8F3309F46EC08091810B8E3008F082
:1053900069C0E2E5FBE0A1E5BBE0C0E0812C912C17
:1053A000540180818E3070F09C919E3008F05AC07C
:1053B0008F3108F057C0880C991CAA1CBB1C68943C
:1053C00080F811C0833008F44DC08C918D3020F4EA
:1053D000C11105C0C1E003C0C13009F443C0880C4D
:1053E000991CAA1CBB1C329612968BE0E238F80777
:1053F000C1F690913E0B80913D0B981310C0C09068
:10540000430BD090440BE090450BF090460B0E946C
:105410002DD5C616D706E806F90608F0C5C08114D2
:105420009104A104B104F1F080913D0B8C30E1F0C6
:105430008F30D1F07501640114E0F694E794D794AD
:10544000C7941A95D1F79FE0E922FF24C114D10433
:10545000E104F10439F08FEFC816D8068FE0E806B2
:10546000F104C9F480E0A1C0C090430BD090440B7C
:10547000E090450BF090460B90EDC90E97E0D91ED9
:10548000E11CF11C0E942DD56C157D058E059F0534
:1054900008F486C0CFCFC13011F46894E7F8D50185
:1054A000C401B695A79597958795182F1770082D65
:1054B00001701330B9F2143009F413E08091BD0F7C
:1054C00091E0980F9093BD0F1F928F932CE632E0DE
:1054D0003F932F93C5E7DFE0DF93CF930E9440DF38
:1054E000BE0189EC9FE00E945DD961E57DE089EC19
:1054F0009FE00E9438D9FF92EF92DF92CF9225E78A
:1055000032E03F932F93DF93CF930E9440DFBE01A1
:1055100089EC9FE00E945DD91F921F9326EB32E039
:105520003F932F93DF93CF930E9440DFBE0189EC1E
:105530009FE00E945DD96CE47DE089EC9FE00E94D1
:1055400038D98DB79EB744960FB6F8949EBF0FBE5C
:105550008DBF153070F068E47DE089EC9FE00E941B
:1055600038D9011103C063E47DE00AC06FE37DE038
:1055700007C0013019F46AE37DE002C066E37DE014
:1055800089EC9FE00E9438D989EC9FE00E9465D9A0
:1055900081E08093490B1092480B1092470B05C095
:1055A00080913D0B80933E0B81E0DF91CF911F9165
:1055B0000F91FF90EF90DF90CF90BF90AF909F90B2
:1055C0008F9008954F925F926F927F928F929F92E9
:1055D000AF92BF92CF92DF92EF92FF920F931F9301
:1055E000CF93DF938091470B9091480B8A369105BA
:1055F00009F052C0E2E5FBE081E0812C912C5401DE
:10560000C12CD12C760120819FEF980F213160F0C1
:10561000903228F4CC0CDD1CEE1CFF1C14C0880C4E
:10562000991CAA1CBB1C0FC0903238F4CC0CDD1C9A
:10563000EE1CFF1C6894C0F806C0880C991CAA1CBC
:10564000BB1C689480F832968F5F8533E1F68F2D0E
:105650008E3F29F0823301F5C1E0D0E002C0C0E006
:10566000D0E090913E0B80913D0B981311C040907B
:10567000430B5090440B6090450B7090460B0E947A
:105680002DD5461657066806790610F081E0ADC0A4
:105690001A2D1F70143010F080E0A7C0D701C6018A
:1056A00024E1B695A795979587952A95D1F7282F48
:1056B0002F70722E4601570134E0B694A794979448
:1056C00087943A95D1F70C2D0F7081E4780E08304D
:1056D00051F0043051F0023051F0013051F00330FC
:1056E00049F405E007C001E005C002E003C003E0A3
:1056F00001C004E08091BD0F91E0980F9093BD0F21
:105700001F928F938CE692E09F938F9325E73FE063
:105710003F932F930E9440DF65E77FE089EC9FE095
:105720000E945DD90F900F900F900F900F900F90E7
:10573000CD2B19F46FE27DE002C066E27DE089ECDA
:105740009FE00E9438D99F928F922BEC32E03F93DA
:105750002F93C5E7DFE0DF93CF930E9440DFBE01C8
:1057600089EC9FE00E945DD91F920F931F927F9258
:1057700085E793E09F938F93DF93CF930E9440DF61
:10578000BE0189EC9FE00E945DD961E27DE089EC79
:105790009FE00E9438D98DB79EB70E960FB6F89449
:1057A0009EBF0FBE8DBF111103C06DE17DE00EC025
:1057B000113019F468E17DE009C0123019F461E19B
:1057C0007DE004C0133031F469E07DE089EC9FE0B6
:1057D0000E9438D989EC9FE00E9465D981E08093CE
:1057E000490B1092480B1092470BDF91CF911F91FC
:1057F0000F91FF90EF90DF90CF90BF90AF909F9070
:105800008F907F906F905F904F9008958F929F92AE
:10581000AF92BF92CF92DF92EF92FF920F931F93BE
:10582000CF93DF938091470B9091480B8036910581
:1058300009F051C0E1E5FBE080E090E0C0E0C12C60
:10584000D12C760120E030813E30B0F0883018F461
:10585000220F216021C0803238F4CC0CDD1CEE1CFC
:10586000FF1C6894C0F818C0883218F4CC0FC160CF
:1058700013C0990F916010C0883010F4220F0CC033
:10588000803228F4CC0CDD1CEE1CFF1C05C08832D5
:1058900010F4CC0F01C0990F32968F5F803399F6C8
:1058A0002535C9F49F3FB9F490913E0B80913D0B93
:1058B000981313C08090430B9090440BA090450B1D
:1058C000B090460B0E942DD586169706A806B906FD
:1058D00020F081E079C080E077C0AC2EB12CC5010A
:1058E00095958795082F07701C2F1170C0FD0F5FCD
:1058F0008091BD0F91E0980F9093BD0F1F928F93F1
:105900008CE692E09F938F93C5E7DFE0DF93CF9320
:105910000E9440DFBE0189EC9FE00E945DD965EEE8
:105920007CE089EC9FE00E9438D9FF24FF92EF923F
:10593000DF92CF9285E792E09F938F93DF93CF938F
:105940000E9440DFBE0189EC9FE00E945DD91F925A
:105950000F93C501F4E095958795FA95E1F78F5B74
:105960001F928F9385E793E09F938F93DF93CF935D
:105970000E9440DFBE0189EC9FE00E945DD960EE8D
:105980007CE089EC9FE00E9438D98DB79EB746969F
:105990000FB6F8949EBF0FBE8DBF111112C06BEDF4
:1059A0007CE089EC9FE00E9438D989EC9FE00E945E
:1059B00065D981E08093490B1092480B1092470BF8
:1059C00003C067ED7CE0EDCFDF91CF911F910F9188
:1059D000FF90EF90DF90CF90BF90AF909F908F900F
:1059E00008954F925F926F927F928F929F92AF92A3
:1059F000BF92CF92DF92EF92FF920F931F93CF93BC
:105A0000DF938091470B9091480B8436910509F004
:105A10007EC08091510B823408F479C0E3E5FBE04D
:105A200081E0C12CD12C7601812C912C5401DF0115
:105A300011979C919131C8F09B3108F068C090811A
:105A40009E3008F064C09FEF980F983138F4880CAE
:105A5000991CAA1CBB1C689480F81BC0CC0CDD1CD4
:105A6000EE1CFF1C6894C0F814C09B3008F04FC0B7
:105A700090819D3008F44BC09FEF980F983128F427
:105A8000880C991CAA1CBB1C04C0CC0CDD1CEE1C91
:105A9000FF1C8F5F3296813351F68091B20B8B30B1
:105AA000B0F58091B30B8B3090F5D11030C0E11080
:105AB0002EC08C2D8F73813051F590913E0B8091CB
:105AC0003D0B981326C04090430B5090440B6090C0
:105AD000450B7090460B8CED480E85E0581E611CFE
